:0400000002001132B7
:03000B0002007080
:03006D0002000E80
:03000E000200F9F4
:20007000C020C0E0C0F0C082C083C007C006C005C004C003C002C001C000C0D075D00012B8
:200090000F8C75D00874FFB54A028021E527700CE526B52507E525045403F525E525242111
:2000B000F8A64AE525045403F525752700D0D0D000D001D002D003D004D005D006D007D021
:2000D00083D082D0F0D0E0D02032438E80758AC5758C1DC28DD28CD2A9D2AF22AFB174FBDC
:2000F0005FF5B143B204D2B222C015858115058105817F00A8150876007D00A815080876D6
:2001100000C007C0051200EC1200DA120921120B0ED005D007C2B4900012E4F0900013F0C7
:200130007408B545077408B54902C2B2C007C005E4C0E0C0E090000012097F15811581D06C
:2001500005D007A81508E67030C005C007C005122E48AA82AB83D0057D00C002C003C00599
:2001700090002975F040122928AD82158115811581D0078D04D005802EC005C007C005126F
:200190002E35AA82AB83D0057D00C002C003C00590002975F040122928AD821581158115C5
:2001B00081D0078D04D005EC701AC007C0057410C0E090002975F040120A1B1581D005D07B
:2001D00007020267C007C005C004740DC0E090002975F040120A1B1581D004D005D007EC95
:2001F00030E71875822DC007C005C004120A5CD004D005D007C3E49CFC8012758220C007A5
:20021000C005C004120A5CD004D005D007C2D575F00AEC30E704B2D5F4048430D502F4043E
:200230002430F582C007C005C004120A5CD004D005D00775F00AECC2D530E704D2D5F404EF
:2002500084E5F030D502F4042430F582C007C005120A5CD005D007E5276003020612E52627
:200270002421F98703E526045403F526E525B52603752701EB2401FAE43432FB8A828B8337
:20029000E493FEBE2A03020581BE2B03020581BE2D03020581BE2E0302042DBE2F03020563
:2002B00081BE30028051BE3103020388BE3203020388BE3303020388BE3403020388BE35F7
:2002D00003020388BE3603020388BE3703020388BE3803020388BE3903020388BE3C030269
:2002F0000581BE3D030204A3BE6303020522BE7203020581020605A81508B604004041A804
:20031000150808E6700E900012E4F0A81508087601020612C005900012E0900013F0900006
:2003300012E4F0A815080806A8150808C3740296D0054003020612A81508087601020612C8
:20035000A81508E67014A815087602EF2401F582E43400F583EEF0020612EF700302061292
:20037000BF10004003020612EF2401F582E43400F583EEF00F020612A81508B6040040530D
:20039000A8150808E67019C0058A828B83E49324D0900012F0A81508087601D00502061202
:2003B000C005900012E0900013F08A828B83E49324D0900012F0A815080806A8150808C3D9
:2003D000740296D0054003020612A81508087601020612A81508E67021C005A81508760233
:2003F000EF2401FCE43400FD8A828B83E493FE8C828D83F00FD005020612BF100040030219
:200410000612C005EF2401FCE43400FE8A828B83E4938C828E83F00FD005020612A8150866
:20043000E670288F060FEE2401F582E43400F5837430F08F060FEE2401F582E43400F5831E
:20045000742EF0A815087603020612A81508B6022BEF70108F060FEE2401F582E43400F550
:20047000837430F08F060FEE2401F582E43400F583742EF0A815087603020612A81508E602
:2004900024FB4007A8150806020612A815087604020612A81508E6606B900013E075F00A40
:2004B000A4FE900012E0FC2EFEA81508B60504C3E49EFEEF2401F582E43400F583E4F0EE3C
:2004D0003395E0FCC003C002C005C006C00490000175F000122D8E158115811581D002D06D
:2004F000038A828B83E493F582122EACA8150876007F00A81508087600900012E4F09000F2
:2005100013F080098E82C007122EACD0077D01020612A81508E6701EC007122DD9D0077DA1
:2005300001A815087602EF2401F582E43400F5837430F0020612A81508B604004016A81512
:200550000816A81508087600900012E4F0900013F0020612EF7003020612EF2401F582E41C
:200570003400F583E0FEBE2E04A81508161F020612A81508E6606B900013E075F00AA4FED3
:20059000900012E0FC2EFEA81508B60504C3E49EFEEF2401F582E43400F583E4F0EE339535
:2005B000E0FCC003C002C005C006C00490000175F000122D8E158115811581D002D0038AC7
:2005D000828B83E493F582122EACA8150876007F00A81508087600900012E4F0900013F09B
:2005F000800F8A828B83E493F582C007122EACD0077D00800D8E82C007C005122EACD00563
:20061000D007758200C007C005120AC2D005D007A81508E66003020706C007C005122E35C8
:20063000AC82AE837B00C004C006C00390002975F040122928AE82158115811581D005D02B
:20065000078E04EC701AC007C0057410C0E090002975F040120A1B1581D005D0070207F8F3
:20067000C007C005C004740DC0E090002975F040120A1B1581D004D005D007EC30E71875BE
:20069000822DC007C005C004120A5CD004D005D007C3E49CFC8012758220C007C005C0041B
:2006B000120A5CD004D005D007C2D575F00AEC30E704B2D5F4048430D502F4042430F58258
:2006D000C007C005C004120A5CD004D005D00775F00AECC2D530E704D2D5F40484E5F0308D
:2006F000D502F4042430F582C007C005120A5CD005D0070207F8EF7011758230C007C0057C
:20071000120A5CD005D0070207F8A81508B6040050317E00C3EE9F40030207F8BE10004084
:20073000030207F8EE2401F582E43400F583E0F582C007C006C005120A5CD005D006D007E8
:200750000E80D17E00C3EE9F5024BE0D00501FEE2401F582E43400F583E0F582C007C006B0
:20077000C005120A5CD005D006D0070E80D7BE0D00501ABE0D00502E758220C007C006C063
:2007900005120A5CD005D006D0070E80E6C007C005740DC0E0E4C0E090000112097F1581E4
:2007B0001581D005D007A81508B6051075822DC007C005120A5CD005D007800E758220C01E
:2007D00007C005120A5CD005D007900013E02430F582C007C005120A5C900012E02430F5FC
:2007F00082120A5CD005D007758201C007C005120AC2D005D007C2B4020130851581D0158C
:0108100022C5
:1F31F60000000A0000000000000000633C726D2F3938372A3635342D3332312B3D2E3009
:20081100AF82AEB0741F5EF5B0758232C007120FA1D00753070FEFC454F0F5A075826412B7
:200831000FA1D2B5758264120FA1C2B522E582FFC4540FF582C007120811758264120FA1A7
:20085100D0078F82120811758264020FA1E582FFC4540FF582C007120811D0078F8212086F
:20087100110208B8AFA0C2B7D2B6D2B5439580AE96747F5EF596758264C007120FA1A2A718
:200891009200AE95747F5EF595439680C2B5D2B5758264C020120FA1D020D007C2B58FA0D6
:2008B100A200E433F582227E007F00C007C006120875E582D006D007700122758201C00756
:2008D100C006120F92D006D0070EBE00010FC3EE9464EF940040D422AF82C0071208B8D009
:2008F10007C2B5D2B7C2B674F05FF5A0D2B5758264C007120FA1D007C2B553070FEFC454E7
:20091100F0F5A0D2B5758264120FA1C2B50208B87595007596FFAFB1740F5FF5B143B2F083
:2009310075821E120F92758203120811758205120F92758203120811758264120FA17582D1
:2009510003120811758264120FA1758202120811758264120FA175820612083E75820C1290
:20097100083E75821412083E75822802083EC015858115AE82AF83C3EE9402EF9400503BAF
:20099100E51524FCF8C3E6941008E69400502C8E05ED030354C02480FDE51524FCF8E62D89
:2009B100F582C007C00612085ED006D0078E108F11E51524FCF88612088613D01522E58206
:2009D100FF700D75828012085EE4F510F511800C7582C012085E751001751100E4F512F505
:2009F1001322AE82AF83740F5EFC7D00EFC4CEC4540F6ECE540FCE6ECEFFC004C0058E820C
:200A11008F8312097F1581158122C015858115AD82AE83AFF0E51524FDF886048D828E831F
:200A31008FF0123191FB6020EC601D8B82C007C006C005C004120A5CD004D005D006D0077D
:200A51000DBD00010E1C80D4D01522AF82BF0D028003BF0A05120AFE8053E4BF090104FE49
:200A71007003EE6016E510451170087582011209CF803A7582001209CF80328F821208E988
:200A91000512E4B512020513C37410951274808513F063F08095F05014E51045117008750B
:200AB10082011209CF80067582001209CF90000122AF82E512451360188F057E00EDB510E2
:200AD10010EEB5110C758220C007120A5CD00780E222E582540FFF24F6400A8F0674302EF0
:1D0AF100F582020A5C74572FF582020A5C75820112085EE4F510F511F512F51322A0
:200B0E007591007592007590FFAFB174FC5FF5B1AFB274FC5FF5B243B003AFC974CF5FF505
:200B2E00C9AFCA74CF5FF5CA43C8307F00EF2F25E02450FE7D00ED2EF9903215E493FCF7E3
:200B4E000DBD040040F00FBF050040E12275450043B203AFB074FC5FF5B043B003AFB27423
:200B6E00FC5FF5B2AF4530B0047E0080027E01EE2FF545AF4530B1047E0080027E02EE2F41
:200B8E00F545AF4530CC047E0080027E04EE2FF545AF4530CD047E0080027E08EE2FF5456E
:200BAE007F00903219E493FEC3EF9E505CEF042445F87600EF04FE8FF005F0740180022511
:200BCE00E0D5F0FBFD7C0074042CF5F005F07401800225E0D5F0FBF4F590ED5590FB7004FA
:200BEE007A0180027A008A03EE2445F987028CF005F0EB800225E0D5F0FBFB2AF77590FF47
:200C0E000CBC040040C10F809922C015E581F5152407F581754AFFE5152404F87600E51581
:200C2E002404F8E625E025E0FEFDA8150808EE2450F6E5152404F9E7244BF8E5152404F9F2
:200C4E00C000A81508E72445F6D000E5152403F97700C005A9150909C000E5152403F8E606
:200C6E0027FAD000A90287048605E5152403F9E725E0FF8FF005F07403800225E0D5F0FB7D
:200C8E005205E5152407F9A705E5152403F9E775F002A4FDAFF08DF005F0E5152407F9E706
:200CAE008002C313D5F0FBF7E5152405F9A704E5152407F9C000E5152406F8E7F6D000A900
:200CCE00150987018707E5152403F987F005F07A017D008006EA2AFAED33FDD5F0F78F0355
:200CEE007F00EB5202EF5205EA4DD005601D903216E493FFC3EC64808FF063F08095F05051
:200D0E0024E5152405F9EC04F7801A903215E493FFC364808CF063F08095F05008E51524C6
:200D2E0005F9EC14F7E5152407F9E724FC5003020EDAE5152407F9E72727900D4C73020D90
:200D4E0058020DA5020E1B020E69C005903215E493FF3395E0FB903218E493FA3395E0FD30
:200D6E00EA2FFFED3BFBE5152405F98702E73395E0FDC3EA9FED64808BF063F08095F0D039
:200D8E00055003020EF0E5152405F97700E5152406F97701020EF0903217E493FFE5152458
:200DAE0005F9C3E764808FF063F08095F04017E5152406F97702903216E493FBE515240568
:200DCE00F9A703020EF0C005EF3395E0FBC3E49FFFE49BFBE5152405F98702E73395E0FD1B
:200DEE00C3EF9AEB64808DF063F08095F0D0055003020EF0E5152406F97700903215E493EB
:200E0E00FFE5152405F9A7070564020EF0C005903216E493FF3395E0FB903218E493FA335E
:200E2E0095E0FDEFC39AFFEB9DFBE5152405F98702E73395E0FDC3EF9AEB64808DF063F048
:200E4E008095F0D0055003020EF0E5152405F97700E5152406F97703020EF0C0059032178F
:200E6E00E493FFFA3395E0FBC3E49AFAE49BFBE5152405F98704E73395E0FDC3EA9CEB64D1
:200E8E00808DF063F08095F0D0054016E5152406F97700903215E493FCE5152405F9A7041F
:200EAE008040E5152405F9C3E764808FF063F08095F0402EE5152406F97702903216E49390
:200ECE00FFE5152405F9A70705648016E5152406F97700903215E493FFE5152405F9A70791
:200EEE000564E5152407F9B701028011E5152406F9B70109E5152403F9E72EF54AED245065
:200F0E00FFE5152403F9E72FF9C000E5152405F8E6F7E5152404F8E6244BF98707E51524CF
:200F2E0003F8E625E0FCD0008CF005F07403800225E0D5F0FBF4FB52078CF005F0C000E564
:200F4E00152406F8E6800225E0D5F0FBFCD000EC4FF7E5152403F907E5152403F9B704002B
:200F6E005003020C60E5152404F806E5152404F8B605005003020C2C851581D01522120BE1
:040F8E005B020C18DE
:05321500E21E020204AC
:200F920075F00A74E6D5E0FDD5F0F8D582F222000000000000D582F722D2B422C0158581A9
:200FB20015C082C083C0F0C0E0E581240AF5817A007B00A81508E6084608460846701CE530
:200FD2001524FBF886050886060886078D828E838FF074301230977A017B00A81508E6085A
:200FF200460846084670030210AFE51524FBF8E5152405F9EA26F7EB083609F70809E6F77E
:20101200E51524FAF8E5152408F9E6F7097700097700097700C003C002E5152408F8E6C0E9
:20103200E008E6C0E008E6C0E008E6C0E0A8150886820886830886F008E61230B2AC82E5C3
:201052008124FCF58174302CFCE5152405F886820886830886F0EC123097E5152408F8E620
:20107200C0E008E6C0E008E6C0E008E6C0E0A8150886820886830886F008E6123124A815A6
:2010920008A68208A68308A6F008F6E58124FCF581D002D0030ABA00010B020FEDE51524B4
:2010B200FBF8EA26FDEB0836FE0886078D828E838FF0E4123097EA24FFFEEB34FFFFE515E4
:2010D200240CF8E4F608F6E515240CF8C3E69E08E664808FF063F08095F0400302117BE536
:2010F2001524FBF8E515240CF9E726C0E009E70836C0E008E6C0E0E515240AF8D0E0F618A8
:20111200D0E0F618D0E0F6E5152408F886820886830886F0E515240EF9123191F7E5152496
:20113200FBF8EE26FBEF0836FC0886058B828C838DF0123191FAE5152408F8868208868341
:201152000886F0EA1230978B828C838DF0E515240EF8E6123097E515240CF806B6000208D8
:1C117200061EBEFF011F0210D9E51524FBF886820886830886F0851581D01522AB
:20118E00C015858115C082C083C0F0E5812404F581E51524FBF886020886030886048A8250
:2011AE008B838CF0123191FEA3123191FFA8150886820886830886F0EE123097A3EF123058
:2011CE0097A81508740226FDE40836FE088607E5152404F874022AF6E43B08F608A604E5F3
:2011EE00152407F87600E5152407F8E62DFAE43EFB8F04C005C006C007E5152404F8E515F3
:20120E002407F9E726FDE40836FE0886078D828E838FF0123191FD8A828B838CF0123097FE
:20122E00E5152407F806E5152407F8B60900D007D006D00540B0851581D01522AD8212319B
:20124E0091FEA3123191FF30E60C8E048F058C8274804DF583228E82747F5FF58322C01579
:20126E00858115AD82AE83AFF0E51524FBF8E66018E51524FCF88603088604E51524FCF898
:20128E00A60374804C08F6800AE51524FCF808E6547FF68D828E838FF0E51524FCF8E6125D
:2012AE003097A308E6123097D01522C015858115058105810581AD82AE83AFF0A81508742E
:2012CE00022DF6E43E08F608A607E51524FDF88604BC0900501AA81508EC26FAE40836FB4C
:2012EE000886078A828B838FF0E41230970C80E1851581D01522C01585811505810581ADBD
:20130E0082AE83AFF0A81508760074022DFDE43EFEA81508087600A8150808E62DFAE43E33
:20132E00FB8F04C005C006C0078A828B838CF0123191FF75F00A84FE75F00AEF84AFF0A83C
:20134E001508E675F00AA4FD2EFE8A828B838CF0123097A81508A607A815080806A81508C7
:20136E0008B60900D007D006D00540AB851581D01522C01585811505810581AD82AE83AFFE
:20138E00F0A81508760074022DFDE43EFEA81508087608A8150808E62DFAE43EFB8F04C0BF
:2013AE0005C006C0078A828B838CF0123191FF75F00A84FE75F00AEF84E5F075F00AA4FF6A
:2013CE00A81508EF268A828B838CF0123097A81508A606A815080816A8150808E6D007D008
:2013EE0006D00530E7AD851581D01522C015858115C082C083C0F0E5812408F581A815082C
:20140E0086820886830886F0123191A3123191FCE5152408F8EC33E433F6A81508868208C1
:20142E0086830886F012124AAA82AB83E5152409F8A60208A603A81508740226FAE408365A
:20144E00FB088604E5152407F87600E5152407F8E62AFDE43BFE8C078D828E838FF01231A2
:20146E00917010E5152407F806E5152407F8B6090040D8E5152407F8E675F002A4FEAFF08B
:20148E00E5152409F8E6C39EF608E69FF6E5152407F8E67003021539E5152407F8B60900BD
:2014AE004003021539A81508740226FDE40836FE088607E515240BF87600E5152407F8E5DF
:2014CE00152407F8B60900504AE515240BF8E5152404F9E62DF7E43E09F709A707E5152430
:2014EE0007F8E62DFAE43EFB8F048A828B838CF0123191FAE5152404F886820886830886FD
:20150E00F0EA123097E515240BF806E5152407F80680ACE515240BF8E6C0E0A81508868220
:20152E000886830886F01212B91581A81508740226FDE40836FE0886078D828E838FF012D7
:20154E003191FDBD0A005019A8150886820886830886F0121380E5152409F816B6FF020899
:20156E0016E5152408F8E6C0E0E5152409F8E6C0E008E6C0E0A8150886820886830886F014
:20158E0012126C158115811581851581D01522C015858115C082C083C0F0E5812408F5819C
:2015AE00E5152408F87600E5152409F87600E515240AF87600E515240BF87600E51524FBAE
:2015CE00F886050886060886078D828E838FF0123191FC7011A8150886820886830886F005
:2015EE001219A90219A3BC2D07E515240BF87602A81508E5152404F9740226F7E408360924
:20160E00F70809E6F7E5152407F87600E5152407F8E62DFAE43EFB8F048A828B838CF012C2
:20162E003191FCBC2E26E515240BF8E620E00CE515240BF8E64401F602199AA815088682F7
:20164E000886830886F0121A090219A3C3EC648094B15003021744C374B98CF063F080959E
:20166E00F05003021744E5152408F8B612005050E5152408F8E630E03EC005C006C007E5AD
:20168E00152408F8E6C313FBE5152404F8EB26FAE40836FB088607E5152409F8E675F00A01
:2016AE00A4FEEC24D02E8A828B838FF0123097D007D006D0058009E5152409F8EC24D0F6FA
:2016CE00E5152408F806E515240BF8B601028008E515240BF8B60307E515240AF876FFE51B
:2016EE0015240BF8E67009E515240BF876048031E515240BF8B60109E515240BF8760580F8
:20170E0020E515240BF8B60209E515240BF87606800FE515240BF8B60307E515240BF87615
:20172E0007E515240BF8E630E00302199AE515240AF80602199AE5152407F8E62DFAE43E9E
:20174E00FB8F048A828B838CF0123191FCBC30028003021815E515240BF8C3748386F06333
:20176E00F08095F0E433FB6059E5152408F8B612005049E5152408F8E630E039C005C00644
:20178E00C007E5152408F8E6C313FAE5152404F8EA26FAE40836FE088607E5152409F8E6C2
:2017AE0075F00AA48A828E838FF0123097D007D006D0058007E5152409F87600E5152408CF
:2017CE00F806E515240BF8E630E02DEB600302199AE515240AF8E6700AE515240AF876FEA2
:2017EE0002199AE515240AF8E620E70302199AE515240AF81602199AEB700302199AE51569
:20180E00240AF80602199AEC600302199AE515240BF8C3748386F063F08095F04011A8151E
:20182E000886820886830886F01219A90219A3E5152408F8E630E035A81508740226FFE4DC
:20184E000836FE088605E5152408F8E6C3132FFFE43EFEE5152409F8E675F00AA4FC8F825E
:20186E008E838DF0123097E5152408F806E5152408F8E6C313FCC004A81508868208868357
:20188E000886F01212B91581E515240AF8C3748086F063F08095F05050E51524F9F886046B
:2018AE00E515240AF8E6142CFCFA3395E0FBE51524F9F8C3EA96EB64800886F063F0809534
:2018CE00F04015E51524F9F8C374FF9674BF0886F063F08095F0506CA81508868208868337
:2018EE000886F0121A090219A3E515240AF8E630E74BE51524F9F88603E515240AF8E62B38
:20190E00FCECFA3395E0FBE51524F9F8C3E69A08E664808BF063F08095F04011E51524F9D5
:20192E00F8C3E6940108E6648094405017A8150886820886830886F0121A098058E51524CF
:20194E00F9F88604EC3395E0FBE51524F9F8A60408A603E515240BF8C3E664809486B3E4A6
:20196E0033FAC002C004C003A8150886820886830886F012126C158115811581A8150886EA
:20198E00820886830886F01213FA8009E5152407F80602161A851581D01522AD82AE83AFFA
:2019AE00F0E4123097A312309774022DFDE43EFE7C00EC2DF9E43EFA8F0389828A838BF061
:2019CE00E41230970CBC090040E822AD82AE83AFF074022DFDE43EFE7C00EC2DF9E43EFAB8
:2019EE008F0389828A838BF01231916004758200220CBC090040E375820122AD82AE83AF46
:201A0E00F074FF123097A3E412309774022DFDE43EFE7C00EC2DF9E43EFA8F0389828A8308
:201A2E008BF0E41230970CBC090040E822AD82AE83AFF0123191FBA3123191FC903226E438
:201A4E0093F9740193FAE96203EA62048D828E838FF0EB123097A3EC023097C015858115A1
:201A6E00058105810581AD82AE83AFF0E5152403F87600C005C006C00790001475F00012CB
:201A8E00118E158115811581E51524FBF8E6C0E008E6C0E008E6C0E090001F75F0001211ED
:201AAE008E15811581158190001475F0001213FA90001F75F0001213FA7F007E00A81508AB
:201ACE00E4F608F67A007D00BF09004003021B6DBE09004003021B6DE5152403F8E670325F
:201AEE00C002C005EF2416FBE43400FDEE2421FAE43400FC8B828D83E0FB8A828C83E0FAEA
:201B0E00C3EB9AD005D0025009E5152403F876FF8036E5152403F8E6702EC002C005EF24F4
:201B2E0016FBE43400FCEE2421FAE43400FD8B828C83E0FB8A828D83E0C39BD005D00250E8
:201B4E0007E5152403F876010F0EA81508740226F6E40836F674022AFAE43DFD021AD6901A
:201B6E00001475F000C005C00212124AAE82AF83D002D005A81508EE26FEEF0836FF90004D
:201B8E001F75F000C007C006C005C00212124AAB82AC83D002D005D006D007EB2AFAEC3D49
:201BAE00FD8A04C3EC9EED64808FF063F08095F05005758201801BC3EE9CEF64808DF063AF
:201BCE00F08095F050057582FF8007E5152403F88682851581D01522C015858115AD82AE20
:201BEE0083AFF0C007C006C0051219D9E582D005D006D0076026E51524FBF88682088683C6
:201C0E000886F0C007C006C0051219D9E582D005D006D0076006758200021D728D828E83EB
:201C2E008FF0C007C006C0051219D9E582D005D006D007602BE51524FBF88602088603081B
:201C4E0086048A828B838CF0123191FAA3123191FB30E706758201021D727582FF021D72E9
:201C6E00E51524FBF886820886830886F0C007C006C0051219D9E582D005D006D007601EF1
:201C8E008D828E838FF0123191FBA3123191FC30E7067582FF021D72758201021D728D8219
:201CAE008E838FF0123191FBA3123191FC30E730E51524FBF886020886030886048A828BAA
:201CCE00838CF0123191FAA3123191FBC3E49A74808BF063F08095F050067582FF021D72D2
:201CEE008D828E838FF0123191FBA3123191FCC3E49B74808CF063F08095F05024E5152459
:201D0E00FBF886020886030886048A828B838CF0123191FAA3123191FB30E70575820180AD
:201D2E00438D828E838FF0123191FBA3123191FC30E7047CFF80027C01C004E51524FBF807
:201D4E00E6C0E008E6C0E008E6C0E08D828E838FF0121A69AF82158115811581D0048FF059
:201D6E00ECA4F582D01522C015858115AD82AE83AFF0C007C006C00512124AAB82AC83D06C
:201D8E0005D006D007E51524FCF8E6B5030708E6B5040280248D828E838FF0C007C006C093
:201DAE0005C004C003121304D003D004D005D006D0070BBB00CF0C80CCD01522C015858168
:201DCE0015C082C083C0F0E5812405F581E5152408F87600E51524FBF8E6C0E008E6C0E0ED
:201DEE0008E6C0E090002A75F00012118E158115811581A8150886820886830886F0121334
:201E0E00FA90002A75F0001213FAA8150886820886830886F012124AAA82AB8390002A7529
:201E2E00F000C003C00212124AAE82AF83D002D003EAB50606EBB507028023A815088682E6
:201E4E000886830886F012124AAE82AF83C006C00790002A75F000121D7515811581A815DC
:201E6E0008740226FDE40836FE088607E5152407F87608E5152407F8E62DFAE43EFB8F0489
:201E8E00E5152407F8E6242CF582E43400F583E5152404F8E0F6C005C006C007E515240476
:201EAE00F8E5152405F9E6F7097700E5152408F886057F00E5152405F8ED26FDEF0836FF24
:201ECE008A828B838CF0123191FBFC7E00C3EC9DEE64808FF063F08095F0D007D006D0059E
:201EEE004021E5152404F8E5152408F9E726FCEBC39CFCE5152405F8A604E5152408F87692
:201F0E0000802374642BFBE5152404F8E5152408F9E726FAEBC39AFBE5152405F8A603E5E6
:201F2E00152408F87601E5152407F8E62DFAE43EFB8F048A828B838CF0E5152405F8E61260
:201F4E003097E5152407F816E5152407F8E620E703021E81851581D01522C015858115C0F9
:201F6E0082C083C0F0E5812406F581E5152407F87600E51524FBF886820886830886F0128B
:201F8E0019D9E582600302247BA8150886820886830886F01219D9E5826027E51524FBF877
:201FAE00E6C0E008E6C0E008E6C0E0A8150886820886830886F012118E15811581158102A0
:201FCE00247BA8150886820886830886F0123191FAA3123191FB20E7030220BCE51524FBB7
:201FEE00F886020886030886048A828B838CF0123191FEA3123191FF30E7030220BCC00496
:20200E00C003C002C002C003C004A8150886820886830886F0121A69AF8215811581158100
:20202E00D002D003D004BF011DC002C003C004A8150886820886830886F0121DCA158115F3
:20204E0081158102247BBFFF54C002C003C00490003575F00012118E158115811581A81505
:20206E0008E6C0E008E6C0E008E6C0E090003575F000121DCA1581158115817435C0E07406
:20208E0000C0E0E4C0E0A8150886820886830886F012118E15811581158102247BA81508D9
:2020AE0086820886830886F01219A902247BA8150886820886830886F0123191FDA31231F3
:2020CE0091FE30E7030221AAE51524FBF886040886050886068C828D838EF0123191FAA3AD
:2020EE00123191FB20E7030221AAC006C005C004C004C005C006A815088682088683088622
:20210E00F0121A69AB82158115811581D004D005D0068B07BF011DC004C005C006A815083B
:20212E0086820886830886F0121DCA15811581158102247BBFFF54C004C005C00690003578
:20214E0075F00012118E158115811581A81508E6C0E008E6C0E008E6C0E090003575F00008
:20216E00121DCA1581158115817435C0E07400C0E0E4C0E0A8150886820886830886F01247
:20218E00118E15811581158102247BA8150886820886830886F01219A902247BE51524FB45
:2021AE00F8E6C0E008E6C0E008E6C0E090003575F00012118E158115811581A8150886820D
:2021CE000886830886F01213FA90003575F0001213FAA8150886820886830886F012124A30
:2021EE00AD82AE8390003575F000C006C00512124AAB82AC83D005D006C3EB9DEC64808E9E
:20220E00F063F08095F05026A8150886820886830886F012124AAD82AE83C005C0069000AD
:20222E003575F000121D7515811581022310A8150886820886830886F012124AAD82AE83C7
:20224E0090003575F000C006C00512124AAB82AC83D005D006C3ED9BEE64808CF063F080DA
:20226E0095F040030223107E0090003575F000C00612124AAC82AD83A8150886820886833B
:20228E000886F0C005C00412124AAA82AB83D004D005D006ECC39AFCED9BFDEEFA3395E088
:2022AE00FBC3EA9CEB64808DF063F08095F05015A8150886820886830886F0C00612130478
:2022CE00D0060E80A4A8150886820886830886F0123191A312319133E433FD90003575F0D0
:2022EE0000C00512124AAC82AE83C004C006A8150886820886830886F012126C158115819C
:20230E001581A81508E5152404F9740226F7E4083609F70809E6F77F08E5152404F8EF26E0
:20232E00FAE40836FB088606EF2437F582E43400F583E0FD8A828B838EF01231912DFDE53B
:20234E00152407F8E62DFD75F06484ACF08A828B838EF0EC123097E5152407F875F064ED0E
:20236E0084F61FEF30E7B2E5152407F8E6700302247BA8150886820886830886F012124A1D
:20238E00AD82AE83E5152408F8A60508A606A8150886820886830886F0123191FBA3123141
:2023AE0091FC33E433FFE5152407F8B60A005051C007A8150886820886830886F0C00712BF
:2023CE001304D007A81508740226FAE40836FB088604E5152407F8E675F00AA4FF8A828B4B
:2023EE00838CF0123191FE2FFF8A828B838CF0123097E5152408F806B600020806D0078020
:20240E004AA8150886820886830886F0C007121304A8150886820886830886F0121304D0C3
:20242E0007A81508740226FCE40836FD0886068C828D838EF0E5152407F8E6123097E51505
:20244E002408F8740226F6E40836F6C007E5152408F8E6C0E008E6C0E0A81508868208864C
:20246E00830886F012126C158115811581851581D01522C015858115C082C083C0F0E5814E
:20248E00240CF581E515240CF87600E51524FBF8E6C0E008E6C0E008E6C0E090004075F008
:2024AE000012118E15811581158190004B75F0001219A9A8150886820886830886F0121306
:2024CE00FA90004075F0001213FAA8150886820886830886F0123191A3123191FB7A005331
:2024EE000380900040E0A3E0FF7C00530780EC6202EF6203EA4B6009E515240DF876018067
:20250E0007E515240DF87600A8150886820886830886F012124AAD82AE8390004075F000AE
:20252E00C006C00512124AAB82AC83D005D006EB2DFDEC3EFEE515240EF8A60508A606A825
:20254E001508E5152406F9740226F7E4083609F70809E6F77F08E5152404F8EF2442F6E4C0
:20256E00340008F6E515240BF87608C007E515240BF8E6244DFDE43400FF8D828F83E0FE2A
:20258E00E5152409F8A606087600E5152406F8E515240BF9E726FAE40836FB0886068A82E2
:2025AE008B838EF0123191FAE5152404F88682088683E0FE8EF0EAA4C8E5152409C826FCBD
:2025CE0008E635F0FEE515240CF886027B00EA2CFCEB3EFEC007C006C005C0047464C0E0F0
:2025EE00E4C0E08C828E831231ADAA8215811581D004D005D006D0078D828F83EAF07464B9
:20260E00C0E0E4C0E08C828E83123066AE8215811581E515240CF8A606E515240BF816E57B
:20262E0015240BF8E6D00720E703022579EF602090004B75F000C00712130490004B75F00A
:20264E0000121304D00790004DE515240CF8E6F01FEF20E703022564E515240CF8B60A0012
:20266E00402990004B75F00012130490004B75F000121304E515240EF806B6000208069091
:20268E00004DE515240CF8E6F08027E515240CF8E6601F90004B75F000121304E515240C26
:2026AE00F8E675F00AA4FF90004DE0FE2FFF90004DF0E515240DF8E6C0E0E515240EF8E6B3
:2026CE00C0E008E6C0E090004B75F00012126C158115811581744BC0E07400C0E0E4C0E035
:2026EE00A8150886820886830886F012118E158115811581A8150886820886830886F0128F
:20270E0013FA851581D01522C015858115C082C083C0F005810581E51524FBF886820886A4
:20272E00830886F01219D9E5826011A8150886820886830886F0121A09022922A81508E625
:20274E00C0E008E6C0E008E6C0E090006175F00012118E158115811581E51524FBF88682CD
:20276E000886830886F012124AAB82AC83E5152404F8A60308A604E5152404F808E620E76E
:20278E001DE5152404F8C3E496FA08E496FFE5152404F8EA24FFF6EF34FF08F6800DE51578
:2027AE002404F8C3E496F608E496F6E51524FBF886020886030886048A828B838CF01231AB
:2027CE0091A312319133E433FEC004C003C002C006E5152404F8E6C0E008E6C0E090005678
:2027EE0075F00012126C158115811581D002D003D004900058740AF07F01EF2458F582E4FF
:20280E003400F583E4F00FBF090040EEC004C003C0027456C0E07400C0E0E4C0E0A8150815
:20282E0086820886830886F012118E158115811581D002D003D0047F00C007C004C003C07A
:20284E0002C002C003C004A8150886820886830886F0122481158115811581A8150886827D
:20286E000886830886F0121A3B741AC0E07432C0E07480C0E0A8150886820886830886F0F0
:20288E00121F681581158115817456C0E07400C0E0E4C0E0A8150886820886830886F0125F
:2028AE0024811581158115817456C0E07400C0E0E4C0E0A8150886820886830886F0121F14
:2028CE0068158115811581A81508E6C0E008E6C0E008E6C0E090005675F00012118E1581C7
:2028EE0015811581D002D003D004D0070FBF0D0050030228477461C0E07400C0E0E4C0E0A2
:20290E00A8150886820886830886F0122481158115811581851581D01522C015858115C002
:20292E0082C083C0F0058105810581E4FCFBE5152406F87600C004C003E51524FBF8E6C0D7
:20294E00E008E6C0E008E6C0E090006C75F00012118E15811581158190006C75F000121313
:20296E00FAD003D00490006EE0702EA8150886820886830886F07430123097A81508740119
:20298E0026FDE40836FE0886078D828E838FF0E4123097758200022D4A90006CE0FEA3E028
:2029AE00FF30E712A8150886820886830886F0742D1230977C01C00390006C75F000C004A6
:2029CE00C00312124AAE82AF83D003D004E5152404F8A60608A607903225E493FB7D001B43
:2029EE00BBFF011DE5152404F8C3EB96ED64800886F063F08095F0D0034011E5152404F8AE
:202A0E00C3E694FD08E66480947F5007E5152406F87601E5152406F8E67077E5152404F89C
:202A2E0008E630E76DC003A81508EC26FAE40836FB0886058A828B838DF074301230970CB2
:202A4E008C050CA81508ED26FDE40836FB0886028D828B838AF0742E123097E5152404F81D
:202A6E0086050DC3E49DFDFF8C06D003C003A81508EE26FAE40836FB0886058A828B838D1E
:202A8E00F074301230970EEF14FDFFD003ED70DC8E04C003A81508EC26FAE40836FB0886D1
:202AAE000590006EE075F00A842430FF8A828B838DF01230970CD003E5152406F8E6601D11
:202ACE008C070CA81508EF26FFE40836FE0886058F828E838DF0742E1230978030E51524D5
:202AEE0004F8E60846701B8C070CA81508EF26FFE40836FE0886058F828E838DF0742E128F
:202B0E003097E5152404F816B6FF020816A81508EC26FDE40836FE08860790006EE075F00F
:202B2E000A84AAF074302AFA8D828E838FF012309790006EE0FF75F00A84E5F07014E515FC
:202B4E002406F8E6700AE5152404F808E630E7027B010CE5152406F8E67030E5152404F880
:202B6E00E60846701B8C070CA81508EF26FFE40836FE0886058F828E838DF0742E12309743
:202B8E00E5152404F816B6FF0208167F01C003A81508EC26FAE40836FD088606EF246EF5E5
:202BAE0082E43400F583E075F00A8424308A828D838EF01230970CD003E5152406F8E6700A
:202BCE0030E5152404F8E60846701B8C060CA81508EE26FEE40836FD0886028E828D838A10
:202BEE00F0742E123097E5152404F816B6FF020816C003A81508EC26FAE40836FD08860610
:202C0E00EF246EF582E43400F583E075F00A84ABF074302B8A828D838EF01230970CD0038F
:202C2E00E5152406F8E67030E5152404F8E60846701B8C060CA81508EE26FEE40836FD086F
:202C4E0086028E828D838AF0742E123097E5152404F816B6FF020816EF246EFDE43400FE30
:202C6E008D828E83E0703EE5152406F8E6700AE5152404F808E630E72CE5152406F8E6705F
:202C8E0011E5152404F8C3E694FE08E66480947F50040B0B803BE5152404F8B6FE3308B6F7
:202CAE00FF2F0B802CEF246EF582E43400F583E0FE75F00A84E5F07016E5152406F8E670FB
:202CCE000AE5152404F808E630E7047B0180027B000FBF09005003022B9BE5152406F8E64C
:202CEE007014E5152404F8C3E49674800886F063F08095F04004ECC39BFCA81508EC26FCC4
:202D0E00E40836FF0886068C828F838EF0E412309790006C75F00012124AAE82AF83E5156A
:202D2E002404F8A60608A607E5152406F8E66009E5152404F886828003758200851581D012
:022D4E0015224C
:0E321A0000000A00000000000000001000800C
:03006A007514000A
:202D500074032514540375F00BA42477FE740035F0FF7D007403551475F00BA42477FB749C
:202D70000035F0FC7A00C006C007C0058B828C838AF012118E158115811581051422C0153D
:202D9000858115AD82AE83AFF0E51524FBF8E6700215147403551475F00BA42477FB740079
:202DB00035F0FC7A00E51524FCF8E6C0E008E6C0E0C005C006C0078B828C838AF012159D96
:202DD000E58124FBF581D015227403551475F00BA42477FE740035F0FF7D008E828F838D90
:202DF000F00219A9C015858115AD82AE83AFF07403551475F00BA42477FB740035F0FC7A87
:202E100000E51524FCF8E6C0E008E6C0E0C005C006C0078B828C838AF012159DE58124FB4B
:202E3000F581D015227403551475F00BA42477F582740035F0F58322E51404540375F00B08
:202E5000A42477F582740035F0F58322AE82AF837403551475F00BA42477FC740035F0FDF6
:202E70007B00E51404540375F00BA42477F9740035F0F87A00C007C006C004C005C00312D5
:202E90002E94800BC006C007898288838AF022158115811581D006D007022D50C015E5816D
:202EB000F515240EF581AF82C007120FABD007BF2A028032BF2B028024BF2D028031BF2FFB
:202ED000028050BF3C03022F89BF3D02804EBF6303022F6BBF7203022FA7023060901F6816
:202EF000122E5C023060902481122E5C0230607403551475F00BA42477FE740035F0FF7D8F
:202F1000008E828F838DF0121A3B901F68122E5C023060902716122E5C0230601514E51439
:202F300004540375F00BA42477FE740035F0FF7D007403551475F00BA42477FB740035F041
:202F5000FC7A00C006C007C0058B828C838AF012118E1581158115810230607403551475A9
:202F7000F00BA42477FE740035F0FF7D008E828F838DF01219A90230607403551475F00B9F
:202F9000A42477FE740035F0FF7D008E828F838DF0121A3B0230607403551475F00BA4241F
:202FB00077FE740035F0FFA81508A60608A607087600E5152404FCFA7B007F40C004A8157D
:202FD00008E6C0E008E6C0E008E6C0E08A828B838FF012118E158115811581E514045403D7
:202FF00075F00BA42477FE740035F0FFA81508A60608A6070876007403551475F00BA424C0
:2030100077FA740035F0FB7F00A81508E6C0E008E6C0E008E6C0E08A828B838FF012118E6B
:203030001581158115817F007E40E51404540375F00BA42477FB740035F0FD7A00C007C0EC
:16305000068B828D838AF012118E158115811581851581D0152238
:0B32280000000A000000000000000091
:20306600E58124FEF8E6F918E6F87A10E4FBFCE58225E0F582E58333F583EB33FBEC33FC66
:11308600EB98F5F0EC994006FCABF0438201DADF22CE
:06004000E478FFF6D8FD94
:20001E007900E94400601B7A0090323378A375A000E493F2A308B8000205A0D9F4DAF27581
:02003E00A0FF21
:1B30970020F71130F6138883A88220F509F6A8837583002280FEF280F5F02238
:200046007800E84400600A790175A000E4F309D8FC78A2E84400600C7901900001E4F0A315
:04006600D8FCD9FAEF
:2030B200F9E58124FBF886020886030886040886057800EA4B4C4D60587800C308ED20E715
:2030D20027EA25E0FAEB33FBEC33FCED33FDE5829AE5839BE5F09CE99D50E1C3ED13FDECA5
:2030F20013FCEB13FBEA13FAE5829AE5839BFEE5F09CFFE99D400AF98FF08E83E5829AF5FE
:1231120082C3ED13FDEC13FCEB13FBEA13FAD8D8E922C3
:20312400FBE58124FBF8E6F9087A20E4FCFDFEFFE5822582F582E58333F583E5F033F5F033
:20314400EB33FB4017DAE98042E5822582F582E58333F583E5F033F5F0EB33FBEC33FCEDD0
:2031640033FDEE33FEEF33FFEC99ED96EE0896EF089618184013EC99FCED96FDEE0896FEAC
:0D318400EF0896FF1818438201DABEEB2217
:0D00110075817F1231F2E582600302000E5E
:1C31910020F71430F6148883A88220F507E6A88375830022E280F7E49322E0224D
:2031AD00E58124FEF88601188600E84960367A01E825E0F8E933400EF9E58298E583994093
:2031CD00030A80ECC3E913F9E813F8C3E58298F5F0E583994005F58385F082C3E913F9E8C2
:0531ED0013F8DAE722EF
:0431F20075820022C0
:00000001FF
