:0400000002001332B5
:03000B0002008A66
:09006C00751700751801751900E3
:0300870002000E66
:03000E0002017874
:20008A00C021C0E0C0F0C082C083C0D075D008120B28120BF274FFB52802801CE51670070F
:2000AA00E515B514028021E5142410F8A628E514045403F5147516007880860FBF08097820
:2000CA0084860FBF0802C2B2D0D0D083D082D0F0D0E0D02132438E80758AC5758C1DC28D66
:2000EA00D28CD2A9D2AF22AFB174FB5FF5B143B204D2B222C374019518E433FFB40100E473
:20010A0033F58222751700751900900012E4F0900013F022C374019518B3E433FF703D90D9
:20012A000013E075F00AA4FF900012E0FE2FFF7405B51804C3E49FFFE5172401F582E434C3
:20014A0000F583E4F0EFF5693395E0F56A90000112266212010EE56660020566E51A902ED4
:20016A00D693F582122899751801756600227516011200F11208FA120AD81200DFC2B490A9
:20018A000012E4F0900013F075272090009E1209F578808607BF080978848607BF0802C279
:2001AA00B2E51670ECE5152410F9871AE515045403F515E514B51503751601E51A902ED620
:2001CA0093FFBF2A0302059FBF2B0302059FBF2D0302059FBF2E030203ABBF2F0302059F92
:2001EA00BF30028051BF31030202BDBF32030202BDBF33030202BDBF34030202BDBF350366
:20020A000202BDBF36030202BDBF37030202BDBF38030202BDBF39030202BDBF3C03020524
:20022A009FBF3D03020480BF630302053CBF720302059F0205FAE5676005C2B20205FF74AE
:20024A00FC2518502EE519700B900012E4F07519010205FF900012E0FE900013F0900012A4
:20026A00E4F00519E51924FD40030205FF7519010205FFC374019518B3E433FE60137518D8
:20028A0002E5172401F582E43400F583EFF00205FFE51770030205FF74F0251750030205D6
:2002AA00FFE5172401F582E43400F583EFF005170205FFE567605CC374019518B3E433FE57
:2002CA00703D900013E075F00AA4FE900012E0FD2EFE7405B51804C3E49EFEE5172401F585
:2002EA0082E43400F583E4F0EEF5693395E0F56A90000112266212010EE56660020566E572
:20030A001A902ED693F5821228997518017566000205FF74FC2518503DE5197013E51A908F
:20032A002ED69324D0FE900012F07519010205FF900012E0900013F0E51A902ED69324D0D4
:20034A00FE900012F00519E51924FD40030205FF7519010205FFC374019518B3E433FE60DB
:20036A001D751802E5172401FDE43400FEE51A902ED693FC8D828E83F005170205FF74F0DB
:20038A00251750030205FFE5172401FDE43400FEE51A902ED693FC8D828E83F00517020535
:2003AA00FFE567605CC374019518B3E433FE703D900013E075F00AA4FE900012E0FD2EFE93
:2003CA007405B51804C3E49EFEE5172401F582E43400F583E4F0EEF5693395E0F56A9000A7
:2003EA000112266212010EE56660020566E51A902ED693F58212289975180175660002053F
:20040A00FFC374019518B3E433FE6028AE170517EE2401F582E43400F5837430F0AE170545
:20042A0017EE2401F582E43400F583742EF07518030205FF7402B5182CE5177011AE1705A3
:20044A0017EE2401F582E43400F5837430F0AE170517EE2401F582E43400F583742EF075CB
:20046A0018030205FFE51824FB400505180205FF7518040205FFE567605CC374019518B396
:20048A00E433FE703D900013E075F00AA4FE900012E0FD2EFE7405B51804C3E49EFEE517C8
:2004AA002401F582E43400F583E4F0EEF5693395E0F56A90000112266212010EE5666002E6
:2004CA000566E51A902ED693F5821228997518017566000205FFC374019518B3E433FE70AB
:2004EA003D900013E075F00AA4FE900012E0FD2EFE7405B51804C3E49EFEE5172401F58251
:20050A00E43400F583E4F0EEF5693395E0F56A90000112266212010EE56660020566E51AB7
:20052A00902ED693F5821228997518017566010205FFE567700BC374019518B3E433FE60FC
:20054A001A75670075660112010E751800E51A902ED693F5821228990205FF74FC2518509E
:20056A00111518751900900012E4F0900013F00205FFE51770030205FF1517E5172401F5DF
:20058A0082E43400F583E0FEBE2E0280030205FF7518028060C374019518B3E433FE703D21
:2005AA00900013E075F00AA4FE900012E0FD2EFE7405B51804C3E49EFEE5172401F582E4E9
:2005CA003400F583E4F0EEF5693395E0F56A90000112266212010EE56660020566E51A904B
:2005EA002ED693F58212289975180175660080058F821228997526007582001209A6C374B4
:20060A00019518B3E433FF7004E56660161226CAAE82AF837D008E828F838DF012233AAF86
:20062A008280141226B7AD82AE837C008D828E838CF012233AAF82EF700B75271090001FCE
:20064A001209F5806575270D90001FC0071209F5D007EF30E710758201C007120A2AD007A3
:20066A00C3E49FFF800A758200C007120A2AD007C2D575F00AEF30E704B2D5F4048430D5AE
:20068A0002F4042430F582C007120A2AD00775F00AEFC2D530E704D2D5F40484E5F030D59A
:2006AA0002F4042430F582120A2A758200120A8C7401B51802800302074F1226B7AD82AE9B
:2006CA00837C008D828E838CF012233AE582FF700C75271090001F1209F50207F975270D0E
:2006EA0090001FC0071209F5D007EF30E710758201C007120A2AD007C3E49FFF800A7582DB
:20070A0000C007120A2AD007C2D575F00AEF30E704B2D5F4048430D502F4042430F582C04E
:20072A0007120A2AD00775F00AEFC2D530E704D2D5F40484E5F030D502F4042430F58212A7
:20074A000A2A0207F9E5177009758230120A2A0207F974FC2518402A7F00C3EF951740033E
:20076A000207F9BF100040030207F9EF2401F582E43400F583E0F582C007120A2AD0070FF4
:20078A0080D87F00C3EF9517501CBF0D005017EF2401F582E43400F583E0F582C007120A26
:2007AA002AD0070F80DEBF0D005012BF0D005016758220C007120A2AD0070F80EE75260D41
:2007CA007582011209A67405B51808758201120A2A8006758200120A2A900013E02430F53B
:2007EA0082120A2A900012E02430F582120A2A758201120A8CE567600675825E120A2AC2E5
:04080A00B402019B98
:202EC00000000A0000000000000000000017023A325C63282D44633C726D2F3938372A3656
:202EE00035342D3332312B3D2E305354432052504E20202020202020202043616C63756C72
:0B2F000061746F722076312E303800B3
:202FA2005354432052504E20202020202020202043616C63756C61746F722076312E30388E
:012FC200000E
:20080E00AF82AEB0741F5EF5B0758232C007120E6FD00753070FEFC454F0F5A075826412ED
:20082E000E6FD2B5758264120E6FC2B522E582FFC4540FF582C00712080ED0078F8212082E
:20084E000E020891AFA0C2B7D2B6D2B5439580AE96747F5EF596758264C007120E6FA2A798
:20086E009200AE95747F5EF595439680C2B5D2B5758264120E6FD007C2B58FA0A200E43343
:20088E00F582227E007F00C007C006120852E582D006D007700122758201C007C006120E6F
:2008AE0060D006D0070EBE00010FC3EE9464EF940040D422AF82C007120891D007C2B5D21C
:2008CE00B7C2B674F05FF5A0D2B5758264C007120E6FD007C2B553070FEFC454F0F5A0D236
:2008EE00B5758264120E6FC2B50208917595007596FFAFB1740F5FF5B143B2F075821E1231
:20090E000E6075820312080E758205120E6075820312080E758264120E6F75820312080E8F
:20092E00758264120E6F75820212080E758264120E6F75820612083B75820C12083B758213
:20094E001412083B75822812083B75824012083B7F00758200C0071208C2D007EF6002746B
:20096E000FFE8E82C0071208C27582001208C275821C1208C27582101208C27582181208DB
:20098E00C27582101208C275821C1208C2D0070FBF020040BD020AC8AF82BF020050237464
:2009AE00F02526401DEF030354C024802526F582C00712083BD0078F2275230085262475A2
:2009CE00250022E582FF700D75828012083BE4F522F523800C7582C012083B752201752338
:2009EE0000E4F524F52522AE82AD837F00AC278E828D838FF0122E32FB6020EC601D8B82FC
:200A0E00C007C006C005C004120A2AD004D005D006D0070EBE00010D1C80D422AF82BF0DAD
:200A2E00028003BF0A05120AC8804FE4BF090104FE7003EE6016E52245237008758201122B
:200A4E0009D180367582001209D1802E8F821208C20524E4B524020525C3E5249410E525EE
:200A6E00648094804014E522452370087582011209D180067582001209D190000122AF8204
:200A8E00E524452560188F057E00EDB52210EEB5230C758220C007120A2AD00780E222E541
:200AAE0082540FFF24F6400A8F0674302EF582020A2A74572FF582020A2A75820112083BD8
:0A0ACE00E4F522F523F524F52522B6
:200AD8007591007592007590FFAFB174FC5FF5B1AFB274FC5FF5B243B003AFC974CF5FF53C
:200AF800C9AFCA74CF5FF5CA43C8307F00EF2F25E0248AFE7D00ED2EF9902F0BE493FCF7ED
:200B18000DBD040040F00FBF050040E17528FF227880760043B203AFB074FC5FF5B043B0E1
:200B380003AFB274FC5FF5B27880860F30B0047E0080027E01EE2F7880F67880860F30B15A
:200B5800047E0080027E02EE2F7880F67880860F30CC047E0080027E04EE2F7880F67880DC
:200B7800860F30CD047E0080027E08EE2F7880F67F00902F0FE493FEC3EF9E505CEF042461
:200B980080F87600EF04FE8FF005F07401800225E0D5F0FBFD7C0074042CF5F005F07401C2
:200BB800800225E0D5F0FBF4F590ED5590FB70047A0180027A008A0BEE2480F9870A8CF078
:200BD80005F0EB800225E0D5F0FBFB2AF77590FF0CBC040040C10F8099227528FF752A0064
:200BF800E52A252A25E0FEFD248AF532E52A2485F531E52A2480F530752B00C00DE52B2552
:200C180032FAA80A862EA831860FE52B252BFA8AF005F07403800225E0D5F0FBFA5FF52FB8
:200C3800E52B75F002A4F5F005F0E52F8002C313D5F0FBF52F852E2C852F2DA830860F85A5
:200C58002BF005F07A017B008006EA2AFAEB33FBD5F0F78F0D7F00ED520AEF520BD00DEA96
:200C78004B601B902F0CE493FFC3E52E64808FF063F08095F0501FE52E04F52C8018902FC6
:200C98000BE493FFC36480852EF063F08095F05005E52E14F52CE52F24FC5003020DF7E50A
:200CB8002F75F003A4900CC173020CCD020D0D020D66020DA3C00D902F0BE493FF3395E03E
:200CD800FB902F0EE493FA3395E0FDEA2FFFED3BFBE52CFA3395E0FDC3EA9FED64808BF09B
:200CF80063F08095F0D00D5003020E03752C00752D01020E03902F0DE493FFC3E52C6480F0
:200D18008FF063F08095F0400D752D02902F0CE493F52C020E03C00DEF3395E0FBC3E49FD8
:200D3800FFE49BFBE52CFA3395E0FDC3EF9AEB64808DF063F08095F0D00D5003020E0375CA
:200D58002D00902F0BE493F52C0529020E03C00D902F0CE493FF3395E0FB902F0EE493FABC
:200D78003395E0FDEFC39AFFEB9DFBE52CFA3395E0FDC3EF9AEB64808DF063F08095F0D078
:200D98000D4068752C00752D038060C00D902F0DE493FFFA3395E0FBC3E49AFAE49BFBE51A
:200DB8002CFC3395E0FDC3EA9CEB64808DF063F08095F0D00D400C752D00902F0BE493F560
:200DD8002C8028C3E52C64808FF063F08095F0401A752D02902F0CE493F52C0529800C7508
:200DF8002D00902F0BE493F52C05297401B52F02800A7401B52D05E52B2EF528ED248A25C2
:200E18002BF8A62CE52A2485F9870FE52B252BFC8CF005F07403800225E0D5F0FBF4FB52B2
:200E38000F8CF005F0E52D800225E0D5F0FBFC4FF7052B74FC252B4003020C13052A74FB8D
:080E5800252A4003020BF822D9
:052F0B00E21E020204B9
:1C0E600075F00A74E6D5E0FDD5F0F8D582F222000000000000D582F722D2B422BB
:09007500753E00753F0075400066
:200E7C00AD82AE83AFF0AA76AB77AC788A828B838CF0122E32F8A3122E32F98D828E838F34
:200E9C00F0E8122DADA3E9122DAD74022DFDE43EFE74022AF57AE43BF57B8C7C757900E5C1
:200EBC00792DF8E43EF98F04C005C006C007E579257AFAE4357BFBAF7C8A828B838FF0121C
:200EDC002E32FA888289838CF0122DAD0579C3E5799409D007D006D00540C422AD82122ECB
:200EFC0032FEA3122E32FF30E60C8E048F058C8274804DF583228E82747F5FF58322AD8236
:200F1C00AE83AFF0E578600BAB76AC7774804CF577800353777F8D828E838FF0E576122D28
:200F3C00ADA3E577022DADAD82AE83AFF074022DFDE43EFEAC76BC09005015EC2DF9E43ECE
:200F5C00FA8F0389828A838BF0E4122DAD0C80E622AD82AE83AFF0754000E4F53FF53EF5FE
:200F7C004174022DFDE43EFEE5412DFAE43EFB8F048A828B838CF0122E3275F00A84F53E29
:200F9C00E5412DFAE43EFB8F048A828B838CF0122E3275F00A8485F03FE5412DFAE43EFB1F
:200FBC008F04E54075F00AA4253EF98A828B838CF0122DAD853F40054174F7254150A92236
:200FDC00AD82AE83AFF0754000753F00753E0075410874022DFDE43EFEE5412DFAE43EFBF2
:200FFC008F048A828B838CF0122E3275F00A84F53EE5412DFAE43EFB8F048A828B838CF081
:20101C00122E3275F00A8485F03FE5412DFAE43EFB8F04E53F75F00AA42540F98A828B83EF
:20103C008CF0122DAD853E4015417401254150A92285824285834385F044122E32A3122E3B
:20105C003233E433F5468542828543838544F0120EF885824785834874022542F8E4354389
:20107C00F9AC447B00EB28FAE439FE8C078A828E838FF0122E3270060BBB090040E7EB755B
:20109C00F002A4D39547F4B3F547E54895F0F548EB605ABB0900505574022542FDE43543D9
:2010BC00FEAF447549008B4574F725454030E5492DF54AE43EF54B8F4CE5452DFAE43EFB0B
:2010DC008F048A828B838CF0122E32FA854A82854B83854CF0122DAD0549054580CA85495E
:2010FC00768542828543838544F0120F4374022542FDE43543FEAF448D828E838FF0122EA7
:20111C0032FDBD0A0050158542828543838544F0120FDC154774FFB547021548854776851D
:20113C0048778546788542828543838544F0020F1A85824F8583507D008D527B007A008595
:20115C004F82855083E0FC700990003375F040021353BC2D027A02755100E551254FF582D7
:20117C00E43550F583E0FFBF2E13EA20E00643020102134E90003375F0400213FCC3EF646B
:20119C008094B15003021206C374B98FF063F08095F04056BD1200501EED30E015EDC31392
:2011BC002435F9E55275F00AA4FEEF24D0FC2EF78005EF24D0F5520DEB700ABA0102800314
:2011DC00BA03027BFFEA70047A048013BA01047A05800CBA02047A068005BA03027A07EA92
:2011FC0030E00302134E0B02134EE551254FF582E43550F583E0FFBF3053C374838AF06335
:20121C00F08095F0E433FE601DBD12005017ED30E010EDC313FC2435F9E55275F00AA4F796
:20123C0080037552000DEA30E019EE600302134EEB70057BFE02134EEB20E70302134E1BC5
:20125C0002134EEE700302134E0B02134EEF600302134EC374838AF063F08095F0400990C3
:20127C00003375F040021353ED30E00FEDC313FF2435F9E55275F00AA4F70DEDC313F57676
:20129C0090003375F040C003C002120F43D002D003C374808BF063F08095F05035AF4DEB46
:2012BC00142FFFFC3395E0FEC3EC954DEE6480854EF063F08095F0401074FF954D74BF8553
:2012DC004EF063F08095F0503F90003375F0400213FCEB30E730AE4DEB2EFFFC3395E0FE6D
:2012FC00C3E54D9CE54E64808EF063F08095F0400CE54D9401E54E64809440500B90003338
:20131C0075F0400213FCAF4DEFF5763395E0F577C3EA64809486E433FFB40100E433F57897
:20133C0090003375F040120F1A90003375F04002104D0551021176AD82AE83AFF0E4122D26
:20135C00ADA3122DAD74022DFDE43EFE7C00EC2DF9E43EFA8F0389828A838BF0E4122DADD6
:20137C000CBC090040E822AD82AE83AFF074022DFDE43EFE7C00EC2DF9E43EFA8F03898230
:20139C008A838BF0122E326004758200220CBC090040E375820122AD82AE83AFF0122E323B
:2013BC00FBA3122E32FCBB0005BCC00280047582002274022DFDE43EFE7C00EC2DF9E43EBA
:2013DC00FA8F0389828A838BF0122E32F9B9FF028004758200220CBC090040DF7582012206
:2013FC00AD82AE83AFF0E4122DADA374C0122DAD74022DFDE43EFE7C00EC2DF9E43EFA8F46
:20141C000389828A838BF074FF122DAD0CBC090040E722AD82AE83AFF0C007C006C005123E
:20143C0013B3E582D005D006D0076001228D828E838FF0122E32FBA3122E32FC902F27E477
:20145C0093F9740193FAE96203EA62048D828E838FF0EB122DADA3EC022DAD7F00757633C6
:20147C008F7775784090003B75F000C007120E7C75769E75770075784090004675F000129B
:20149C000E7C90003B75F00012104D90004675F00012104DD007E4FEFDF553F554F555F5D7
:2014BC0056BE09005068BD09005063EF7023EE243DF582E43400F583ED2448FBE43400FC82
:2014DC00E0FA8B828C83E0FBC3EA9B50047FFF8023EF7020EE243DF582E43400F583ED247C
:2014FC0048FBE43400FCE0FA8B828C83E0FBC39A50027F010E0D74022553F553E43554F5C6
:20151C005474022555F555E43556F556809390003B75F000C007120EF8AD82AE83ED255380
:20153C00FDEE3554FE90004675F000C006C005120EF8AB82AC83D005D006D007EB2555FB01
:20155C00EC3556FCC3EB9DEC64808EF063F08095F0500475820122C3ED9BEE64808CF063A1
:20157C00F08095F050047582FF228F822290003375F040121383E582601190009E75F04000
:20159C00121383E58260047582002290003375F040121383E5826012789E860608E6FF30FB
:2015BC00E704758201227582FF2290009E75F040121383E582600DE53430E7047582FF2257
:2015DC0075820122AE33E534FF33E433FD6019789E8603088604C3E49B74808CF063F08066
:2015FC0095F050047582FF22C3E49E74808FF063F08095F0500E789E860608E6FF30E704C6
:20161C0075820122ED60047FFF80027F01C007121477AE82D0078EF0EFA4F58222AD82AED1
:20163C0083AFF0C007C006C005120EF8AB82AC83D005D006D007EBB55705ECB55801228D7F
:20165C00828E838FF0C007C006C005C004C003120F6DD003D004D005D006D0070BBB00D630
:20167C000C80D3755A0090003375F04012104D90009E75F04012104D90003375F040120E7F
:20169C00F8AD82AE8390009E75F040C006C005120EF8AB82AC83D005D006EDB50306EEB50B
:2016BC000402801890003375F040120EF885825785835890009E75F040121639755908E543
:2016DC00592435F9E55924A0F886058D037C00AA5A7F00EA2BFBEF3CFC87078F027E00C398
:2016FC00EA9BEE64808CF063F08095F0400CE55A2DD39FF4FE755A00800E74642FFFE55AE5
:20171C002DD39FF4FE755A01E5592435F8A6061559E55930E7A9227F0090009E75F040C071
:20173C0007121383E582D00760012290003375F040C007121383E582D007601275769E7598
:20175C00770075784090003375F040020E7C75769E7577007578409000A975F040C007127C
:20177C000E7CD007E53433E433FE605E789E860408E6FD20E754121477AD82BD0105121630
:20179C007F8035BDFF2975763375770075784090009E75F040120E7C7576A9757700757801
:2017BC004090003375F040120E7C12167F800990003375F0401213537576A975770075784C
:2017DC004090009E75F040020E7CEE705E789E860408E6FE30E754121477AD82BD010512FA
:2017FC00167F8035BDFF2975763375770075784090009E75F040120E7C7576A97577007503
:20181C00784090003375F040120E7C12167F800990003375F0401213537576A975770075EB
:20183C00784090009E75F040020E7C90003375F040C00712104D90009E75F04012104D9005
:20185C00003375F040120EF8AC82AE8390009E75F040C006C004120EF8AA82AB83D004D0AA
:20187C0006D007C3EA9CEB64808EF063F08095F0501F90003375F040C007120EF88582576D
:20189C0085835890009E75F040121639D00702195C90003375F040C007120EF8AC82AE83A4
:2018BC0090009E75F040C006C004120EF8AA82AB83D004D006D007C3EC9AEE64808BF063C3
:2018DC00F08095F0507A755B0090009E75F040C007120EF8AB82AC8390003375F040C00423
:2018FC00C003120EF8AA82AE83D003D004D007EBC39AFBEC9EFCE55BFA3395E0FEC3EA9B25
:20191C00EE64808CF063F08095F0501190003375F040C007120F6DD007055B80AC90009E56
:20193C0075F040C007120EF8858276858377E53433E433F57890003375F040120F1AD007C1
:20195C007E08EE2435F9EE24A0F886048703EC2B2FFC75F06484E5F0F775F064EC84FF1E36
:20197C00EE30E7DEEF7003021A0690003375F040C007120EF8AC82AE83D007E53433E43304
:20199C00FDBF0A00502A90003375F040C007C006C005C004120F6DD004D005D006D007EF9A
:2019BC0075F00AA4FB2535F5350CBC002E0E802B90003375F040C007C006C005C004120F2B
:2019DC006D90003375F040120F6DD004D005D006D0078F3574022CFCE43EFE8C768E778D1C
:2019FC007890003375F040120F1A7576A975770075784090009E75F040020E7C7F00900095
:201A1C00A975F040C00712135390003375F04012104D90009E75F04012104DD007AE347DCE
:201A3C0000530680789E86030886047B00530480EB6205EC6206ED4E60027401F55D900094
:201A5C003375F040C007120EF8AC82AD8390009E75F040C005C004120EF8AA82AB83D004B3
:201A7C00D005D007EA2CF55EEB3DF55F755C08E55C24A0F97A08EA24ABF886068E057E0012
:201A9C00EA2435FCC000A8048604D00087038BF0ECA42DFDEE35F0FE8F037C00EB2DFDEC46
:201ABC003EFE7576648C778D828E83C006C005C002C001C000122DE5AB82D000D001D002CA
:201ADC00D005D006A6037576647577008D828E83C002C001122D84AD82AE83D001D0028D65
:201AFC00071AEA30E790E55C601A9000A975F040C007120F6D9000A975F040120F6DD007E7
:201B1C0078ABA607155CE55C20E703021A8BBF0A0040249000A975F040C007120F6D900086
:201B3C00A975F040120F6DD007055EE4B55E02055F78ABA607801FEF601C9000A975F0405E
:201B5C00C007120F6DD007EF75F00AA4FF78AB8606EF2E78ABF6C3E55E94FFE55F64809402
:201B7C00BF5025C37401955E7440855FF063F08095F05014855E76855F77855D789000A95F
:201B9C0075F040120F1A800990003375F0400213FC7576A975770075784090003375F04032
:201BBC00120E7C90003375F04002104D90003375F040121383E582600990003375F040025C
:201BDC0013FC90003375F04012104D7576337577007578409000BF75F040120E7C90003379
:201BFC0075F040120EF8AE82AF83C3E49EFEE49FFFEE24FFF576EF34FFF577E53433E43378
:201C1C00F5789000B475F040120F1AAF35BF1400500678B67632801ABF2100500678B676C0
:201C3C001E800FBF3200500678B67614800478B6760A7F01EF24B6F876000FBF090040F4E8
:201C5C007576B475770075784090003375F040120E7C7F007576BF75770075784090009E3C
:201C7C0075F040C007120E7C121A1890003375F04012142F75761075772F75788090009E8E
:201C9C0075F040120E7C1217337576B475770075784090009E75F040120E7C121A181217F7
:201CBC00337576337577007578409000B475F040120E7CD0070FBF060040992275763375E0
:201CDC00770075784090001475F000120E7C75769E75770075784090003375F040120E7CF9
:201CFC00121BC875761475770075780090009E75F040120E7C021A18E53420E70D90003368
:201D1C0075F040121383E582600990003375F0400213FC90003375F04012104D9000337502
:201D3C00F040120EF8E5828583F02401FEE435F0FF78BFA60608A607E4F533F534757610ED
:201D5C0075772F75788090009E75F040120E7C789E760108760090003375F04012142F1296
:201D7C0017337576337577007578409000B475F040120E7C7F00EF600D9000B475F040C0BD
:201D9C0007120FDCD0077576B475770075784090003375F040C007120E7CD0077E00E5345B
:201DBC0030E703021E537576337577007578409000B475F040C007C006120E7C757633759E
:201DDC00770075784090009E75F040120E7CD006D0077D00C3ED9F501890009E75F040C060
:201DFC0007C006C005120F6DD005D006D0070D80E3C007C006121733D006D00774F625355B
:201E1C00502B90003375F040C007C006120EF8AC82AD83D006D007C3E49C74808DF063F00C
:201E3C008095F05008E53524F6F53580067533FF7534FF0E021DBAEF24C1F9EE14F70FBF7B
:201E5C0009005003021D927576B475770075784090003375F040120E7C7F08EF75F00BA413
:201E7C002429FD742F35F0FEEF24C1F97C008703C3EC9B50318D768E7775788090009E7580
:201E9C00F040C007C006C005C004C001120E7C789E7600087600121733D001D004D005D0D3
:201EBC0006D0070C80C890003375F040C007120F6DD0071FBF090040A290003375F04012FE
:201EDC00142F7576337577007578409000B475F040120E7C90003375F04012135378BF864A
:201EFC000608E6FF30E713756001C3E49EFEE49FFF78BFA60608A607800375600078BF8661
:201F1C0006088607C3EE9410EF648094A740607576107577278E828F83122E84AB828B3526
:201F3C0078BF8682088683757610757727122E4EAB82AC8378BFA60308A604757664757770
:201F5C00008B828C83C004C003122E84AA82D003D0048A367576647577008B828C83122ED4
:201F7C004EAC82AD838C377533047534008042C3EE9464EF64809480402F75766475770085
:201F9C008E828F83122E84AC828C3578BF8682088683757664757700122E4EAC82AD838C4D
:201FBC003675330275340080088E35753301753400E560600990003375F04012142F757689
:201FDC001B75772F75788090009E75F040120E7C121A187576B475770075784090009E7534
:201FFC00F040120E7C021733121D1475761B75772F75788090009E75F040120E7C7576334F
:20201C0075770075784090001475F000120E7C75769E75770075784090003375F040120EBC
:20203C007C121BC875761475770075780090009E75F040120E7C021A187562009000337589
:20205C00F0401213B3E582600990003375F0400213FCE53430E70C90003375F04012142F1A
:20207C007562017576337577007578409000B475F040120E7C90009E75F04012135378A04D
:20209C00761778A1760278A2763A78A27633789E760208760090009E75F04012142F12171C
:2020BC0033E53420E70990003375F0400213FC7576B475770075784090003375F040120EEF
:2020DC007C75761B75772F75788090009E75F040120E7C7576337577007578409000B4757B
:2020FC00F040120E7C75761075772F75788090003375F040120E7C753301753400121A18DB
:20211C0075763375770075784090009E75F040120E7C90009E75F04012142F7576B475774A
:20213C000075784090003375F040120E7C7E00E53420E71C7576337577007578409000B41D
:20215C0075F040C006120E7C121733D0060E80DF7D00EE24FFF576ED34FFF57790000A128C
:20217C002DC8E5828583F078BFF608A6F07576B475770075784090003375F040120E7C75F3
:20219C00761B75772F75788090009E75F040120E7C90009E75F04012142F7EFF7D00E53460
:2021BC0020E7207576337577007578409000B475F040C006C005120E7C121733D005D0068E
:2021DC000D80DBBEFF1F78BF86030886048D027F001ABAFF011FEA2BFBEF3CFC78BFA60335
:2021FC0008A6048007EE24C1F9ED14F77576B475770075784090003375F040C006120E7C44
:20221C00D0060EBE0900502DEE75F00BA42429FD742F35F0FF8D768F7775788090009E754E
:20223C00F040C006120E7C90009E75F04012142FD0060221B875761075772F757880900004
:20225C009E75F040120E7C12173375761075772F75788090009E75F040120E7C789E7601A8
:20227C000876007FFFEF24C1F9E4BFFF0104FE756100EE600978BF86030886048006870246
:20229C008A037C00AA617D00C3EA9BED64808CF063F08095F05013C007C006C001121A18AF
:2022BC00D001D006D007056180C80FBF0900502CEF700D78A07614789E760008760080A546
:2022DC00BF010678A0760B809C90009E75F040C007120F6DD00778A0760A8089E56260031D
:2022FC00021BC82275761B75772F75788090009E75F040120E7C121A1802205590001F74E0
:20231C0045F09000207472F0900021F0900022746FF09000237472F0900024E4F022AD825E
:20233C00AE83AFF07C008C647A008D828E838FF0C007C006C005C004C0021213B3E582D045
:20235C0002D004D005D006D0076007122318758200228D768E778F7890005175F000C00423
:20237C00C002120E7C90005175F00012104DD002D004900053E0700F90001F7430F0900073
:20239C0020E4F075820022900051E0FEA3E0FF30E70890001F742DF07C0190005175F000B1
:2023BC00C004C002120EF8AE82AF83D002D004902F26E493FDF8790018B8FF0119C3E89E5F
:2023DC00E964808FF063F08095F0400AEE94FDEF6480947F50027A01EA7057EF30E753ECCB
:2023FC00241FF582E43400F5837430F00C8C010CE9241FF582E43400F583742EF0C3E49E34
:20241C00F8E49FF918B8FF01198C65C3E498748089F063F08095F05017E565241FF582E4FF
:20243C003400F5837430F0056518B8FF011980DBAC65EC241FF8E43400F9900053E075F021
:20245C000A842430FB88828983F00CEA60128C030CEB241FF582E43400F583742EF080191A
:20247C00EE4F70108C030CEB241FF582E43400F583742EF01EBEFF011FEC241FF9E43400E6
:20249C00FB900053E075F00A84A8F0743028F889828B83F0900053E0FB75F00A84E5F07014
:2024BC000AEA7004EF30E7037564010CEA7019EE4F70108C030CEB241FF582E43400F583A9
:2024DC00742EF01EBEFF011FEDC313FD756301C3E5639D40030225CFEC241FF8E43400F9A1
:2024FC00E5632453F582E43400F583E075F00A842430FB88828983F00CEA7019EE4F701096
:20251C008C030CEB241FF582E43400F583742EF01EBEFF011FEC241FF9E43400FBE563249B
:20253C0053F582E43400F583E075F00A84A8F0743028F889828B83F00CEA7019EE4F7010B1
:20255C008C030CEB241FF582E43400F583742EF01EBEFF011FE5632453F9E43400FB89822C
:20257C008B83E07025EA7004EF30E71EEA700BC3EE94FEEF6480947F500605640564802ED6
:20259C00BEFE2BBFFF2805648024E5632453F582E43400F583E0FB75F00A84E5F0700CEA76
:2025BC007004EF30E705756401800375640005630224EBEA700EC3E49E74808FF063F080DE
:2025DC0095F04005ECC39564FCEC241FF582E43400F583E4F090005175F000C002120EF847
:2025FC00AE82AF83D002EA6023C374809E74808FF063F08095F0400AEE9480EF6480947FCC
:10261C005007122318758200228E822275820022A6
:202F100000000A0000000000000000000017023A325C63282D44100080FF7F451F2F120502
:202F30003B5E3509FE7F5F1F014F502B185600FD7F633221083510505254FC7F635F0021A3
:202F50001E53351F43FB7F636332002121082121FA7F63635F000021211D5FF97F6363635E
:1C2F7000320000210523F87F6363635F0000024C28F77F6363636332000F62416F
:09007E00756600756700756800E5
:20262C007403556875F00BA42472FE740035F0FF7D0074032568540375F00BA42472FB7429
:20264C000035F0FC8B768C778D788E828F838DF0120E7C056822AE82AF83E56670021568DE
:20266C0085694D856A4E8E828F8312114D7403556875F00BA42472FE740035F0FF7D0075DE
:20268C0076338D777578408E828F838DF0020E7C7403556875F00BA42472FE740035F0FFB5
:2026AC007D008E828F838DF00213537403556875F00BA42472F582740035F0F58322E568B5
:2026CC0004540375F00BA42472F582740035F0F58322AE82AF83E56804540375F00BA424FD
:2026EC0072FC740035F0FD7B008C828D838BF0C007C0061213B3E582D006D007702774032F
:20270C00556875F00BA42472FC740035F0FD7B008C828D838BF0C007C0061213B3E582D004
:20272C0006D007601FE56804540375F00BA42472FC740035F0FD7B008C828D838BF0121314
:20274C00FC0227EC7403556875F00BA42472FC740035F0FD8C768D7775780090006775F09D
:20276C0000C007C006120E7CE56804540375F00BA42472FC740035F0FD8C768D777578004D
:20278C0090003375F040120E7C7403556875F00BA42472FC740035F0FD8C768D77757800C6
:2027AC0090009E75F040120E7CD006D007C007C0068E828F83120011D006D007E5680454CD
:2027CC000375F00BA42472FE740035F0FF7D007576338D777578408E828F838DF0120E7CA3
:2027EC0002262CAE82AF837403556875F00BA42472FC740035F0FD7B008C828D838BF0C0D3
:20280C0007C0061213B3E582D006D0076001227403556875F00BA42472FC740035F0FD8C74
:20282C00768D7775780090006775F000C007C006120E7C7403556875F00BA42472FC740052
:20284C0035F0FD8C768D7775780090003375F040120E7CD006D007C007C0068E828F8312E5
:20286C000011D006D0077403556875F00BA42472FE740035F0FF7D007576338D777578404E
:20288C008E828F838DF0020E7C63670122AF82C007120E79D007BF2A0302293CBF2B0280ED
:2028AC0055BF2D03022942BF2E030229FABF2F0302296CBF3403022C26BF3503022C31BF5F
:2028CC003603022C40BF3703022C6DBF3803022C5EBF3903022C4FBF3C03022A3EBF3D034C
:2028EC00022972BF6303022A23BF6D03022C23BF7203022B8022E56760307401B56602804A
:20290C000215687403556875F00BA42472FE740035F0FF7D007576677577008D788E828F59
:20292C00838DF0120E7C756700229017330226DE901A180226DE7403556875F00BA424726B
:20294C00FE740035F0FF7D008E828F838DF012142F9017331226DE90006775F00002142FD3
:20296C00901CD80226DEE56760307401B56602800215687403556875F00BA42472FE740004
:20298C0035F0FF7D0075765C7577008D788E828F838DF0120E7C756700227403556875F080
:2029AC000BA42472FE740035F0FF7D008E828F838DF01213B3E582600122156874035568A1
:2029CC0075F00BA42472FE740035F0FF7D00E56804540375F00BA42472FB740035F0FC8BC1
:2029EC00768C778D788E828F838DF0020E7CE5677001227403556875F00BA42472FE7400F3
:202A0C0035F0FF8E768F7775780090005C75F000120E7C756700227403556875F00BA42438
:202A2C0072FE740035F0FF7D008E828F838DF0021353E5677003022B4575670074035568BD
:202A4C0075F00BA42472FE740035F0FF7D008E828F838DF0121383E5826001227403556848
:202A6C0075F00BA42472FE740035F0FF7D008E828F838DF01213B3E58260012274035568F8
:202A8C0075F00BA42472FE740035F0FF8E768F7775780090006775F000120E7C74035568C7
:202AAC0075F00BA42472FE740035F0FF8E768F7775780090003375F040120E7CE53430E79F
:202ACC001B7403556875F00BA42472FE740035F0FF7D008E828F838DF00213FC90009E758B
:202AEC00F04012135378A0760575769E75770075784090001475F000120E7C121D1475761A
:202B0C001475770075780090009E75F040120E7C121A181220557403556875F00BA42472A4
:202B2C00FE740035F0FF7D007576338D777578408E828F838DF0020E7C7403556875F00B58
:202B4C00A42472FE740035F0FF7D008E828F838DF01213B3E5826001227403556875F00B17
:202B6C00A42472FE740035F0FF7D008E828F838DF002142FE5676009756700901BC80227EB
:202B8C00EF7403556875F00BA42472FE740035F0FF7D008E828F838DF01213B3E58260010A
:202BAC00227403556875F00BA42472FE740035F0FF8E768F7775780090006B75F040120EBC
:202BCC007C7403556875F00BA42472FE740035F0FF7D00E56804540375F00BA42472FB74BB
:202BEC000035F0FC8B768C778D788E828F838DF0120E7CE56804540375F00BA42472FE74A0
:202C0C000035F0FF7D0075766B8D777578408E828F838DF0020E7C022895E56770012205B2
:202C2C006875670022E5677001229020551227EF75670022E5677001229023001227EF75E9
:202C4C00670022E5677001229020041227EF75670022E567700122901D141227EF75670082
:202C6C0022E56804540375F00BA42472FE740035F0FF7D008E828F838DF01213B3E5827073
:202C8C001F7403556875F00BA42472FE740035F0FF7D008E828F838DF01213B3E582601FBB
:202CAC00E56804540375F00BA42472FE740035F0FF7D008E828F838DF01213FC022D7D74C3
:202CCC0003556875F00BA42472FE740035F0FF8E768F7775780090006775F000120E7CE514
:202CEC006804540375F00BA42472FE740035F0FF8E768F7775780090003375F040120E7CCA
:202D0C007403556875F00BA42472FE740035F0FF8E768F7775780090009E75F040120E7CCD
:202D2C0075769E75770075784090001475F000120E7C121D14757614757700757800900095
:202D4C009E75F040120E7C121A18122055E56804540375F00BA42472FE740035F0FF7D0058
:182D6C007576338D777578408E828F838DF0120E7C12262C7567002263
:162F8C0000000A0000000000000000000017023A325C63282D4448
:202D84007A10E4FBFCE58225E0F582E58333F583EB33FBEC33FCEB9576F5F0EC9577400687
:092DA400FCABF0438201DADD22F0
:06004200E478FFF6D8FD92
:200020007921E94400601B7A01902FA2789E75A000E493F2A308B8000205A0D9F4DAF275F6
:02004000A0FF1F
:1B2DAD0020F71130F6138883A88220F509F6A8837583002280FEF280F5F02225
:1D2DC800E5828576F0A4C582C0F08577F0A4D0F025F0C5838576F0A42583F5832283
:202DE500E576457760467A01E57625E0F576E577334012F577E5829576E583957740030A4B
:202E050080E6C3E57713F577E57613F576C3E5829576F5F0E58395774005F58385F082C3CB
:0D2E2500E57713F577E57613F576DAE1220F
:200048007800E84400600A790175A000E4F309D8FC789DE84400600C7901900001E4F0A318
:04006800D8FCD9FAED
:0F001100E4737581C9122EBCE582600302000EF4
:1C2E320020F71430F6148883A88220F507E6A88375830022E280F7E49322E022AF
:202E4E00C2D5E58330E70DD2D5E4C39582F582E49583F583E57730E70BE4C39576F576E472
:162E6E009577F577122DE530D50BE4C39582F582E49583F58322D7
:202E8400C2D5E58330E70DD2D5E4C39582F582E49583F583E57730E70DB2D5E4C39576F50D
:182EA40076E49577F577122D8430D50BE4C39582F582E49583F58322A6
:042EBC0075820022F9
:00000001FF
