:0400000002001332B5
:03000B0002008A66
:09006C00751700751801751900E3
:0300870002000E66
:03000E0002017874
:20008A00C021C0E0C0F0C082C083C0D075D008120B1D120BE774FFB52802801CE516700725
:2000AA00E515B514028021E5142410F8A628E514045403F5147516007880860FBF08097820
:2000CA0084860FBF0802C2B2D0D0D083D082D0F0D0E0D02132438E80758AC5758C1DC28D66
:2000EA00D28CD2A9D2AF22AFB174FB5FF5B143B204D2B222C374019518E433FFB40100E473
:20010A0033F58222751700751900900012E4F0900013F022C374019518B3E433FF703D90D9
:20012A000013E075F00AA4FF900012E0FE2FFF7405B51804C3E49FFFE5172401F582E434C3
:20014A0000F583E4F0EFF5693395E0F56A90000112265712010EE56660020566E51A902EDF
:20016A00C793F58212288E751801756600227516011200F11208EF120ACD1200DFC2B490D9
:20018A000012E4F0900013F075272090009E1209EA78808607BF080978848607BF0802C284
:2001AA00B2E51670ECE5152410F9871AE515045403F515E514B51503751601E51A902EC72F
:2001CA0093FFBF2A03020594BF2B03020594BF2D03020594BF2E030203ABBF2F03020594BE
:2001EA00BF30028051BF31030202BDBF32030202BDBF33030202BDBF34030202BDBF350366
:20020A000202BDBF36030202BDBF37030202BDBF38030202BDBF39030202BDBF3C03020524
:20022A0094BF3D03020480BF630302053CBF72030205940205EFE5676005C2B20205F474DA
:20024A00FC2518502EE519700B900012E4F07519010205F4900012E0FE900013F0900012AF
:20026A00E4F00519E51924FD40030205F47519010205F4C374019518B3E433FE60137518EE
:20028A0002E5172401F582E43400F583EFF00205F4E51770030205F474F0251750030205EC
:2002AA00F4E5172401F582E43400F583EFF005170205F4E567605CC374019518B3E433FE6D
:2002CA00703D900013E075F00AA4FE900012E0FD2EFE7405B51804C3E49EFEE5172401F585
:2002EA0082E43400F583E4F0EEF5693395E0F56A90000112265712010EE56660020566E57D
:20030A001A902EC793F58212288E7518017566000205F474FC2518503DE5197013E51A90B4
:20032A002EC79324D0FE900012F07519010205F4900012E0900013F0E51A902EC79324D0FD
:20034A00FE900012F00519E51924FD40030205F47519010205F4C374019518B3E433FE60F1
:20036A001D751802E5172401FDE43400FEE51A902EC793FC8D828E83F005170205F474F0F5
:20038A00251750030205F4E5172401FDE43400FEE51A902EC793FC8D828E83F0051702054F
:2003AA00F4E567605CC374019518B3E433FE703D900013E075F00AA4FE900012E0FD2EFE9E
:2003CA007405B51804C3E49EFEE5172401F582E43400F583E4F0EEF5693395E0F56A9000A7
:2003EA000112265712010EE56660020566E51A902EC793F58212288E751801756600020564
:20040A00F4C374019518B3E433FE6028AE170517EE2401F582E43400F5837430F0AE170550
:20042A0017EE2401F582E43400F583742EF07518030205F47402B5182CE5177011AE1705AE
:20044A0017EE2401F582E43400F5837430F0AE170517EE2401F582E43400F583742EF075CB
:20046A0018030205F4E51824FB400505180205F47518040205F4E567605CC374019518B3B7
:20048A00E433FE703D900013E075F00AA4FE900012E0FD2EFE7405B51804C3E49EFEE517C8
:2004AA002401F582E43400F583E4F0EEF5693395E0F56A90000112265712010EE5666002F1
:2004CA000566E51A902EC793F58212288E7518017566000205F4C374019518B3E433FE70D0
:2004EA003D900013E075F00AA4FE900012E0FD2EFE7405B51804C3E49EFEE5172401F58251
:20050A00E43400F583E4F0EEF5693395E0F56A90000112265712010EE56660020566E51AC2
:20052A00902EC793F58212288E7518017566010205F4E567700BC374019518B3E433FE6021
:20054A000F75670075660112010E7518000205F474FC251850111518751900900012E4F0E2
:20056A00900013F00205F4E51770030205F41517E5172401F582E43400F583E0FEBE2E0259
:20058A0080030205F47518028060C374019518B3E433FE703D900013E075F00AA4FE9000E6
:2005AA0012E0FD2EFE7405B51804C3E49EFEE5172401F582E43400F583E4F0EEF569339579
:2005CA00E0F56A90000112265712010EE56660020566E51A902EC793F58212288E75180195
:2005EA0075660080058F8212288E75260075820012099BC374019518B3E433FF7004E56603
:20060A0060161226BFAE82AF837D008E828F838DF012232FAF8280141226ACAD82AE837CFC
:20062A00008D828E838CF012232FAF82EF700B75271090001F1209EA806575270D90001F78
:20064A00C0071209EAD007EF30E710758201C007120A1FD007C3E49FFF800A758200C00779
:20066A00120A1FD007C2D575F00AEF30E704B2D5F4048430D502F4042430F582C007120A9E
:20068A001FD00775F00AEFC2D530E704D2D5F40484E5F030D502F4042430F582120A1F75D8
:2006AA008200120A817401B5180280030207441226ACAD82AE837C008D828E838CF012236C
:2006CA002FE582FF700C75271090001F1209EA0207EE75270D90001FC0071209EAD007EFBE
:2006EA0030E710758201C007120A1FD007C3E49FFF800A758200C007120A1FD007C2D5754D
:20070A00F00AEF30E704B2D5F4048430D502F4042430F582C007120A1FD00775F00AEFC205
:20072A00D530E704D2D5F40484E5F030D502F4042430F582120A1F0207EEE517700975825F
:20074A0030120A1F0207EE74FC2518402A7F00C3EF951740030207EEBF100040030207EEF6
:20076A00EF2401F582E43400F583E0F582C007120A1FD0070F80D87F00C3EF9517501CBFB5
:20078A000D005017EF2401F582E43400F583E0F582C007120A1FD0070F80DEBF0D005012F5
:2007AA00BF0D005016758220C007120A1FD0070F80EE75260D75820112099B7405B51808EC
:2007CA00758201120A1F8006758200120A1F900013E02430F582120A1F900012E02430F5D0
:1907EA0082120A1F758201120A81E567600675825E120A1FC2B402019B4E
:202EB10000000A0000000000000000000017023A325C63282D44633C726D2F3938372A3665
:202ED10035342D3332312B3D2E305354432052504E20202020202020202043616C63756C81
:0B2EF10061746F722076312E303600C5
:202F93005354432052504E20202020202020202043616C63756C61746F722076312E30369F
:012FB300001D
:20080300AF82AEB0741F5EF5B0758232C007120E64D00753070FEFC454F0F5A07582641203
:200823000E64D2B5758264120E64C2B522E582FFC4540FF582C007120803D0078F8212085A
:2008430003020886AFA0C2B7D2B6D2B5439580AE96747F5EF596758264C007120E64A2A7C4
:200863009200AE95747F5EF595439680C2B5D2B5758264120E64D007C2B58FA0A200E43359
:20088300F582227E007F00C007C006120847E582D006D007700122758201C007C006120E85
:2008A30055D006D0070EBE00010FC3EE9464EF940040D422AF82C007120886D007C2B5D23D
:2008C300B7C2B674F05FF5A0D2B5758264C007120E64D007C2B553070FEFC454F0F5A0D24C
:2008E300B5758264120E64C2B50208867595007596FFAFB1740F5FF5B143B2F075821E1252
:200903000E55758203120803758205120E55758203120803758264120E64758203120803DC
:20092300758264120E64758202120803758264120E6475820612083075820C120830758255
:20094300141208307582281208307582401208307F00758200C0071208B7D007EF600274A2
:200963000FFE8E82C0071208B77582001208B775821C1208B77582101208B7758218120812
:20098300B77582101208B775821C1208B7D0070FBF020040BD020ABDAF82BF02005023749B
:2009A300F02526401DEF030354C024802526F582C007120830D0078F2275230085262475B8
:2009C300250022E582FF700D758280120830E4F522F523800C7582C0120830752201752359
:2009E30000E4F524F52522AE82AD837F00AC278E828D838FF0122E23FB6020EC601D8B8216
:200A0300C007C006C005C004120A1FD004D005D006D0070EBE00010D1C80D422AF82BF0DC3
:200A2300028003BF0A05120ABD804FE4BF090104FE7003EE6016E522452370087582011241
:200A430009C680367582001209C6802E8F821208B70524E4B524020525C3E5249410E5251A
:200A6300648094804014E522452370087582011209C680067582001209C690000122AF8225
:200A8300E524452560188F057E00EDB52210EEB5230C758220C007120A1FD00780E222E557
:200AA30082540FFF24F6400A8F0674302EF582020A1F74572FF582020A1F75820112083004
:0A0AC300E4F522F523F524F52522C1
:200ACD007591007592007590FFAFB174FC5FF5B1AFB274FC5FF5B243B003AFC974CF5FF547
:200AED00C9AFCA74CF5FF5CA43C8307F00EF2F25E0248AFE7D00ED2EF9902EFCE493FCF708
:200B0D000DBD040040F00FBF050040E17528FF227880760043B203AFB074FC5FF5B043B0EC
:200B2D0003AFB274FC5FF5B27880860F30B0047E0080027E01EE2F7880F67880860F30B165
:200B4D00047E0080027E02EE2F7880F67880860F30CC047E0080027E04EE2F7880F67880E7
:200B6D00860F30CD047E0080027E08EE2F7880F67F00902F00E493FEC3EF9E505CEF04247B
:200B8D0080F87600EF04FE8FF005F07401800225E0D5F0FBFD7C0074042CF5F005F07401CD
:200BAD00800225E0D5F0FBF4F590ED5590FB70047A0180027A008A0BEE2480F9870A8CF083
:200BCD0005F0EB800225E0D5F0FBFB2AF77590FF0CBC040040C10F8099227528FF752A006F
:200BED00E52A252A25E0FEFD248AF532E52A2485F531E52A2480F530752B00C00DE52B255D
:200C0D0032FAA80A862EA831860FE52B252BFA8AF005F07403800225E0D5F0FBFA5FF52FC3
:200C2D00E52B75F002A4F5F005F0E52F8002C313D5F0FBF52F852E2C852F2DA830860F85B0
:200C4D002BF005F07A017B008006EA2AFAEB33FBD5F0F78F0D7F00ED520AEF520BD00DEAA1
:200C6D004B601B902EFDE493FFC3E52E64808FF063F08095F0501FE52E04F52C8018902EE2
:200C8D00FCE493FFC36480852EF063F08095F05005E52E14F52CE52F24FC5003020DECE52F
:200CAD002F75F003A4900CB673020CC2020D02020D5B020D98C00D902EFCE493FF3395E090
:200CCD00FB902EFFE493FA3395E0FDEA2FFFED3BFBE52CFA3395E0FDC3EA9FED64808BF0B6
:200CED0063F08095F0D00D5003020DF8752C00752D01020DF8902EFEE493FFC3E52C648023
:200D0D008FF063F08095F0400D752D02902EFDE493F52C020DF8C00DEF3395E0FBC3E49FFF
:200D2D00FFE49BFBE52CFA3395E0FDC3EF9AEB64808DF063F08095F0D00D5003020DF875E1
:200D4D002D00902EFCE493F52C0529020DF8C00D902EFDE493FF3395E0FB902EFFE493FA03
:200D6D003395E0FDEFC39AFFEB9DFBE52CFA3395E0FDC3EF9AEB64808DF063F08095F0D083
:200D8D000D4068752C00752D038060C00D902EFEE493FFFA3395E0FBC3E49AFAE49BFBE535
:200DAD002CFC3395E0FDC3EA9CEB64808DF063F08095F0D00D400C752D00902EFCE493F57B
:200DCD002C8028C3E52C64808FF063F08095F0401A752D02902EFDE493F52C0529800C7523
:200DED002D00902EFCE493F52C05297401B52F02800A7401B52D05E52B2EF528ED248A25DD
:200E0D002BF8A62CE52A2485F9870FE52B252BFC8CF005F07403800225E0D5F0FBF4FB52BD
:200E2D000F8CF005F0E52D800225E0D5F0FBFC4FF7052B74FC252B4003020C08052A74FBA3
:080E4D00252A4003020BED22EF
:052EFC00E21E020204C9
:1C0E550075F00A74E6D5E0FDD5F0F8D582F222000000000000D582F722D2B422C6
:09007500753E00753F0075400066
:200E7100AD82AE83AFF0AA76AB77AC788A828B838CF0122E23F8A3122E23F98D828E838F5D
:200E9100F0E8122D9EA3E9122D9E74022DFDE43EFE74022AF57AE43BF57B8C7C757900E5EA
:200EB100792DF8E43EF98F04C005C006C007E579257AFAE4357BFBAF7C8A828B838FF01227
:200ED1002E23FA888289838CF0122D9E0579C3E5799409D007D006D00540C422AD82122EF4
:200EF10023FEA3122E23FF30E60C8E048F058C8274804DF583228E82747F5FF58322AD825F
:200F1100AE83AFF0E578600BAB76AC7774804CF577800353777F8D828E838FF0E576122D33
:200F31009EA3E577022D9EAD82AE83AFF074022DFDE43EFEAC76BC09005015EC2DF9E43EF7
:200F5100FA8F0389828A838BF0E4122D9E0C80E622AD82AE83AFF0754000E4F53FF53EF518
:200F71004174022DFDE43EFEE5412DFAE43EFB8F048A828B838CF0122E2375F00A84F53E43
:200F9100E5412DFAE43EFB8F048A828B838CF0122E2375F00A8485F03FE5412DFAE43EFB39
:200FB1008F04E54075F00AA4253EF98A828B838CF0122D9E853F40054174F7254150A92250
:200FD100AD82AE83AFF0754000753F00753E0075410874022DFDE43EFEE5412DFAE43EFBFD
:200FF1008F048A828B838CF0122E2375F00A84F53EE5412DFAE43EFB8F048A828B838CF09B
:20101100122E2375F00A8485F03FE5412DFAE43EFB8F04E53F75F00AA42540F98A828B8309
:201031008CF0122D9E853E4015417401254150A92285824285834385F044122E23A3122E64
:201051002333E433F5468542828543838544F0120EED85824785834874022542F8E43543AE
:20107100F9AC447B00EB28FAE439FE8C078A828E838FF0122E2370060BBB090040E7EB7575
:20109100F002A4D39547F4B3F547E54895F0F548EB605ABB0900505574022542FDE43543E4
:2010B100FEAF447549008B4574F725454030E5492DF54AE43EF54B8F4CE5452DFAE43EFB16
:2010D1008F048A828B838CF0122E23FA854A82854B83854CF0122D9E0549054580CA854987
:2010F100768542828543838544F0120F3874022542FDE43543FEAF448D828E838FF0122EBD
:2011110023FDBD0A0050158542828543838544F0120FD1154774FFB5470215488547768542
:2011310048778546788542828543838544F0020F0F85824F8583507D008D527B007A0085AB
:201151004F82855083E0FC700990003375F040021348BC2D027A02755100E551254FF582ED
:20117100E43550F583E0FFBF2E13EA20E00643020102134390003375F0400213F1C3EF648C
:201191008094B150030211FBC374B98FF063F08095F04056BD1200501EED30E015EDC313A9
:2011B1002435F9E55275F00AA4FEEF24D0FC2EF78005EF24D0F5520DEB700ABA010280031F
:2011D100BA03027BFFEA70047A048013BA01047A05800CBA02047A068005BA03027A07EA9D
:2011F10030E0030213430B021343E551254FF582E43550F583E0FFBF3053C374838AF06356
:20121100F08095F0E433FE601DBD12005017ED30E010EDC313FC2435F9E55275F00AA4F7A1
:2012310080037552000DEA30E019EE6003021343EB70057BFE021343EB20E7030213431BF1
:20125100021343EE70030213430B021343EF6003021343C374838AF063F08095F0400990FA
:20127100003375F040021348ED30E00FEDC313FF2435F9E55275F00AA4F70DEDC313F5768C
:2012910090003375F040C003C002120F38D002D003C374808BF063F08095F05035AF4DEB5C
:2012B100142FFFFC3395E0FEC3EC954DEE6480854EF063F08095F0401074FF954D74BF855E
:2012D1004EF063F08095F0503F90003375F0400213F1EB30E730AE4DEB2EFFFC3395E0FE83
:2012F100C3E54D9CE54E64808EF063F08095F0400CE54D9401E54E64809440500B90003343
:2013110075F0400213F1AF4DEFF5763395E0F577C3EA64809486E433FFB40100E433F578AD
:2013310090003375F040120F0F90003375F040021042055102116BAD82AE83AFF0E4122D52
:201351009EA3122D9E74022DFDE43EFE7C00EC2DF9E43EFA8F0389828A838BF0E4122D9E0E
:201371000CBC090040E822AD82AE83AFF074022DFDE43EFE7C00EC2DF9E43EFA8F0389823B
:201391008A838BF0122E236004758200220CBC090040E375820122AD82AE83AFF0122E2364
:2013B100FBA3122E23FCBB0005BCC00280047582002274022DFDE43EFE7C00EC2DF9E43ED4
:2013D100FA8F0389828A838BF0122E23F9B9FF028004758200220CBC090040DF7582012220
:2013F100AD82AE83AFF0E4122D9EA374C0122D9E74022DFDE43EFE7C00EC2DF9E43EFA8F6F
:201411000389828A838BF074FF122D9E0CBC090040E722AD82AE83AFF0C007C006C0051258
:2014310013A8E582D005D006D0076001228D828E838FF0122E23FBA3122E23FC902F18E4BA
:2014510093F9740193FAE96203EA62048D828E838FF0EB122D9EA3EC022D9E7F00757633EF
:201471008F7775784090003B75F000C007120E7175769E75770075784090004675F00012B1
:201491000E7190003B75F00012104290004675F000121042D007E4FEFDF553F554F555F503
:2014B10056BE09005068BD09005063EF7023EE243DF582E43400F583ED2448FBE43400FC8D
:2014D100E0FA8B828C83E0FBC3EA9B50047FFF8023EF7020EE243DF582E43400F583ED2487
:2014F10048FBE43400FCE0FA8B828C83E0FBC39A50027F010E0D74022553F553E43554F5D1
:201511005474022555F555E43556F556809390003B75F000C007120EEDAD82AE83ED255396
:20153100FDEE3554FE90004675F000C006C005120EEDAB82AC83D005D006D007EB2555FB17
:20155100EC3556FCC3EB9DEC64808EF063F08095F0500475820122C3ED9BEE64808CF063AC
:20157100F08095F050047582FF228F822290003375F040121378E582601190009E75F04016
:20159100121378E58260047582002290003375F040121378E5826012789E860608E6FF301C
:2015B100E704758201227582FF2290009E75F040121378E582600DE53430E7047582FF226D
:2015D10075820122AE33E534FF33E433FD6019789E8603088604C3E49B74808CF063F08071
:2015F10095F050047582FF22C3E49E74808FF063F08095F0500E789E860608E6FF30E704D1
:2016110075820122ED60047FFF80027F01C00712146CAE82D0078EF0EFA4F58222AD82AEE7
:2016310083AFF0C007C006C005120EEDAB82AC83D005D006D007EBB55705ECB55801228D95
:20165100828E838FF0C007C006C005C004C003120F62D003D004D005D006D0070BBB00D646
:201671000C80D3755A0090003375F04012104290009E75F04012104290003375F040120EA0
:20169100EDAD82AE8390009E75F040C006C005120EEDAB82AC83D005D006EDB50306EEB52C
:2016B1000402801890003375F040120EED85825785835890009E75F04012162E755908E564
:2016D100592435F9E55924A0F886058D037C00AA5A7F00EA2BFBEF3CFC87078F027E00C3A3
:2016F100EA9BEE64808CF063F08095F0400CE55A2DD39FF4FE755A00800E74642FFFE55AF0
:201711002DD39FF4FE755A01E5592435F8A6061559E55930E7A9227F0090009E75F040C07C
:2017310007121378E582D00760012290003375F040C007121378E582D007601275769E75B9
:20175100770075784090003375F040020E7175769E7577007578409000A975F040C0071292
:201771000E71D007E53433E433FE605E789E860408E6FD20E75412146CAD82BD0105121651
:20179100748035BDFF2975763375770075784090009E75F040120E717576A9757700757822
:2017B1004090003375F040120E71121674800990003375F0401213487576A9757700757878
:2017D1004090009E75F040020E71EE705E789E860408E6FE30E75412146CAD82BD0105121B
:2017F10016748035BDFF2975763375770075784090009E75F040120E717576A97577007524
:20181100784090003375F040120E71121674800990003375F0401213487576A97577007517
:20183100784090009E75F040020E7190003375F040C00712104290009E75F0401210429031
:20185100003375F040120EEDAC82AE8390009E75F040C006C004120EEDAA82AB83D004D0CB
:2018710006D007C3EA9CEB64808EF063F08095F0501F90003375F040C007120EED85825783
:2018910085835890009E75F04012162ED00702195190003375F040C007120EEDAC82AE83D0
:2018B10090009E75F040C006C004120EEDAA82AB83D004D006D007C3EC9AEE64808BF063D9
:2018D100F08095F0507A755B0090009E75F040C007120EEDAB82AC8390003375F040C00439
:2018F100C003120EEDAA82AE83D003D004D007EBC39AFBEC9EFCE55BFA3395E0FEC3EA9B3B
:20191100EE64808CF063F08095F0501190003375F040C007120F62D007055B80AC90009E6C
:2019310075F040C007120EED858276858377E53433E433F57890003375F040120F0FD007E2
:201951007E08EE2435F9EE24A0F886048703EC2B2FFC75F06484E5F0F775F064EC84FF1E41
:20197100EE30E7DEEF70030219FB90003375F040C007120EEDAC82AE83D007E53433E43326
:20199100FDBF0A00502A90003375F040C007C006C005C004120F62D004D005D006D007EFB0
:2019B10075F00AA4FB2535F5350CBC002E0E802B90003375F040C007C006C005C004120F36
:2019D1006290003375F040120F62D004D005D006D0078F3574022CFCE43EFE8C768E778D3D
:2019F1007890003375F040120F0F7576A975770075784090009E75F040020E717F009000B6
:201A1100A975F040C00712134890003375F04012104290009E75F040121042D007AE347DFA
:201A310000530680789E86030886047B00530480EB6205EC6206ED4E60027401F55D90009F
:201A51003375F040C007120EEDAC82AD8390009E75F040C005C004120EEDAA82AB83D004D4
:201A7100D005D007EA2CF55EEB3DF55F755C08E55C24A0F97A08EA24ABF886068E057E001D
:201A9100EA2435FCC000A8048604D00087038BF0ECA42DFDEE35F0FE8F037C00EB2DFDEC51
:201AB1003EFE7576648C778D828E83C006C005C002C001C000122DD6AB82D000D001D002E4
:201AD100D005D006A6037576647577008D828E83C002C001122D75AD82AE83D001D0028D7F
:201AF100071AEA30E790E55C601A9000A975F040C007120F629000A975F040120F62D00708
:201B110078ABA607155CE55C20E703021A80BF0A0040249000A975F040C007120F629000A7
:201B3100A975F040120F62D007055EE4B55E02055F78ABA607801FEF601C9000A975F04074
:201B5100C007120F62D007EF75F00AA4FF78AB8606EF2E78ABF6C3E55E94FFE55F64809418
:201B7100BF5025C37401955E7440855FF063F08095F05014855E76855F77855D789000A96A
:201B910075F040120F0F800990003375F0400213F17576A975770075784090003375F04053
:201BB100120E7190003375F04002104290003375F040121378E582600990003375F0400288
:201BD10013F190003375F0401210427576337577007578409000BF75F040120E71900033A5
:201BF10075F040120EEDAE82AF83C3E49EFEE49FFFEE24FFF576EF34FFF577E53433E4338E
:201C1100F5789000B475F040120F0FAF35BF1400500678B67632801ABF2100500678B676D6
:201C31001E800FBF3200500678B67614800478B6760A7F01EF24B6F876000FBF090040F4F3
:201C51007576B475770075784090003375F040120E717F007576BF75770075784090009E52
:201C710075F040C007120E71121A0D90003375F04012142475760175772F75788090009EC9
:201C910075F040120E711217287576B475770075784090009E75F040120E71121A0D12172E
:201CB100287576337577007578409000B475F040120E71D0070FBF06004099227576337501
:201CD100770075784090001475F000120E7175769E75770075784090003375F040120E711A
:201CF100121BBD75761475770075780090009E75F040120E71021A0DE53420E70D90003394
:201D110075F040121378E582600990003375F0400213F190003375F040121042900033752E
:201D3100F040120EEDE5828583F02401FEE435F0FF78BFA60608A607E4F533F53475760112
:201D510075772F75788090009E75F040120E71789E760108760090003375F04012142412B7
:201D710017287576337577007578409000B475F040120E717F00EF600D9000B475F040C0DE
:201D910007120FD1D0077576B475770075784090003375F040C007120E71D0077E00E5347C
:201DB10030E703021E487576337577007578409000B475F040C007C006120E7175763375BF
:201DD100770075784090009E75F040120E71D006D0077D00C3ED9F501890009E75F040C076
:201DF10007C006C005120F62D005D006D0070D80E3C007C006121728D006D00774F625357C
:201E1100502B90003375F040C007C006120EEDAC82AD83D006D007C3E49C74808DF063F022
:201E31008095F05008E53524F6F53580067533FF7534FF0E021DAFEF24C1F9EE14F70FBF91
:201E510009005003021D877576B475770075784090003375F040120E717F08EF75F00BA434
:201E7100241AFD742F35F0FEEF24C1F97C008703C3EC9B50318D768E7775788090009E759A
:201E9100F040C007C006C005C004C001120E71789E7600087600121728D001D004D005D0F4
:201EB10006D0070C80C890003375F040C007120F62D0071FBF090040A290003375F0401214
:201ED10014247576337577007578409000B475F040120E7190003375F04012134878BF8676
:201EF1000608E6FF30E713756001C3E49EFEE49FFF78BFA60608A607800375600078BF866C
:201F110006088607C3EE9410EF648094A740607576107577278E828F83122E75AB828B3540
:201F310078BF8682088683757610757727122E3FAB82AC8378BFA60308A60475766475778A
:201F5100008B828C83C004C003122E75AA82D003D0048A367576647577008B828C83122EEE
:201F71003FAC82AD838C377533047534008042C3EE9464EF64809480402F7576647577009F
:201F91008E828F83122E75AC828C3578BF8682088683757664757700122E3FAC82AD838C76
:201FB1003675330275340080088E35753301753400E560600990003375F04012142475769F
:201FD1000C75772F75788090009E75F040120E71121A0D7576B475770075784090009E7564
:201FF100F040120E71021728121D0975760C75772F75788090009E75F040120E7175763395
:2020110075770075784090001475F000120E7175769E75770075784090003375F040120ED2
:2020310071121BBD75761475770075780090009E75F040120E71021A0D75620090003375C0
:20205100F0401213A8E582600990003375F0400213F1E53430E70C90003375F04012142446
:202071007562017576337577007578409000B475F040120E7190009E75F04012134878A06E
:20209100761778A1760278A2763A78A27633789E760208760090009E75F040121424121732
:2020B10028E53420E70990003375F0400213F17576B475770075784090003375F040120E10
:2020D1007175760C75772F75788090009E75F040120E717576337577007578409000B475AB
:2020F100F040120E7175760175772F75788090003375F040120E71753301753400121A0D16
:2021110075763375770075784090009E75F040120E7190009E75F0401214247576B475776B
:202131000075784090003375F040120E717E00E53420E71C7576337577007578409000B433
:2021510075F040C006120E71121728D0060E80DF7D00EE24FFF576ED34FFF57790000A12AD
:202171002DB9E5828583F078BFF608A6F07576B475770075784090003375F040120E717518
:20219100760C75772F75788090009E75F040120E7190009E75F0401214247EFF7D00E53490
:2021B10020E7207576337577007578409000B475F040C006C005120E71121728D005D006AF
:2021D1000D80DBBEFF1F78BF86030886048D027F001ABAFF011FEA2BFBEF3CFC78BFA60340
:2021F10008A6048007EE24C1F9ED14F77576B475770075784090003375F040C006120E715A
:20221100D0060EBE0900502DEE75F00BA4241AFD742F35F0FF8D768F7775788090009E7568
:20223100F040C006120E7190009E75F040121424D0060221AD75760175772F75788090003F
:202251009E75F040120E7112172875760175772F75788090009E75F040120E71789E7601E3
:202271000876007FFFEF24C1F9E4BFFF0104FE756100EE600978BF86030886048006870251
:202291008A037C00AA617D00C3EA9BED64808CF063F08095F05013C007C006C001121A0DC5
:2022B100D001D006D007056180C80FBF0900502CEF700D78A07614789E760008760080A551
:2022D100BF010678A0760B809C90009E75F040C007120F62D00778A0760A8089E562600333
:2022F100021BBD2275760C75772F75788090009E75F040120E71121A0D02204A90001F7426
:2023110045F09000207472F0900021F0900022746FF09000237472F0900024E4F022AD8269
:20233100AE83AFF07C008C647A008D828E838FF0C007C006C005C004C0021213A8E582D05B
:2023510002D004D005D006D007600712230D758200228D768E778F7890005175F000C00439
:20237100C002120E7190005175F000121042D002D004900053E0700F90001F7430F0900094
:2023910020E4F075820022900051E0FEA3E0FF30E70890001F742DF07C0190005175F000BC
:2023B100C004C002120EEDAE82AF83D002D004902F17E493FDF8790018B8FF0119C3E89E84
:2023D100E964808FF063F08095F0400AEE94FDEF6480947F50027A01EA7057EF30E753ECD6
:2023F100241FF582E43400F5837430F00C8C010CE9241FF582E43400F583742EF0C3E49E3F
:20241100F8E49FF918B8FF01198C65C3E498748089F063F08095F05017E565241FF582E40A
:202431003400F5837430F0056518B8FF011980DBAC65EC241FF8E43400F9900053E075F02C
:202451000A842430FB88828983F00CEA60128C030CEB241FF582E43400F583742EF0801925
:20247100EE4F70108C030CEB241FF582E43400F583742EF01EBEFF011FEC241FF9E43400F1
:20249100FB900053E075F00A84A8F0743028F889828B83F0900053E0FB75F00A84E5F0701F
:2024B1000AEA7004EF30E7037564010CEA7019EE4F70108C030CEB241FF582E43400F583B4
:2024D100742EF01EBEFF011FEDC313FD756301C3E5639D40030225C4EC241FF8E43400F9B7
:2024F100E5632453F582E43400F583E075F00A842430FB88828983F00CEA7019EE4F7010A1
:202511008C030CEB241FF582E43400F583742EF01EBEFF011FEC241FF9E43400FBE56324A6
:2025310053F582E43400F583E075F00A84A8F0743028F889828B83F00CEA7019EE4F7010BC
:202551008C030CEB241FF582E43400F583742EF01EBEFF011FE5632453F9E43400FB898237
:202571008B83E07025EA7004EF30E71EEA700BC3EE94FEEF6480947F500605640564802EE1
:20259100BEFE2BBFFF2805648024E5632453F582E43400F583E0FB75F00A84E5F0700CEA81
:2025B1007004EF30E705756401800375640005630224E0EA700EC3E49E74808FF063F080F4
:2025D10095F04005ECC39564FCEC241FF582E43400F583E4F090005175F000C002120EED5D
:2025F100AE82AF83D002EA6023C374FF9E74BF8FF063F08095F0400AEE9401EF64809440D7
:10261100500712230D758200228E822275820022BC
:202F010000000A0000000000000000000017023A325C63282D44100080FF7F451F2F120511
:202F21003B5E3509FE7F5F1F014F502B185600FD7F633221083510505254FC7F635F0021B2
:202F41001E53351F43FB7F636332002121082121FA7F63635F000021211D5FF97F6363636D
:1C2F6100320000210523F87F6363635F0000024C28F77F6363636332000F62417E
:09007E00756600756700756800E5
:202621007403556875F00BA42472FE740035F0FF7D0074032568540375F00BA42472FB7434
:202641000035F0FC8B768C778D788E828F838DF0120E71056822AE82AF83E56670021568F4
:2026610085694D856A4E8E828F831211427403556875F00BA42472FE740035F0FF7D0075F4
:2026810076338D777578408E828F838DF0020E717403556875F00BA42472FE740035F0FFCB
:2026A1007D008E828F838DF00213487403556875F00BA42472F582740035F0F58322E568CB
:2026C10004540375F00BA42472F582740035F0F58322AE82AF83E56804540375F00BA42408
:2026E10072FC740035F0FD7B008C828D838BF0C007C0061213A8E582D006D0077027740345
:20270100556875F00BA42472FC740035F0FD7B008C828D838BF0C007C0061213A8E582D01A
:2027210006D007601FE56804540375F00BA42472FC740035F0FD7B008C828D838BF012131F
:20274100F10227E17403556875F00BA42472FC740035F0FD8C768D7775780090006775F0BE
:2027610000C007C006120E71E56804540375F00BA42472FC740035F0FD8C768D7775780063
:2027810090003375F040120E717403556875F00BA42472FC740035F0FD8C768D77757800DC
:2027A10090009E75F040120E71D006D007C007C0068E828F83120011D006D007E5680454E3
:2027C1000375F00BA42472FE740035F0FF7D007576338D777578408E828F838DF0120E71B9
:2027E100022621AE82AF837403556875F00BA42472FC740035F0FD7B008C828D838BF0C0E9
:2028010007C0061213A8E582D006D0076001227403556875F00BA42472FC740035F0FD8C8A
:20282100768D7775780090006775F000C007C006120E717403556875F00BA42472FC740068
:2028410035F0FD8C768D7775780090003375F040120E71D006D007C007C0068E828F8312FB
:202861000011D006D0077403556875F00BA42472FE740035F0FF7D007576338D7775784059
:202881008E828F838DF0020E7163670122AF82C007120E6ED007BF2A0302292FBF2B02801B
:2028A10055BF2D03022935BF2E030229EBBF2F0302295FBF3403022C17BF3503022C22BFB1
:2028C1003603022C31BF3703022C5EBF3803022C4FBF3903022C40BF3C03022A2FBF3D03A2
:2028E100022965BF6303022A14BF6D03022C14BF7203022B7122E567602E7402B5660215FB
:20290100687403556875F00BA42472FE740035F0FF7D007576677577008D788E828F838D6B
:20292100F0120E71756700229017280226D3901A0D0226D37403556875F00BA42472FE744B
:202941000035F0FF7D008E828F838DF01214249017281226D390006775F000021424901CD0
:20296100CD0226D3E567602E7402B5660215687403556875F00BA42472FE740035F0FF7DB3
:202981000075765C7577008D788E828F838DF0120E71756700227403556875F00BA42472F2
:2029A100FE740035F0FF7D008E828F838DF01213A8E58260012215687403556875F00BA4E8
:2029C1002472FE740035F0FF7D00E56804540375F00BA42472FB740035F0FC8B768C778DDA
:2029E100788E828F838DF0020E71E5677001227403556875F00BA42472FE740035F0FF8E5D
:202A0100768F7775780090005C75F000120E71756700227403556875F00BA42472FE74001C
:202A210035F0FF7D008E828F838DF0021348E5677003022B367567007403556875F00BA4B2
:202A41002472FE740035F0FF7D008E828F838DF0121378E5826001227403556875F00BA45E
:202A61002472FE740035F0FF7D008E828F838DF01213A8E5826001227403556875F00BA40E
:202A81002472FE740035F0FF8E768F7775780090006775F000120E717403556875F00BA4DD
:202AA1002472FE740035F0FF8E768F7775780090003375F040120E71E53430E71B740355E2
:202AC1006875F00BA42472FE740035F0FF7D008E828F838DF00213F190009E75F040121333
:202AE1004878A0760575769E75770075784090001475F000120E71121D097576147577009B
:202B010075780090009E75F040120E71121A0D12204A7403556875F00BA42472FE74003529
:202B2100F0FF7D007576338D777578408E828F838DF0020E717403556875F00BA42472FEDD
:202B4100740035F0FF7D008E828F838DF01213A8E5826001227403556875F00BA42472FE2D
:202B6100740035F0FF7D008E828F838DF0021424E5676009756700901BBD0227E474035594
:202B81006875F00BA42472FE740035F0FF7D008E828F838DF01213A8E582600122740355ED
:202BA1006875F00BA42472FE740035F0FF8E768F7775780090006B75F040120E7174035578
:202BC1006875F00BA42472FE740035F0FF7D00E56804540375F00BA42472FB740035F0FCED
:202BE1008B768C778D788E828F838DF0120E71E56804540375F00BA42472FE740035F0FFB3
:202C01007D0075766B8D777578408E828F838DF0020E7102288AE5677001220568756700B3
:202C210022E56770012290204A1227E475670022E5677001229022F51227E475670022E5F7
:202C410067700122901FF91227E475670022E567700122901D091227E475670022E56804B5
:202C6100540375F00BA42472FE740035F0FF7D008E828F838DF01213A8E582701F74035511
:202C81006875F00BA42472FE740035F0FF7D008E828F838DF01213A8E582601FE568045417
:202CA1000375F00BA42472FE740035F0FF7D008E828F838DF01213F1022D6E740355687558
:202CC100F00BA42472FE740035F0FF8E768F7775780090006775F000120E71E5680454039C
:202CE10075F00BA42472FE740035F0FF8E768F7775780090003375F040120E71740355686F
:202D010075F00BA42472FE740035F0FF8E768F7775780090009E75F040120E7175769E7519
:202D2100770075784090001475F000120E71121D0975761475770075780090009E75F04071
:202D4100120E71121A0D12204AE56804540375F00BA42472FE740035F0FF7D007576338D1C
:142D6100777578408E828F838DF0120E711226217567002233
:162F7D0000000A0000000000000000000017023A325C63282D4457
:202D75007A10E4FBFCE58225E0F582E58333F583EB33FBEC33FCEB9576F5F0EC9577400696
:092D9500FCABF0438201DADD22FF
:06004200E478FFF6D8FD92
:200020007921E94400601B7A01902F93789E75A000E493F2A308B8000205A0D9F4DAF27505
:02004000A0FF1F
:1B2D9E0020F71130F6138883A88220F509F6A8837583002280FEF280F5F02234
:1D2DB900E5828576F0A4C582C0F08577F0A4D0F025F0C5838576F0A42583F5832292
:202DD600E576457760467A01E57625E0F576E577334012F577E5829576E583957740030A5A
:202DF60080E6C3E57713F577E57613F576C3E5829576F5F0E58395774005F58385F082C3DB
:0D2E1600E57713F577E57613F576DAE1221E
:200048007800E84400600A790175A000E4F309D8FC789DE84400600C7901900001E4F0A318
:04006800D8FCD9FAED
:0F001100E4737581C9122EADE582600302000E03
:1C2E230020F71430F6148883A88220F507E6A88375830022E280F7E49322E022BE
:202E3F00C2D5E58330E70DD2D5E4C39582F582E49583F583E57730E70BE4C39576F576E481
:162E5F009577F577122DD630D50BE4C39582F582E49583F58322F5
:202E7500C2D5E58330E70DD2D5E4C39582F582E49583F583E57730E70DB2D5E4C39576F51C
:182E950076E49577F577122D7530D50BE4C39582F582E49583F58322C4
:042EAD007582002208
:00000001FF
