:0400000002001132B7
:03000B0002007080
:03006D0002000E80
:03000E00020100EC
:20007000C020C0E0C0F0C082C083C007C006C005C004C003C002C001C000C0D075D00012B8
:200090000F9D75D00874FFB54A02801CE5277007E526B52502801DE5252421F8A64AE525FF
:2000B000045403F5257527007408B545077408B54902C2B2D0D0D000D001D002D003D004F8
:2000D000D005D006D007D083D082D0F0D0E0D02032438E80758AC5758C1DC28DD28CD2A9FC
:2000F000D2AF22AFB174FB5FF5B143B204D2B222C015858115058105817F00A81508760024
:200110007D00A81508087600752701C007C0051200F312090D120B1C1200E1C2B490001275
:20013000E4F0900013F07420C0E09033BB75F080120A2D1581D005D0077408B5450774082D
:20015000B54902C2B2E52770F0E5262421F98703E526045403F526E525B52603752701EBEB
:2001700024A7FAE43433FB8A828B83E493FEBE2A0302046CBE2B0302046CBE2D0302046CBA
:20019000BE2E03020318BE2F0302046CBE30028051BE3103020273BE3203020273BE330359
:2001B000020273BE3403020273BE3503020273BE3603020273BE3703020273BE3803020205
:2001D00073BE3903020273BE3C0302046CBE3D0302038EBE630302040DBE720302046C024D
:2001F00004F0A81508B604004041A8150808E6700E900012E4F0A815080876010204FDC04D
:2002100005900012E0900013F0900012E4F0A815080806A8150808C3740296D005400302B5
:2002300004FDA815080876010204FDA81508E67014A815087602EF2401F582E43400F583DF
:20025000EEF00204FDEF70030204FDBF100040030204FDEF2401F582E43400F583EEF00F2B
:200270000204FDA81508B604004053A8150808E67019C0058A828B83E49324D0900012F041
:20029000A81508087601D0050204FDC005900012E0900013F08A828B83E49324D090001231
:2002B000F0A815080806A8150808C3740296D00540030204FDA815080876010204FDA815B0
:2002D00008E67021C005A815087602EF2401FCE43400FD8A828B83E493FE8C828D83F00FBC
:2002F000D0050204FDBF100040030204FDC005EF2401FCE43400FE8A828B83E4938C828EE9
:2003100083F00FD0050204FDA81508E670288F060FEE2401F582E43400F5837430F08F0649
:200330000FEE2401F582E43400F583742EF0A8150876030204FDA81508B6022BEF70108F0B
:20035000060FEE2401F582E43400F5837430F08F060FEE2401F582E43400F583742EF0A8D2
:20037000150876030204FDA81508E624FB4007A81508060204FDA8150876040204FDA815F6
:2003900008E6606B900013E075F00AA4FE900012E0FC2EFEA81508B60504C3E49EFEEF247C
:2003B00001F582E43400F583E4F0EE3395E0FCC003C002C005C006C00490000175F00012E3
:2003D0002EC7158115811581D002D0038A828B83E493F582123052A8150876007F00A8159E
:2003F00008087600900012E4F0900013F080098E82C007123052D0077D010204FDA815084D
:20041000E6701EC007122F12D0077D01A815087602EF2401F582E43400F5837430F00204F7
:20043000FDA81508B604004016A8150816A81508087600900012E4F0900013F00204FDEFC1
:2004500070030204FDEF2401F582E43400F583E0FEBE2E04A81508161F0204FDA81508E685
:20047000606B900013E075F00AA4FE900012E0FC2EFEA81508B60504C3E49EFEEF2401F593
:2004900082E43400F583E4F0EE3395E0FCC003C002C005C006C00490000175F000122EC703
:2004B000158115811581D002D0038A828B83E493F582123052A8150876007F00A8150808A2
:2004D0007600900012E4F0900013F0800F8A828B83E493F582C007123052D0077D00800DBA
:2004F0008E82C007C005123052D005D007C007C005E4C0E0C0E09000001209B915811581D0
:20051000D005D007A81508E6702AC007C005122F81AC82AE837B00C004C006C003900029AC
:2005300075F0401229A5AE82158115811581D005D007802AC007C005122F6EAB82AC837ACD
:2005500000C003C004C00290002975F0401229A5AC82158115811581D005D0078C06EE7078
:200570001AC007C0057410C0E090002975F040120A2D1581D005D00702061EC007C006C045
:2005900005740DC0E090002975F040120A2D1581D005D006D007EE30E718758201C007C0CA
:2005B00006C005120A6ED005D006D007C3E49EFE8012758200C007C006C005120A6ED005D7
:2005D000D006D007C2D575F00AEE30E704B2D5F4048430D502F4042430F582C007C006C035
:2005F00005120A6ED005D006D00775F00AEEC2D530E704D2D5F40484E5F030D502F40424B0
:2006100030F582C007C005120A6ED005D007758200C007C005120AD0D005D007A81508E69B
:200630006003020712C007C005122F6EAB82AC837A00C003C004C00290002975F040122939
:20065000A5AC82158115811581D005D0078C06EE701AC007C0057410C0E090002975F04031
:20067000120A2D1581D005D007020804C007C006C005740DC0E090002975F040120A2D15A2
:2006900081D005D006D007EE30E718758201C007C006C005120A6ED005D006D007C3E49E8F
:2006B000FE8012758200C007C006C005120A6ED005D006D007C2D575F00AEE30E704B2D5AF
:2006D000F4048430D502F4042430F582C007C006C005120A6ED005D006D00775F00AEEC247
:2006F000D530E704D2D5F40484E5F030D502F4042430F582C007C005120A6ED005D0070274
:200710000804EF7011758230C007C005120A6ED005D007020804A81508B6040050317E00D8
:20073000C3EE9F4003020804BE10004003020804EE2401F582E43400F583E0F582C007C0F1
:2007500006C005120A6ED005D006D0070E80D17E00C3EE9F5024BE0D00501FEE2401F5824D
:20077000E43400F583E0F582C007C006C005120A6ED005D006D0070E80D7BE0D00501ABECC
:200790000D00502E758220C007C006C005120A6ED005D006D0070E80E6C007C005740DC008
:2007B000E0E4C0E09000011209B915811581D005D007A81508B60510758201C007C0051262
:2007D0000A6ED005D007800E758200C007C005120A6ED005D007900013E02430F582C00789
:2007F000C005120A6E900012E02430F582120A6ED005D007758201C007C005120AD0D005D2
:0D081000D007C2B4020149851581D0152220
:20339C0000000A0000000000000000633C726D2F3938372A3635342D3332312B3D2E30530D
:2033BC0054432052504E20202020202020202043616C63756C61746F722076312E303000CB
:20081D00AF82AEB0741F5EF5B0758232C007120FB2D00753070FEFC454F0F5A0758264129A
:20083D000FB2D2B5758264120FB2C2B522E582FFC4540FF582C00712081DD0078F82120888
:20085D001D0208A4AFA0C2B7D2B6D2B5439580AE96747F5EF596758264C007120FB2A2A723
:20087D009200AE95747F5EF595439680C2B5D2B5758264C020120FB2D020D007C2B58FA0D9
:20089D00A200E433F582227E007F00C007C006120861E582D006D007700122758201C0077E
:2008BD00C006120FA3D006D0070EBE00010FC3EE9464EF940040D422AF82C0071208A4D020
:2008DD0007C2B5D2B7C2B674F05FF5A0D2B5758264C007120FB2D007C2B553070FEFC454EA
:2008FD00F0F5A0D2B5758264120FB2C2B50208A47595007596FFAFB1740F5FF5B143B2F09B
:20091D0075821E120FA375820312081D758205120FA375820312081D758264120FB275829A
:20093D000312081D758264120FB275820212081D758264120FB275820612084A75820C125E
:20095D00084A75821412084A75822812084A75824012084A7F00758200C0071208D5D00798
:20097D00EF6002740FFE8E82C0071208D57582001208D575821C1208D57582101208D5756F
:20099D0082181208D57582101208D575821C1208D5D0070FBF020040BD020B0CC015858121
:2009BD0015AE82AF83C3EE9402EF9400503BE51524FCF8C3E6941008E69400502C8E05ED71
:2009DD00030354C02480FDE51524FCF8E62DF582C007C00612084AD006D0078E108F11E5E2
:2009FD001524FCF88612088613D01522E582FF700D75828012084AE4F510F511800C75823D
:200A1D00C012084A751001751100E4F512F51322C015858115AD82AE83AFF0E51524FDF872
:200A3D0086048D828E838FF0123337FB6020EC601D8B82C007C006C005C004120A6ED0048F
:200A5D00D005D006D0070DBD00010E1C80D4D01522AF82BF0D028003BF0A05120B0C804F5F
:200A7D00E4BF090104FE7003EE6016E51045117008758201120A098036758200120A0980A1
:200A9D002E8F821208D50512E4B512020513C3E5129410E513648094804014E510451170D2
:200ABD0008758201120A098006758200120A0990000122AF82E512451360188F057E00EDA8
:200ADD00B51010EEB5110C758220C007120A6ED00780E222E582540FFF24F6400A8F06746B
:1F0AFD00302EF582020A6E74572FF582020A6E75820112084AE4F510F511F512F5132224
:200B1C007591007592007590FFAFB174FC5FF5B1AFB274FC5FF5B243B003AFC974CF5FF5F7
:200B3C00C9AFCA74CF5FF5CA43C8307F00EF2F25E02450FE7D00ED2EF99033DCE493FCF70D
:200B5C000DBD040040F00FBF050040E1754AFF2275450043B203AFB074FC5FF5B043B0032C
:200B7C00AFB274FC5FF5B2AF4530B0047E0080027E01EE2FF545AF4530B1047E0080027E7D
:200B9C0002EE2FF545AF4530CC047E0080027E04EE2FF545AF4530CD047E0080027E08EEAA
:200BBC002FF5457F009033E0E493FEC3EF9E505CEF042445F87600EF04FE8FF005F0740179
:200BDC00800225E0D5F0FBFD7C0074042CF5F005F07401800225E0D5F0FBF4F590ED5590B4
:200BFC00FB70047A0180027A008A03EE2445F987028CF005F0EB800225E0D5F0FBFB2AF7CE
:200C1C007590FF0CBC040040C10F809922C015E581F5152407F581754AFFE5152404F87669
:200C3C0000E5152404F8E625E025E0FEFDA8150808EE2450F6E5152404F9E7244BF8E5150B
:200C5C002404F9C000A81508E72445F6D000E5152403F97700C005A9150909C000E51524B8
:200C7C0003F8E627FAD000A90287048605E5152403F9E725E0FF8FF005F07403800225E04E
:200C9C00D5F0FB5205E5152407F9A705E5152403F9E775F002A4FDAFF08DF005F0E515241F
:200CBC0007F9E78002C313D5F0FBF7E5152405F9A704E5152407F9C000E5152406F8E7F684
:200CDC00D000A9150987018707E5152403F987F005F07A017D008006EA2AFAED33FDD5F057
:200CFC00F78F037F00EB5202EF5205EA4DD005601D9033DDE493FFC3EC64808FF063F080C7
:200D1C0095F05024E5152405F9EC04F7801A9033DCE493FFC364808CF063F08095F0500839
:200D3C00E5152405F9EC14F7E5152407F9E724FC5003020EEBE5152407F9E72727900D5DC4
:200D5C0073020D69020DB6020E2C020E7AC0059033DCE493FF3395E0FB9033DFE493FA333E
:200D7C0095E0FDEA2FFFED3BFBE5152405F98702E73395E0FDC3EA9FED64808BF063F0800E
:200D9C0095F0D0055003020F01E5152405F97700E5152406F97701020F019033DEE493FF27
:200DBC00E5152405F9C3E764808FF063F08095F04017E5152406F977029033DDE493FBE5B2
:200DDC00152405F9A703020F01C005EF3395E0FBC3E49FFFE49BFBE5152405F98702E7332F
:200DFC0095E0FDC3EF9AEB64808DF063F08095F0D0055003020F01E5152406F977009033E4
:200E1C00DCE493FFE5152405F9A7070564020F01C0059033DDE493FF3395E0FB9033DFE41B
:200E3C0093FA3395E0FDEFC39AFFEB9DFBE5152405F98702E73395E0FDC3EF9AEB64808DBD
:200E5C00F063F08095F0D0055003020F01E5152405F97700E5152406F97703020F01C005F3
:200E7C009033DEE493FFFA3395E0FBC3E49AFAE49BFBE5152405F98704E73395E0FDC3EA0D
:200E9C009CEB64808DF063F08095F0D0054016E5152406F977009033DCE493FCE515240502
:200EBC00F9A7048040E5152405F9C3E764808FF063F08095F0402EE5152406F9770290336A
:200EDC00DDE493FFE5152405F9A70705648016E5152406F977009033DCE493FFE51524050E
:200EFC00F9A7070564E5152407F9B701028011E5152406F9B70109E5152403F9E72EF54A11
:200F1C00ED2450FFE5152403F9E72FF9C000E5152405F8E6F7E5152404F8E6244BF987077E
:200F3C00E5152403F8E625E0FCD0008CF005F07403800225E0D5F0FBF4FB52078CF005F0DD
:200F5C00C000E5152406F8E6800225E0D5F0FBFCD000EC4FF7E5152403F907E5152403F933
:200F7C00B704005003020C71E5152404F806E5152404F8B605005003020C3D851581D01535
:070F9C0022120B6C020C296C
:0533DC00E21E020204E4
:200FA30075F00A74E6D5E0FDD5F0F8D582F222000000000000D582F722D2B422C015858198
:200FC30015C082C083C0F0C0E0E581240AF5817A007B00A81508E6084608460846701CE51F
:200FE3001524FBF886050886060886078D828E838FF0743012323D7A017B00A81508E608A1
:20100300460846084670030210C0E51524FBF8E5152405F9EA26F7EB083609F70809E6F75B
:20102300E51524FAF8E5152408F9E6F7097700097700097700C003C002E5152408F8E6C0D8
:20104300E008E6C0E008E6C0E008E6C0E0A8150886820886830886F008E6123258AC82E50A
:201063008124FCF58174302CFCE5152405F886820886830886F0EC12323DE5152408F8E667
:20108300C0E008E6C0E008E6C0E008E6C0E0A8150886820886830886F008E61232CAA815EE
:2010A30008A68208A68308A6F008F6E58124FCF581D002D0030ABA00010B020FFEE5152492
:2010C300FBF8EA26FDEB0836FE0886078D828E838FF0E412323DEA24FFFEEB34FFFFE5152B
:2010E300240CF8E4F608F6E515240CF8C3E69E08E664808FF063F08095F0400302118CE514
:201103001524FBF8E515240CF9E726C0E009E70836C0E008E6C0E0E515240AF8D0E0F61896
:20112300D0E0F618D0E0F6E5152408F886820886830886F0E515240EF9123337F7E51524DD
:20114300FBF8EE26FBEF0836FC0886058B828C838DF0123337FAE5152408F8868208868388
:201163000886F0EA12323D8B828C838DF0E515240EF8E612323DE515240CF806B600020877
:1C118300061EBEFF011F0210EAE51524FBF886820886830886F0851581D0152289
:20119F00C015858115C082C083C0F0E5812404F581E51524FBF886020886030886048A823F
:2011BF008B838CF0123337FEA3123337FFA8150886820886830886F0EE12323DA3EF12324D
:2011DF003DA81508740226FDE40836FE088607E5152404F874022AF6E43B08F608A604E53C
:2011FF00152407F87600E5152407F8E62DFAE43EFB8F04C005C006C007E5152404F8E515E2
:20121F002407F9E726FDE40836FE0886078D828E838FF0123337FD8A828B838CF012323D9D
:20123F00E5152407F806E5152407F8B60900D007D006D00540B0851581D01522AD82123388
:20125F0037FEA3123337FF30E60C8E048F058C8274804DF583228E82747F5FF58322C0151A
:20127F00858115AD82AE83AFF0E51524FBF8E66018E51524FCF88603088604E51524FCF887
:20129F00A60374804C08F6800AE51524FCF808E6547FF68D828E838FF0E51524FCF8E6124C
:2012BF00323DA308E612323DD01522C015858115058105810581AD82AE83AFF0A8150874CD
:2012DF00022DF6E43E08F608A607E51524FDF88604BC0900501AA81508EC26FAE40836FB3B
:2012FF000886078A828B838FF0E412323D0C80E1851581D01522C01585811505810581AD04
:20131F0082AE83AFF0A81508760074022DFDE43EFEA81508087600A8150808E62DFAE43E22
:20133F00FB8F04C005C006C0078A828B838CF0123337FF75F00A84FE75F00AEF84AFF0A883
:20135F001508E675F00AA4FD2EFE8A828B838CF012323DA81508A607A815080806A815080E
:20137F0008B60900D007D006D00540AB851581D01522C01585811505810581AD82AE83AFED
:20139F00F0A81508760074022DFDE43EFEA81508087608A8150808E62DFAE43EFB8F04C0AE
:2013BF0005C006C0078A828B838CF0123337FF75F00A84FE75F00AEF84E5F075F00AA4FFB1
:2013DF00A81508EF268A828B838CF012323DA81508A606A815080816A8150808E6D007D04F
:2013FF0006D00530E7AD851581D01522C015858115C082C083C0F0E5812408F581A815081B
:20141F0086820886830886F0123337A3123337FCE5152408F8EC33E433F6A8150886820860
:20143F0086830886F012125BAA82AB83E5152409F8A60208A603A81508740226FAE4083638
:20145F00FB088604E5152407F87600E5152407F8E62AFDE43BFE8C078D828E838FF012338F
:20147F00377010E5152407F806E5152407F8B6090040D8E5152407F8E675F002A4FEAFF0D4
:20149F00E5152409F8E6C39EF608E69FF6E5152407F8E6700302154AE5152407F8B609009B
:2014BF00400302154AA81508740226FDE40836FE088607E515240BF87600E5152407F8E5BD
:2014DF00152407F8B60900504AE515240BF8E5152404F9E62DF7E43E09F709A707E515241F
:2014FF0007F8E62DFAE43EFB8F048A828B838CF0123337FAE5152404F88682088683088644
:20151F00F0EA12323DE515240BF806E5152407F80680ACE515240BF8E6C0E0A81508868267
:20153F000886830886F01212CA1581A81508740226FDE40836FE0886078D828E838FF012B5
:20155F003337FDBD0A005019A8150886820886830886F0121391E5152409F816B6FF0208CF
:20157F0016E5152408F8E6C0E0E5152409F8E6C0E008E6C0E0A8150886820886830886F003
:20159F0012127D158115811581851581D01522C015858115C082C083C0F0E5812408F5817A
:2015BF00E5152408F87600E5152409F87600E515240AF87600E515240BF87600E51524FB9D
:2015DF00F886050886060886078D828E838FF0123337FC7011A8150886820886830886F04C
:2015FF001219C20219BCBC2D07E515240BF87602A81508E5152404F9740226F7E4083609E1
:20161F00F70809E6F7E5152407F87600E5152407F8E62DFAE43EFB8F048A828B838CF012B1
:20163F003337FCBC2E26E515240BF8E620E00CE515240BF8E64401F60219B3A81508868225
:20165F000886830886F0121A6B0219BCC3EC648094B1500302175DC374B98CF063F08095F9
:20167F00F0500302175DE5152408F8B612005050E5152408F8E630E03EC005C006C007E583
:20169F00152408F8E6C313FBE5152404F8EB26FAE40836FB088607E5152409F8E675F00AF0
:2016BF00A4FEEC24D02E8A828B838FF012323DD007D006D0058009E5152409F8EC24D0F641
:2016DF00E5152408F806E515240AF8E67019E515240BF8B601028008E515240BF8B60307F5
:2016FF00E515240AF876FFE515240BF8E67009E515240BF876048031E515240BF8B6010989
:20171F00E515240BF876058020E515240BF8B60209E515240BF87606800FE515240BF8B689
:20173F000307E515240BF87607E515240BF8E630E0030219B3E515240AF8060219B3E5150C
:20175F002407F8E62DFAE43EFB8F048A828B838CF0123337FCBC3002800302182EE51524A5
:20177F000BF8C3748386F063F08095F0E433FB6059E5152408F8B612005049E5152408F857
:20179F00E630E039C005C006C007E5152408F8E6C313FAE5152404F8EA26FAE40836FE0889
:2017BF008607E5152409F8E675F00AA48A828E838FF012323DD007D006D0058007E5152421
:2017DF0009F87600E5152408F806E515240BF8E630E02DEB60030219B3E515240AF8E67079
:2017FF000AE515240AF876FE0219B3E515240AF8E620E7030219B3E515240AF8160219B37C
:20181F00EB70030219B3E515240AF8060219B3EC60030219B3E515240BF8C3748386F063B8
:20183F00F08095F04011A8150886820886830886F01219C20219BCE5152408F8E630E035DA
:20185F00A81508740226FFE40836FE088605E5152408F8E6C3132FFFE43EFEE5152409F80F
:20187F00E675F00AA4FC8F828E838DF012323DE5152408F806E5152408F8E6C313FCC00476
:20189F00A8150886820886830886F01212CA1581E515240AF8C3748086F063F08095F05054
:2018BF0050E51524F9F88604E515240AF8E6142CFCFA3395E0FBE51524F9F8C3EA96EB64A0
:2018DF00800886F063F08095F04015E51524F9F8C374FF9674BF0886F063F08095F0506C9E
:2018FF00A8150886820886830886F0121A6B0219BCE515240AF8E630E74BE51524F9F88602
:20191F0003E515240AF8E62BFCECFA3395E0FBE51524F9F8C3E69A08E664808BF063F0807D
:20193F0095F04011E51524F9F8C3E6940108E6648094405017A8150886820886830886F0FC
:20195F00121A6B8058E51524F9F88604EC3395E0FBE51524F9F8A60408A603E515240BF846
:20197F00C3E664809486B3E433FAC002C004C003A8150886820886830886F012127D158101
:20199F0015811581A8150886820886830886F012140B8009E5152407F80602162B85158165
:2019BF00D01522AD82AE83AFF0E412323DA312323D74022DFDE43EFE7C00EC2DF9E43EFA0F
:2019DF008F0389828A838BF0E412323D0CBC090040E822AD82AE83AFF074022DFDE43EFE84
:2019FF007C00EC2DF9E43EFA8F0389828A838BF01233376004758200220CBC090040E37597
:201A1F00820122AD82AE83AFF0123337FBA3123337FCBB0005BCC002800475820022740220
:201A3F002DFDE43EFE7C00EC2DF9E43EFA8F0389828A838BF0123337F9B9FF0280047582C4
:201A5F0000220CBC090040DF75820122AD82AE83AFF0E412323DA374C012323D74022DFDDF
:201A7F00E43EFE7C00EC2DF9E43EFA8F0389828A838BF074FF12323D0CBC090040E722AD9D
:201A9F0082AE83AFF0123337FBA3123337FC9033EDE493F9740193FAE96203EA62048D8274
:201ABF008E838FF0EB12323DA3EC02323DC015858115058105810581AD82AE83AFF0E51590
:201ADF002403F87600C005C006C00790001475F00012119F158115811581E51524FBF8E67C
:201AFF00C0E008E6C0E008E6C0E090001F75F00012119F15811581158190001475F0001258
:201B1F00140B90001F75F00012140B7F007E00A81508E4F608F67A007D00BF0900400302A4
:201B3F001BD0BE09004003021BD0E5152403F8E67032C002C005EF2416FBE43400FDEE2431
:201B5F0021FAE43400FC8B828D83E0FB8A828C83E0FAC3EB9AD005D0025009E5152403F8E9
:201B7F0076FF8036E5152403F8E6702EC002C005EF2416FBE43400FCEE2421FAE43400FD7D
:201B9F008B828C83E0FB8A828D83E0C39BD005D0025007E5152403F876010F0EA8150874F1
:201BBF000226F6E40836F674022AFAE43DFD021B3990001475F000C005C00212125BAE8283
:201BDF00AF83D002D005A81508EE26FEEF0836FF90001F75F000C007C006C005C0021212BE
:201BFF005BAB82AC83D002D005D006D007EB2AFAEC3DFD8A04C3EC9EED64808FF063F08088
:201C1F0095F05005758201801BC3EE9CEF64808DF063F08095F050057582FF8007E5152453
:201C3F0003F88682851581D01522C015858115AD82AE83AFF0C007C006C0051219F2E5829B
:201C5F00D005D006D0076026E51524FBF886820886830886F0C007C006C0051219F2E582DF
:201C7F00D005D006D0076006758200021DD58D828E838FF0C007C006C0051219F2E582D02D
:201C9F0005D006D007602BE51524FBF886020886030886048A828B838CF0123337FAA3126B
:201CBF003337FB30E706758201021DD57582FF021DD5E51524FBF886820886830886F0C045
:201CDF0007C006C0051219F2E582D005D006D007601E8D828E838FF0123337FBA31233379A
:201CFF00FC30E7067582FF021DD5758201021DD58D828E838FF0123337FBA3123337FC3075
:201D1F00E730E51524FBF886020886030886048A828B838CF0123337FAA3123337FBC3E404
:201D3F009A74808BF063F08095F050067582FF021DD58D828E838FF0123337FBA3123337AE
:201D5F00FCC3E49B74808CF063F08095F05024E51524FBF886020886030886048A828B8314
:201D7F008CF0123337FAA3123337FB30E70575820180438D828E838FF0123337FBA3123363
:201D9F0037FC30E7047CFF80027C01C004E51524FBF8E6C0E008E6C0E008E6C0E08D828E48
:201DBF00838FF0121ACCAF82158115811581D0048FF0ECA4F582D01522C015858115AD8297
:201DDF00AE83AFF0C007C006C00512125BAB82AC83D005D006D007E51524FCF8E6B50307AE
:201DFF0008E6B5040280248D828E838FF0C007C006C005C004C003121315D003D004D00549
:201E1F00D006D0070BBB00CF0C80CCD01522C015858115C082C083C0F0E5812405F581E5F3
:201E3F00152408F87600E51524FBF8E6C0E008E6C0E008E6C0E090002A75F00012119F152B
:201E5F008115811581A8150886820886830886F012140B90002A75F00012140BA81508868E
:201E7F00820886830886F012125BAA82AB8390002A75F000C003C00212125BAE82AF83D004
:201E9F0002D003EAB50606EBB507028023A8150886820886830886F012125BAE82AF83C05A
:201EBF0006C00790002A75F000121DD815811581A81508740226FDE40836FE088607E515D7
:201EDF002407F87608E5152407F8E62DFAE43EFB8F04E5152407F8E6242CF582E43400F591
:201EFF0083E5152404F8E0F6C005C006C007E5152404F8E5152405F9E6F7097700E515244D
:201F1F0008F886057F00E5152405F8ED26FDEF0836FF8A828B838CF0123337FBFC7E00C3F7
:201F3F00EC9DEE64808FF063F08095F0D007D006D0054021E5152404F8E5152408F9E72627
:201F5F00FCEBC39CFCE5152405F8A604E5152408F87600802374642BFBE5152404F8E51512
:201F7F002408F9E726FAEBC39AFBE5152405F8A603E5152408F87601E5152407F8E62DFA50
:201F9F00E43EFB8F048A828B838CF0E5152405F8E612323DE5152407F816E5152407F8E624
:201FBF0020E703021EE4851581D01522C015858115C082C083C0F0E5812406F581E5152489
:201FDF0007F87600E51524FBF886820886830886F01219F2E58260030224DEA8150886820D
:201FFF000886830886F01219F2E5826027E51524FBF8E6C0E008E6C0E008E6C0E0A81508B0
:20201F0086820886830886F012119F1581158115810224DEA8150886820886830886F01214
:20203F003337FAA3123337FB20E70302211FE51524FBF886020886030886048A828B838C55
:20205F00F0123337FEA3123337FF30E70302211FC004C003C002C002C003C004A8150886A0
:20207F00820886830886F0121ACCAF82158115811581D002D003D004BF011DC002C003C0AA
:20209F0004A8150886820886830886F0121E2D1581158115810224DEBFFF54C002C003C047
:2020BF000490003575F00012119F158115811581A81508E6C0E008E6C0E008E6C0E0900058
:2020DF003575F000121E2D1581158115817435C0E07400C0E0E4C0E0A81508868208868369
:2020FF000886F012119F1581158115810224DEA8150886820886830886F01219C20224DE6E
:20211F00A8150886820886830886F0123337FDA3123337FE30E70302220DE51524FBF886CC
:20213F00040886050886068C828D838EF0123337FAA3123337FB20E70302220DC006C00563
:20215F00C004C004C005C006A8150886820886830886F0121ACCAB82158115811581D00436
:20217F00D005D0068B07BF011DC004C005C006A8150886820886830886F0121E2D15811573
:20219F008115810224DEBFFF54C004C005C00690003575F00012119F158115811581A81539
:2021BF0008E6C0E008E6C0E008E6C0E090003575F000121E2D1581158115817435C0E07450
:2021DF0000C0E0E4C0E0A8150886820886830886F012119F1581158115810224DEA8150813
:2021FF0086820886830886F01219C20224DEE51524FBF8E6C0E008E6C0E008E6C0E09000F5
:20221F003575F00012119F158115811581A8150886820886830886F012140B90003575F0CA
:20223F000012140BA8150886820886830886F012125BAD82AE8390003575F000C006C0055E
:20225F0012125BAB82AC83D005D006C3EB9DEC64808EF063F08095F05026A815088682089D
:20227F0086830886F012125BAD82AE83C005C00690003575F000121DD81581158102237359
:20229F00A8150886820886830886F012125BAD82AE8390003575F000C006C00512125BAB05
:2022BF0082AC83D005D006C3ED9BEE64808CF063F08095F040030223737E0090003575F02F
:2022DF0000C00612125BAC82AD83A8150886820886830886F0C005C00412125BAA82AB837E
:2022FF00D004D005D006ECC39AFCED9BFDEEFA3395E0FBC3EA9CEB64808DF063F08095F0FE
:20231F005015A8150886820886830886F0C006121315D0060E80A4A81508868208868308EF
:20233F0086F0123337A312333733E433FD90003575F000C00512125BAC82AE83C004C006CF
:20235F00A8150886820886830886F012127D158115811581A81508E5152404F9740226F72C
:20237F00E4083609F70809E6F77F08E5152404F8EF26FAE40836FB088606EF2437F582E428
:20239F003400F583E0FD8A828B838EF01233372DFDE5152407F8E62DFD75F06484ACF08AB7
:2023BF00828B838EF0EC12323DE5152407F875F064ED84F61FEF30E7B2E5152407F8E670EC
:2023DF00030224DEA8150886820886830886F012125BAD82AE83E5152408F8A60508A6061F
:2023FF00A8150886820886830886F0123337FBA3123337FC33E433FFE5152407F8B60A00AA
:20241F005051C007A8150886820886830886F0C007121315D007A81508740226FAE4083684
:20243F00FB088604E5152407F8E675F00AA4FF8A828B838CF0123337FE2FFF8A828B838CF7
:20245F00F012323DE5152408F806B600020806D007804AA8150886820886830886F0C0073E
:20247F00121315A8150886820886830886F0121315D007A81508740226FCE40836FD08868C
:20249F00068C828D838EF0E5152407F8E612323DE5152408F8740226F6E40836F6C007E583
:2024BF00152408F8E6C0E008E6C0E0A8150886820886830886F012127D158115811581856C
:2024DF001581D01522C015858115C082C083C0F0E581240CF581E515240CF87600E5152459
:2024FF00FBF8E6C0E008E6C0E008E6C0E090004075F00012119F15811581158190004B751F
:20251F00F0001219C2A8150886820886830886F012140B90004075F00012140BA815088681
:20253F00820886830886F0123337A3123337FB7A00530380900040E0A3E0FF7C00530780FD
:20255F00EC6202EF6203EA4B6009E515240DF876018007E515240DF87600A815088682088B
:20257F0086830886F012125BAD82AE8390004075F000C006C00512125BAB82AC83D005D096
:20259F0006EB2DFDEC3EFEE515240EF8A60508A606A81508E5152406F9740226F7E40836BF
:2025BF0009F70809E6F77F08E5152404F8EF2442F6E4340008F6E515240BF87608C007E5C1
:2025DF0015240BF8E6244DFDE43400FF8D828F83E0FEE5152409F8A606087600E5152406C9
:2025FF00F8E515240BF9E726FAE40836FB0886068A828B838EF0123337FAE5152404F8863C
:20261F0082088683E0FE8EF0EAA4C8E5152409C826FC08E635F0FEE515240CF886027B000F
:20263F00EA2CFCEB3EFEC007C006C005C0047464C0E0E4C0E08C828E83123353AA821581B7
:20265F001581D004D005D006D0078D828F83EAF07464C0E0E4C0E08C828E8312320CAE82D9
:20267F0015811581E515240CF8A606E515240BF816E515240BF8E6D00720E7030225DCEF30
:20269F00602090004B75F000C00712131590004B75F000121315D00790004DE515240CF80A
:2026BF00E6F01FEF20E7030225C7E515240CF8B60A00402990004B75F00012131590004B7F
:2026DF0075F000121315E515240EF806B60002080690004DE515240CF8E6F08027E51524B2
:2026FF000CF8E6601F90004B75F000121315E515240CF8E675F00AA4FF90004DE0FE2FFFD5
:20271F0090004DF0E515240DF8E6C0E0E515240EF8E6C0E008E6C0E090004B75F000121288
:20273F007D158115811581744BC0E07400C0E0E4C0E0A8150886820886830886F012119F26
:20275F00158115811581A8150886820886830886F012140B851581D01522C01585811505F4
:20277F008105810581AD82AE83AFF0E51524FBF886820886830886F0C007C006C005121989
:20279F00F2E582D005D006D007600C8D828E838FF0121A6B02299FC007C006C005C005C0FC
:2027BF0006C00790006175F00012119F158115811581E51524FBF886820886830886F01299
:2027DF00125BAB82AC83D005D006D007C005C006C007C3E49BFAE49CFFEA24FFFBEF34FF58
:2027FF00FCE51524FBF8A91509E6F70809E6F70809E6F7A8150886820886830886F012338C
:20281F0037A3123337FF33E433FEC007C006C005C006C003C00490005675F00012127D155C
:20283F008115811581D005D006D007900058740AF07C01D007D006D005EC2458F582E434FE
:20285F0000F583E4F00CBC090040EEC007C006C0057456C0E07400C0E0E4C0E08D828E839A
:20287F008FF012119F158115811581D005D006D0077C00C007C006C005C004A81508E6C0B7
:20289F00E008E6C0E008E6C0E08D828E838FF01224E4158115811581D004D005D006D0074C
:2028BF008D828E838FF0C007C006C005C004121A9ED004D005D006D007C007C006C005C012
:2028DF000474E1C0E07433C0E07480C0E08D828E838FF0121FCB158115811581D004D005FF
:2028FF00D006D007C007C006C005C0047456C0E07400C0E0E4C0E08D828E838FF01224E43B
:20291F00158115811581D004D005D006D007C007C006C005C0047456C0E07400C0E0E4C048
:20293F00E08D828E838FF0121FCB158115811581D004D005D006D007C007C006C005C004CF
:20295F00C005C006C00790005675F00012119F158115811581D004D005D006D0070CBC0D0C
:20297F000050030228927461C0E07400C0E0E4C0E08D828E838FF01224E4158115811581A1
:20299F00851581D01522C015858115C082C083C0F0058105810581E4FCFBE5152406F876D2
:2029BF0000E51524FBF886820886830886F0C004C003121A22E582D003D0047003022A715D
:2029DF00A8150886820886830886F0744512323DA81508740126FDE40836FE0886078D8221
:2029FF008E838FF0747212323DA81508740226FDE40836FE0886078D828E838FF074721217
:202A1F00323DA81508740326FDE40836FE0886078D828E838FF0746F12323DA815087404D4
:202A3F0026FDE40836FE0886078D828E838FF0747212323DA81508740526FDE40836FE0810
:202A5F0086078D828E838FF0E412323D758200022E83C004C003E51524FBF8E6C0E008E610
:202A7F00C0E008E6C0E090006C75F00012119F15811581158190006C75F00012140BD003BF
:202A9F00D00490006EE0702EA8150886820886830886F0743012323DA81508740126FDE405
:202ABF000836FE0886078D828E838FF0E412323D758200022E8390006CE0FEA3E0FF30E705
:202ADF0012A8150886820886830886F0742D12323D7C01C00390006C75F000C004C003120D
:202AFF00125BAE82AF83D003D004E5152404F8A60608A6079033ECE493FB7D001BBBFF0152
:202B1F001DE5152404F8C3EB96ED64800886F063F08095F0D0034011E5152404F8C3E694F9
:202B3F00FD08E66480947F5007E5152406F87601E5152406F8E66003022BD9E5152404F825
:202B5F0008E630E775C003A81508EC26FAE40836FB0886058A828B838DF0743012323D0CD0
:202B7F008C050CA81508ED26FDE40836FB0886028D828B838AF0742E12323DE5152404F843
:202B9F008605C3E49DFD14FE8C07D003C374808EF063F08095F05020C003A81508EF26FA3E
:202BBF00E40836FB0886058A828B838DF0743012323D0F1ED00380D48F04C003A81508EC2F
:202BDF0026FAE40836FB08860590006EE075F00A842430FF8A828B838DF012323D0CD003EB
:202BFF00E5152406F8E6601D8C070CA81508EF26FFE40836FE0886058F828E838DF0742ECB
:202C1F0012323D8030E5152404F8E60846701B8C070CA81508EF26FFE40836FE0886058FD1
:202C3F00828E838DF0742E12323DE5152404F816B6FF020816A81508EC26FDE40836FE0841
:202C5F00860790006EE075F00A84AAF074302AFA8D828E838FF012323D90006EE0FF75F033
:202C7F000A84E5F07014E5152406F8E6700AE5152404F808E630E7027B010CE5152406F80D
:202C9F00E67030E5152404F8E60846701B8C070CA81508EF26FFE40836FE0886058F828EEC
:202CBF00838DF0742E12323DE5152404F816B6FF0208167F01C003A81508EC26FAE4083697
:202CDF00FD088606EF246EF582E43400F583E075F00A8424308A828D838EF012323D0CD09E
:202CFF0003E5152406F8E67030E5152404F8E60846701B8C060CA81508EE26FEE40836FDA3
:202D1F000886028E828D838AF0742E12323DE5152404F816B6FF020816C003A81508EC26A8
:202D3F00FAE40836FD088606EF246EF582E43400F583E075F00A84ABF074302B8A828D83E6
:202D5F008EF012323D0CD003E5152406F8E67030E5152404F8E60846701B8C060CA8150898
:202D7F00EE26FEE40836FD0886028E828D838AF0742E12323DE5152404F816B6FF020816B1
:202D9F00EF246EFDE43400FE8D828E83E0703EE5152406F8E6700AE5152404F808E630E737
:202DBF002CE5152406F8E67011E5152404F8C3E694FE08E66480947F50040B0B803BE515EC
:202DDF002404F8B6FE3308B6FF2F0B802CEF246EF582E43400F583E0FE75F00A84E5F0708C
:202DFF0016E5152406F8E6700AE5152404F808E630E7047B0180027B000FBF09005003025A
:202E1F002CD4E5152406F8E67014E5152404F8C3E49674800886F063F08095F04004ECC3F9
:202E3F009BFCA81508EC26FCE40836FF0886068C828F838EF0E412323D90006C75F00012DE
:202E5F00125BAE82AF83E5152404F8A60608A607E5152406F8E66009E5152404F8868280FC
:0A2E7F0003758200851581D015222D
:0E33E10000000A000000000000000010008044
:03006A007514000A
:202E890074032514540375F00BA42477FE740035F0FF7D007403551475F00BA42477FB7462
:202EA9000035F0FC7A00C006C007C0058B828C838AF012119F158115811581051422C015F2
:202EC900858115AD82AE83AFF0E51524FBF8E6700215147403551475F00BA42477FB74003F
:202EE90035F0FC7A00E51524FCF8E6C0E008E6C0E0C005C006C0078B828C838AF01215AE4B
:202F0900E58124FBF581D015227403551475F00BA42477FE740035F0FF7D008E828F838D55
:202F2900F00219C2C015858115AD82AE83AFF07403551475F00BA42477FB740035F0FC7A33
:202F490000E51524FCF8E6C0E008E6C0E0C005C006C0078B828C838AF01215AEE58124FB00
:202F6900F581D015227403551475F00BA42477F582740035F0F58322E51404540375F00BCE
:202F8900A42477F582740035F0F58322AE82AF83E51404540375F00BA42477FC740035F045
:202FA900FD7B008C828D838BF0C007C006121A22E582D006D00770277403551475F00BA47D
:202FC9002477FC740035F0FD7B008C828D838BF0C007C006121A22E582D006D007601EE555
:202FE9001404540375F00BA42477FC740035F0FD7B008C828D838BF0121A6B8049740355D8
:203009001475F00BA42477FC740035F0FD7B00E51404540375F00BA42477F9740035F0F84A
:203029007A00C007C006C004C005C00312303A800BC006C007898288838AF02215811581C2
:203049001581D006D007022E89C015E581F515240EF581AF82C007120FBCD007BF2A028067
:2030690032BF2B028024BF2D028031BF2F028050BF3C0302312FBF3D02804EBF63030231A2
:2030890011BF720302314D023206901FCB122F950232069024E4122F950232067403551416
:2030A90075F00BA42477FE740035F0FF7D008E828F838DF0121A9E901FCB122F9502320652
:2030C900902779122F950232061514E51404540375F00BA42477FE740035F0FF7D007403F1
:2030E900551475F00BA42477FB740035F0FC7A00C006C007C0058B828C838AF012119F15E6
:2031090081158115810232067403551475F00BA42477FE740035F0FF7D008E828F838DF07E
:203129001219C20232067403551475F00BA42477FE740035F0FF7D008E828F838DF0121AF2
:203149009E0232067403551475F00BA42477FE740035F0FFA81508A60608A607087600E5E0
:20316900152404FCFA7B007F40C004A81508E6C0E008E6C0E008E6C0E08A828B838FF01203
:20318900119F158115811581E51404540375F00BA42477FE740035F0FFA81508A60608A6FC
:2031A900070876007403551475F00BA42477FA740035F0FB7F00A81508E6C0E008E6C0E00C
:2031C90008E6C0E08A828B838FF012119F1581158115817F007E40E51404540375F00BA496
:2031E9002477FB740035F0FD7A00C007C0068B828D838AF012119F1581158115818515815D
:03320900D01522BB
:0B33EF0000000A0000000000000000C9
:20320C00E58124FEF8E6F918E6F87A10E4FBFCE58225E0F582E58333F583EB33FBEC33FCBE
:11322C00EB98F5F0EC994006FCABF0438201DADF2226
:06004000E478FFF6D8FD94
:20001E007900E94400601B7A009033FA78A375A000E493F2A308B8000205A0D9F4DAF275B9
:02003E00A0FF21
:1B323D0020F71130F6138883A88220F509F6A8837583002280FEF280F5F02290
:200046007800E84400600A790175A000E4F309D8FC78A2E84400600C7901900001E4F0A315
:04006600D8FCD9FAEF
:20325800F9E58124FBF886020886030886040886057800EA4B4C4D60587800C308ED20E76D
:2032780027EA25E0FAEB33FBEC33FCED33FDE5829AE5839BE5F09CE99D50E1C3ED13FDECFD
:2032980013FCEB13FBEA13FAE5829AE5839BFEE5F09CFFE99D400AF98FF08E83E5829AF556
:1232B80082C3ED13FDEC13FCEB13FBEA13FAD8D8E9221C
:2032CA00FBE58124FBF8E6F9087A20E4FCFDFEFFE5822582F582E58333F583E5F033F5F08C
:2032EA00EB33FB4017DAE98042E5822582F582E58333F583E5F033F5F0EB33FBEC33FCED29
:20330A0033FDEE33FEEF33FFEC99ED96EE0896EF089618184013EC99FCED96FDEE0896FE04
:0D332A00EF0896FF1818438201DABEEB226F
:0D00110075817F123398E582600302000EB6
:1C33370020F71430F6148883A88220F507E6A88375830022E280F7E49322E022A5
:20335300E58124FEF88601188600E84960367A01E825E0F8E933400EF9E58298E5839940EB
:20337300030A80ECC3E913F9E813F8C3E58298F5F0E583994005F58385F082C3E913F9E81A
:0533930013F8DAE72247
:043398007582002218
:00000001FF
