:0400000002001332B5
:03000B0002008A66
:09006C00751700751801751900E3
:0300870002000E66
:03000E0002016F7D
:20008A00C021C0E0C0F0C082C083C0D075D008120A34120AFE74FFB52802801CE5167007F9
:2000AA00E515B514028021E5142410F8A628E514045403F5147516007880860FBF08097820
:2000CA0084860FBF0802C2B2D0D0D083D082D0F0D0E0D02132438E80758AC5758C1DC28D66
:2000EA00D28CD2A9D2AF22AFB174FB5FF5B143B204D2B222C374019518E433FFB40100E473
:20010A0033F58222751700751900900012E4F0900013F022C374019518B3E433FF703790DF
:20012A000013E075F00AA4FF900012E0FE2FFF7405B51804C3E49FFFE5172401F582E434C3
:20014A0000F583E4F0EFF5693395E0F56A90000112253E12010EE51A902C5D93F582122773
:20016A0034751801227516011200F11208061209E41200DFC2B4900012E4F0900013F075FE
:20018A00272090008812090178808607BF080978848607BF0802C2B2E51670ECE51524103A
:2001AA00F9871AE515045403F515E514B51503751601E51A902C5D93FFBF2A030204B1BFDE
:2001CA002B030204B1BF2D030204B1BF2E03020393BF2F030204B1BF30028051BF310302A3
:2001EA0002ABBF32030202ABBF33030202ABBF34030202ABBF35030202ABBF36030202AB0F
:20020A00BF37030202ABBF38030202ABBF39030202ABBF3C030204B1BF3D03020408BF63F5
:20022A000302045EBF72030204B102050674FC2518502EE519700B900012E4F075190102AA
:20024A00050B900012E0FE900013F0900012E4F00519E51924FD400302050B7519010205D3
:20026A000BC374019518B3E433FE6013751802E5172401F582E43400F583EFF002050BE5BC
:20028A0017700302050B74F02517500302050BE5172401F582E43400F583EFF00517020589
:2002AA000BE5676056C374019518B3E433FE7037900013E075F00AA4FE900012E0FD2EFE94
:2002CA007405B51804C3E49EFEE5172401F582E43400F583E4F0EEF5693395E0F56A9000A8
:2002EA000112253E12010EE51A902C5D93F58212273475180175660002050B74FC25185056
:20030A003DE5197013E51A902C5D9324D0FE900012F075190102050B900012E0900013F030
:20032A00E51A902C5D9324D0FE900012F00519E51924FD400302050B75190102050BC3741A
:20034A00019518B3E433FE601D751802E5172401FDE43400FEE51A902C5D93FC8D828E8316
:20036A00F0051702050B74F02517500302050BE5172401FDE43400FEE51A902C5D93FC8DE8
:20038A00828E83F0051702050BC374019518B3E433FE6028AE170517EE2401F582E43400EA
:2003AA00F5837430F0AE170517EE2401F582E43400F583742EF075180302050B7402B518B5
:2003CA002CE5177011AE170517EE2401F582E43400F5837430F0AE170517EE2401F582E48C
:2003EA003400F583742EF075180302050BE51824FB4005051802050B75180402050BC374A9
:20040A00019518B3E433FE7037900013E075F00AA4FE900012E0FD2EFE7405B51804C3E485
:20042A009EFEE5172401F582E43400F583E4F0EEF5693395E0F56A90000112253E12010EA0
:20044A00E51A902C5D93F58212273475180175660102050BE567700BC374019518B3E43311
:20046A00FE600F75670075660112010E75180002050B74FC25185011151875190090001222
:20048A00E4F0900013F002050BE517700302050B1517E5172401F582E43400F583E0FEBE68
:2004AA002E5F751802805AC374019518B3E433FE7037900013E075F00AA4FE900012E0FDD5
:2004CA002EFE7405B51804C3E49EFEE5172401F582E43400F583E4F0EEF5693395E0F56A0A
:2004EA0090000112253E12010EE51A902C5D93F58212273475180175660080058F82122704
:20050A00347526007582001208B2C374019518B3E433FF7004E56660161225A6AE82AF831D
:20052A007D008E828F838DF0122216AF828014122593AD82AE837C008D828E838CF0122210
:20054A0016AF82EF700B75271090001F120901806575270D90001FC007120901D007EF3053
:20056A00E710758201C007120936D007C3E49FFF800A758200C007120936D007C2D575F0E2
:20058A000AEF30E704B2D5F4048430D502F4042430F582C007120936D00775F00AEFC2D58C
:2005AA0030E704D2D5F40484E5F030D502F4042430F5821209367582001209987401B51817
:2005CA0002800302065B122593AD82AE837C008D828E838CF0122216E582FF700C7527100F
:2005EA0090001F12090102070575270D90001FC007120901D007EF30E710758201C007121F
:20060A000936D007C3E49FFF800A758200C007120936D007C2D575F00AEF30E704B2D5F47A
:20062A00048430D502F4042430F582C007120936D00775F00AEFC2D530E704D2D5F404843C
:20064A00E5F030D502F4042430F582120936020705E517700975823012093602070574FC27
:20066A002518402A7F00C3EF95174003020705BF10004003020705EF2401F582E43400F5E3
:20068A0083E0F582C007120936D0070F80D87F00C3EF9517501CBF0D005017EF2401F58219
:2006AA00E43400F583E0F582C007120936D0070F80DEBF0D005012BF0D005016758220C0B6
:2006CA0007120936D0070F80EE75260D7582011208B27405B5180875820112093680067566
:2006EA008200120936900013E02430F582120936900012E02430F5821209367582011209CD
:10070A0098E567600675825E120936C2B4020192E4
:202C470000000A0000000000000000000017023A325C63282D44633C726D2F3938372A36D1
:202C670035342D3332312B3D2E305354432052504E20202020202020202043616C63756CED
:0B2C870061746F722076312E30350032
:202D29005354432052504E20202020202020202043616C63756C61746F722076312E30350C
:012D49000089
:20071A00AF82AEB0741F5EF5B0758232C007120D7BD00753070FEFC454F0F5A075826412D7
:20073A000D7BD2B5758264120D7BC2B522E582FFC4540FF582C00712071AD0078F82120703
:20075A001A02079DAFA0C2B7D2B6D2B5439580AE96747F5EF596758264C007120D7BA2A76B
:20077A009200AE95747F5EF595439680C2B5D2B5758264120D7BD007C2B58FA0A200E4332D
:20079A00F582227E007F00C007C00612075EE582D006D007700122758201C007C006120D5A
:2007BA006CD006D0070EBE00010FC3EE9464EF940040D422AF82C00712079DD007C2B5D2FA
:2007DA00B7C2B674F05FF5A0D2B5758264C007120D7BD007C2B553070FEFC454F0F5A0D220
:2007FA00B5758264120D7BC2B502079D7595007596FFAFB1740F5FF5B143B2F075821E1210
:20081A000D6C75820312071A758205120D6C75820312071A758264120D7B75820312071A42
:20083A00758264120D7B75820212071A758264120D7B75820612074775820C1207477582D1
:20085A00141207477582281207477582401207477F00758200C0071207CED007EF60027434
:20087A000FFE8E82C0071207CE7582001207CE75821C1207CE7582101207CE7582181207A5
:20089A00CE7582101207CE75821C1207CED0070FBF020040BD0209D4AF82BF02005023742C
:2008BA00F02526401DEF030354C024802526F582C007120747D0078F22752300852624758C
:2008DA00250022E582FF700D758280120747E4F522F523800C7582C0120747752201752317
:2008FA0000E4F524F52522AE82AD837F00AC278E828D838FF0122BB9FB6020EC601D8B826D
:20091A00C007C006C005C004120936D004D005D006D0070EBE00010D1C80D422AF82BF0D97
:20093A00028003BF0A051209D4804FE4BF090104FE7003EE6016E522452370087582011215
:20095A0008DD80367582001208DD802E8F821207CE0524E4B524020525C3E5249410E525C2
:20097A00648094804014E522452370087582011208DD80067582001208DD90000122AF82E3
:20099A00E524452560188F057E00EDB52210EEB5230C758220C007120936D00780E222E52B
:2009BA0082540FFF24F6400A8F0674302EF58202093674572FF582020936758201120747AC
:0A09DA00E4F522F523F524F52522AB
:2009E4007591007592007590FFAFB174FC5FF5B1AFB274FC5FF5B243B003AFC974CF5FF531
:200A0400C9AFCA74CF5FF5CA43C8307F00EF2F25E0248AFE7D00ED2EF9902C92E493FCF75D
:200A24000DBD040040F00FBF050040E17528FF227880760043B203AFB074FC5FF5B043B0D6
:200A440003AFB274FC5FF5B27880860F30B0047E0080027E01EE2F7880F67880860F30B14F
:200A6400047E0080027E02EE2F7880F67880860F30CC047E0080027E04EE2F7880F67880D1
:200A8400860F30CD047E0080027E08EE2F7880F67F00902C96E493FEC3EF9E505CEF0424D2
:200AA40080F87600EF04FE8FF005F07401800225E0D5F0FBFD7C0074042CF5F005F07401B7
:200AC400800225E0D5F0FBF4F590ED5590FB70047A0180027A008A0BEE2480F9870A8CF06D
:200AE40005F0EB800225E0D5F0FBFB2AF77590FF0CBC040040C10F8099227528FF752A0059
:200B0400E52A252A25E0FEFD248AF532E52A2485F531E52A2480F530752B00C00DE52B2546
:200B240032FAA80A862EA831860FE52B252BFA8AF005F07403800225E0D5F0FBFA5FF52FAD
:200B4400E52B75F002A4F5F005F0E52F8002C313D5F0FBF52F852E2C852F2DA830860F859A
:200B64002BF005F07A017B008006EA2AFAEB33FBD5F0F78F0D7F00ED520AEF520BD00DEA8B
:200B84004B601B902C93E493FFC3E52E64808FF063F08095F0501FE52E04F52C8018902C3A
:200BA40092E493FFC36480852EF063F08095F05005E52E14F52CE52F24FC5003020D03E56C
:200BC4002F75F003A4900BCD73020BD9020C19020C72020CAFC00D902C92E493FF3395E078
:200BE400FB902C95E493FA3395E0FDEA2FFFED3BFBE52CFA3395E0FDC3EA9FED64808BF00C
:200C040063F08095F0D00D5003020D0F752C00752D01020D0F902C94E493FFC3E52C64804A
:200C24008FF063F08095F0400D752D02902C93E493F52C020D0FC00DEF3395E0FBC3E49F3E
:200C4400FFE49BFBE52CFA3395E0FDC3EF9AEB64808DF063F08095F0D00D5003020D0F75B4
:200C64002D00902C92E493F52C0529020D0FC00D902C93E493FF3395E0FB902C95E493FA1A
:200C84003395E0FDEFC39AFFEB9DFBE52CFA3395E0FDC3EF9AEB64808DF063F08095F0D06D
:200CA4000D4068752C00752D038060C00D902C94E493FFFA3395E0FBC3E49AFAE49BFBE58B
:200CC4002CFC3395E0FDC3EA9CEB64808DF063F08095F0D00D400C752D00902C92E493F5D1
:200CE4002C8028C3E52C64808FF063F08095F0401A752D02902C93E493F52C0529800C7579
:200D04002D00902C92E493F52C05297401B52F02800A7401B52D05E52B2EF528ED248A2532
:200D24002BF8A62CE52A2485F9870FE52B252BFC8CF005F07403800225E0D5F0FBF4FB52A7
:200D44000F8CF005F0E52D800225E0D5F0FBFC4FF7052B74FC252B4003020B1F052A74FB77
:080D6400252A4003020B0422C2
:052C9200E21E02020435
:1C0D6C0075F00A74E6D5E0FDD5F0F8D582F222000000000000D582F722D2B422B0
:09007500753E00753F0075400066
:200D8800AD82AE83AFF0AA76AB77AC788A828B838CF0122BB9F8A3122BB9F98D828E838F21
:200DA800F0E8122B34A3E9122B3474022DFDE43EFE74022AF57AE43BF57B8C7C757900E5AC
:200DC800792DF8E43EF98F04C005C006C007E579257AFAE4357BFBAF7C8A828B838FF01211
:200DE8002BB9FA888289838CF0122B340579C3E5799409D007D006D00540C422AD82122BBA
:200E0800B9FEA3122BB9FF30E60C8E048F058C8274804DF583228E82747F5FF58322AD821F
:200E2800AE83AFF0E578600BAB76AC7774804CF577800353777F8D828E838FF0E576122B1F
:200E480034A3E577022B34AD82AE83AFF074022DFDE43EFEAC76BC09005015EC2DF9E43EB7
:200E6800FA8F0389828A838BF0E4122B340C80E622AD82AE83AFF0754000E4F53FF53EF56E
:200E88004174022DFDE43EFEE5412DFAE43EFB8F048A828B838CF0122BB975F00A84F53E9A
:200EA800E5412DFAE43EFB8F048A828B838CF0122BB975F00A8485F03FE5412DFAE43EFB90
:200EC8008F04E54075F00AA4253EF98A828B838CF0122B34853F40054174F7254150A922A6
:200EE800AD82AE83AFF0754000753F00753E0075410874022DFDE43EFEE5412DFAE43EFBE7
:200F08008F048A828B838CF0122BB975F00A84F53EE5412DFAE43EFB8F048A828B838CF0F1
:200F2800122BB975F00A8485F03FE5412DFAE43EFB8F04E53F75F00AA42540F98A828B8360
:200F48008CF0122B34853E4015417401254150A92285824285834385F044122BB9A3122B2A
:200F6800B933E433F5468542828543838544F0120E0485824785834874022542F8E43543EB
:200F8800F9AC447B00EB28FAE439FE8C078A828E838FF0122BB970060BBB090040E7EB75CC
:200FA800F002A4D39547F4B3F547E54895F0F548EB605ABB0900505574022542FDE43543CE
:200FC800FEAF447549008B4574F725454030E5492DF54AE43EF54B8F4CE5452DFAE43EFB00
:200FE8008F048A828B838CF0122BB9FA854A82854B83854CF0122B340549054580CA85494A
:20100800768542828543838544F0120E4F74022542FDE43543FEAF448D828E838FF0122B93
:20102800B9FDBD0A0050158542828543838544F0120EE8154774FFB5470215488547768580
:2010480048778546788542828543838544F0020E2685824F8583507D008D527B007A00857F
:201068004F82855083E0FC700990003375F04002125FBC2D027A02755100E551254FF582C1
:20108800E43550F583E0FFBF2E13EA20E00643020102125A90003375F040021308C3EF6449
:2010A8008094B15003021112C374B98FF063F08095F04056BD1200501EED30E015EDC3137C
:2010C8002435F9E55275F00AA4FEEF24D0FC2EF78005EF24D0F5520DEB700ABA0102800309
:2010E800BA03027BFFEA70047A048013BA01047A05800CBA02047A068005BA03027A07EA87
:2011080030E00302125A0B02125AE551254FF582E43550F583E0FFBF3053C374838AF06313
:20112800F08095F0E433FE601DBD12005017ED30E010EDC313FC2435F9E55275F00AA4F78B
:2011480080037552000DEA30E019EE600302125AEB70057BFE02125AEB20E70302125A1B99
:2011680002125AEE700302125A0B02125AEF600302125AC374838AF063F08095F04009908C
:20118800003375F04002125FED30E00FEDC313FF2435F9E55275F00AA4F70DEDC313F57660
:2011A80090003375F040C003C002120E4FD002D003C374808BF063F08095F05035AF4DEB30
:2011C800142FFFFC3395E0FEC3EC954DEE6480854EF063F08095F0401074FF954D74BF8548
:2011E8004EF063F08095F0503F90003375F040021308EB30E730AE4DEB2EFFFC3395E0FE56
:20120800C3E54D9CE54E64808EF063F08095F0400CE54D9401E54E64809440500B9000332C
:2012280075F040021308AF4DEFF5763395E0F577C3EA64809486E433FFB40100E433F57880
:2012480090003375F040120E2690003375F040020F590551021082AD82AE83AFF0E4122BFC
:2012680034A3122B3474022DFDE43EFE7C00EC2DF9E43EFA8F0389828A838BF0E4122B343A
:201288000CBC090040E822AD82AE83AFF074022DFDE43EFE7C00EC2DF9E43EFA8F03898225
:2012A8008A838BF0122BB96004758200220CBC090040E375820122AD82AE83AFF0122BB928
:2012C800FBA3122BB9FCBB0005BCC00280047582002274022DFDE43EFE7C00EC2DF9E43E2B
:2012E800FA8F0389828A838BF0122BB9F9B9FF028004758200220CBC090040DF7582012277
:20130800AD82AE83AFF0E4122B34A374C0122B3474022DFDE43EFE7C00EC2DF9E43EFA8F30
:201328000389828A838BF074FF122B340CBC090040E722AD82AE83AFF0122BB9FBA3122B41
:20134800B9FC902CAEE493F9740193FAE96203EA62048D828E838FF0EB122B34A3EC022B9F
:20136800347F007576338F7775784090003B75F000C007120D8875769E7577007578409091
:20138800004675F000120D8890003B75F000120F5990004675F000120F59D007E4FEFDF5E9
:2013A80053F554F555F556BE09005068BD09005063EF7023EE243DF582E43400F583ED2413
:2013C80048FBE43400FCE0FA8B828C83E0FBC3EA9B50047FFF8023EF7020EE243DF582E4F7
:2013E8003400F583ED2448FBE43400FCE0FA8B828C83E0FBC39A50027F010E0D74022553C8
:20140800F553E43554F55474022555F555E43556F556809390003B75F000C007120E04ADF7
:2014280082AE83ED2553FDEE3554FE90004675F000C006C005120E04AB82AC83D005D00629
:20144800D007EB2555FBEC3556FCC3EB9DEC64808EF063F08095F0500475820122C3ED9B30
:20146800EE64808CF063F08095F050047582FF228F822290003375F04012128FE58260112C
:2014880090009E75F04012128FE58260047582002290003375F04012128FE5826012789ED0
:2014A800860608E6FF30E704758201227582FF2290009E75F04012128FE582600DE53430BB
:2014C800E7047582FF2275820122AE33E534FF33E433FD6019789E8603088604C3E49B7447
:2014E800808CF063F08095F050047582FF22C3E49E74808FF063F08095F0500E789E860614
:2015080008E6FF30E70475820122ED60047FFF80027F01C007121369AE82D0078EF0EFA463
:20152800F58222AD82AE83AFF0C007C006C005120E04AB82AC83D005D006D007EBB55705BB
:20154800ECB55801228D828E838FF0C007C006C005C004C003120E79D003D004D005D00604
:20156800D0070BBB00D60C80D3755A0090003375F040120F5990009E75F040120F59900003
:201588003375F040120E04AD82AE8390009E75F040C006C005120E04AB82AC83D005D0065E
:2015A800EDB50306EEB50402801890003375F040120E0485825785835890009E75F0401208
:2015C800152B755908E5592435F9E55924A0F886058D037C00AA5A7F00EA2BFBEF3CFC878B
:2015E800078F027E00C3EA9BEE64808CF063F08095F0400CE55A2DD39FF4FE755A00800E66
:2016080074642FFFE55A2DD39FF4FE755A01E5592435F8A6061559E55930E7A9227F009044
:20162800009E75F040C00712128FE582D00760012290003375F040C00712128FE582D00704
:20164800601275769E75770075784090003375F040020D8875769E7577007578409000A994
:2016680075F040C007120D88D007E53433E433FE605E789E860408E6FD20E754121369AD38
:2016880082BD01051215718035BDFF2975763375770075784090009E75F040120D8875762F
:2016A800A975770075784090003375F040120D88121571800990003375F04012125F75765A
:2016C800A975770075784090009E75F040020D88EE705E789E860408E6FE30E75412136995
:2016E800AD82BD01051215718035BDFF2975763375770075784090009E75F040120D887598
:2017080076A975770075784090003375F040120D88121571800990003375F04012125F75F9
:2017280076A975770075784090009E75F040020D8890003375F040C007120F5990009E75B3
:20174800F040120F5990003375F040120E04AC82AE8390009E75F040C006C004120E04AAC1
:2017680082AB83D004D006D007C3EA9CEB64808EF063F08095F0501F90003375F040C007A4
:20178800120E0485825785835890009E75F04012152BD00702184E90003375F040C00712BA
:2017A8000E04AC82AE8390009E75F040C006C004120E04AA82AB83D004D006D007C3EC9A0B
:2017C800EE64808BF063F08095F0507A755B0090009E75F040C007120E04AB82AC83900018
:2017E8003375F040C004C003120E04AA82AE83D003D004D007EBC39AFBEC9EFCE55BFA334D
:2018080095E0FEC3EA9BEE64808CF063F08095F0501190003375F040C007120E79D007055A
:201828005B80AC90009E75F040C007120E04858276858377E53433E433F57890003375F067
:2018480040120E26D0077E08EE2435F9EE24A0F886048703EC2B2FFC75F06484E5F0F775CF
:20186800F064EC84FF1EEE30E7DEEF70030218F890003375F040C007120E04AC82AE83D0A6
:2018880007E53433E433FDBF0A00502A90003375F040C007C006C005C004120E79D004D0DB
:2018A80005D006D007EF75F00AA4FB2535F5350CBC002E0E802B90003375F040C007C00649
:2018C800C005C004120E7990003375F040120E79D004D005D006D0078F3574022CFCE43E03
:2018E800FE8C768E778D7890003375F040120E267576A975770075784090009E75F04002A6
:201908000D887F009000A975F040C00712125F90003375F040120F5990009E75F040120FAD
:2019280059D007AE347D00530680789E86030886047B00530480EB6205EC6206ED4E600271
:201948007401F55D90003375F040C007120E04AC82AD8390009E75F040C005C004120E0487
:20196800AA82AB83D004D005D007EA2CF55EEB3DF55F755C08E55C24A0F97A08EA24ABF896
:2019880086068E057E00EA2435FCC000A8048604D00087038BF0ECA42DFDEE35F0FE8F033B
:2019A8007C00EB2DFDEC3EFE7576648C778D828E83C006C005C002C001C000122B6CAB8250
:2019C800D000D001D002D005D006A6037576647577008D828E83C002C001122B0BAD82AE35
:2019E80083D001D0028D071AEA30E790E55C601A9000A975F040C007120E799000A975F0E3
:201A080040120E79D00778ABA607155CE55C20E70302197DBF0A0040249000A975F040C01F
:201A280007120E799000A975F040120E79D007055EE4B55E02055F78ABA607801FEF601C16
:201A48009000A975F040C007120E79D007EF75F00AA4FF78AB8606EF2E78ABF6C3E55E94E9
:201A6800FFE55F648094BF5025C37401955E7440855FF063F08095F05014855E76855F774C
:201A8800855D789000A975F040120E26800990003375F0400213087576A975770075784005
:201AA80090003375F040120D8890003375F040020F5990003375F04012128FE582600990C2
:201AC800003375F04002130890003375F040120F597576337577007578409000BF75F040FC
:201AE800120D8890003375F040120E04AE82AF83C3E49EFEE49FFFEE24FFF576EF34FFF5F1
:201B080077E53433E433F5789000B475F040120E26AF35BF1400500678B67632801ABF21EA
:201B280000500678B6761E800FBF3200500678B67614800478B6760A7F01EF24B6F876000E
:201B48000FBF090040F47576B475770075784090003375F040120D887F007576BF75770096
:201B680075784090009E75F040C007120D8812190A90003375F04012133B75769775772C58
:201B880075788090009E75F040120D881216257576B475770075784090009E75F040120D5F
:201BA8008812190A1216257576337577007578409000B475F040120D88D0070FBF06004061
:201BC800992275763375770075784090001475F000120D8875769E757700757840900033F6
:201BE80075F040120D88121ABA75761475770075780090009E75F040120D8802190AE5341B
:201C080020E70D90003375F04012128FE582600990003375F04002130890003375F04012BE
:201C28000F5990003375F040120E04E5828583F02401FEE435F0FF78BFA60608A607E4F5AD
:201C480033F53475769775772C75788090009E75F040120D88789E7601087600900033755C
:201C6800F04012133B1216257576337577007578409000B475F040120D887F00EF600D904D
:201C880000B475F040C007120EE8D0077576B475770075784090003375F040C007120D88AF
:201CA800D0077E00E53430E703021D457576337577007578409000B475F040C007C0061271
:201CC8000D8875763375770075784090009E75F040120D88D006D0077D00C3ED9F50189045
:201CE800009E75F040C007C006C005120E79D005D006D0070D80E3C007C006121625D0060C
:201D0800D00774F62535502B90003375F040C007C006120E04AC82AD83D006D007C3E49C3E
:201D280074808DF063F08095F05008E53524F6F53580067533FF7534FF0E021CACEF24C19B
:201D4800F9EE14F70FBF09005003021C847576B475770075784090003375F040120D887F77
:201D680008EF75F00BA424B0FD742C35F0FEEF24C1F97C008703C3EC9B50318D768E7775A1
:201D8800788090009E75F040C007C006C005C004C001120D88789E7600087600121625D0CB
:201DA80001D004D005D006D0070C80C890003375F040C007120E79D0071FBF090040A29078
:201DC800003375F04012133B7576337577007578409000B475F040120D8890003375F04094
:201DE80012125F78BF860608E6FF30E713756001C3E49EFEE49FFF78BFA60608A6078003C8
:201E080075600078BF8606088607C3EE9410EF648094A740607576107577278E828F831248
:201E28002C0BAB828B3578BF8682088683757610757727122BD5AB82AC8378BFA60308A61C
:201E4800047576647577008B828C83C004C003122C0BAA82D003D0048A3675766475770081
:201E68008B828C83122BD5AC82AD838C377533047534008042C3EE9464EF64809480402FF5
:201E88007576647577008E828F83122C0BAC828C3578BF8682088683757664757700122BDD
:201EA800D5AC82AD838C3675330275340080088E35753301753400E560600990003375F05F
:201EC8004012133B7576A275772C75788090009E75F040120D8812190A7576B47577007599
:201EE800784090009E75F040120D88021625121C067576A275772C75788090009E75F04052
:201F0800120D8875763375770075784090001475F000120D8875769E7577007578409000F9
:201F28003375F040120D88121ABA75761475770075780090009E75F040120D8802190A7548
:201F48006200E53430E70C90003375F04012133B7562017576337577007578409000B4754B
:201F6800F040120D8890009E75F04012125F78A0761778A1760278A2763A78A27633789E53
:201F8800760208760090009E75F04012133B121625E53420E70990003375F04002130875A0
:201FA80076B475770075784090003375F040120D887576A275772C75788090009E75F040E2
:201FC800120D887576337577007578409000B475F040120D8875769775772C7578809000F4
:201FE8003375F040120D8875330175340012190A75763375770075784090009E75F04012B7
:202008000D8890009E75F04012133B7576B475770075784090003375F040120D887E00E5C6
:202028003420E71C7576337577007578409000B475F040C006120D88121625D0060E80DF24
:202048007D00EE24FFF576ED34FFF57790000A122B4FE5828583F078BFF608A6F07576B404
:2020680075770075784090003375F040120D887576A275772C75788090009E75F040120D2C
:202088008890009E75F04012133B7EFF7D00E53420E7207576337577007578409000B47553
:2020A800F040C006C005120D88121625D005D0060D80DBBEFF1F78BF86030886048D027F1A
:2020C800001ABAFF011FEA2BFBEF3CFC78BFA60308A6048007EE24C1F9ED14F77576B475DD
:2020E800770075784090003375F040C006120D88D0060EBE0900502DEE75F00BA424B0FD64
:20210800742C35F0FF8D768F7775788090009E75F040C006120D8890009E75F04012133B0A
:20212800D00602209475769775772C75788090009E75F040120D8812162575769775772CA3
:2021480075788090009E75F040120D88789E76010876007FFFEF24C1F9E4BFFF0104FE7520
:202168006100EE600978BF8603088604800687028A037C00AA617D00C3EA9BED64808CF018
:2021880063F08095F05013C007C006C00112190AD001D006D007056180C80FBF0900502C7A
:2021A800EF700D78A07614789E760008760080A5BF010678A0760B809C90009E75F040C0CC
:2021C80007120E79D00778A0760A8089E5626003021ABA227576A275772C75788090009EFD
:2021E80075F040120D8812190A021F4790001F7445F09000207472F0900021F09000227449
:202208006FF09000237472F0900024E4F022AD82AE83AFF07C008C647A008D828E838FF0A0
:20222800C007C006C005C004C0021212BFE582D002D004D005D006D00760071221F47582C7
:2022480000228D768E778F7890005175F000C004C002120D8890005175F000120F59D00240
:20226800D004900053E0700F90001F7430F0900020E4F075820022900051E0FEA3E0FF30EF
:20228800E70890001F742DF07C0190005175F000C004C002120E04AE82AF83D002D0049002
:2022A8002CADE493FDF8790018B8FF0119C3E89EE964808FF063F08095F0400AEE94FDEFCA
:2022C8006480947F50027A01EA7057EF30E753EC241FF582E43400F5837430F00C8C010CB9
:2022E800E9241FF582E43400F583742EF0C3E49EF8E49FF918B8FF01198C65C3E49874804B
:2023080089F063F08095F05017E565241FF582E43400F5837430F0056518B8FF011980DBA7
:20232800AC65EC241FF8E43400F9900053E075F00A842430FB88828983F00CEA60128C034A
:202348000CEB241FF582E43400F583742EF08019EE4F70108C030CEB241FF582E43400F5FF
:2023680083742EF01EBEFF011FEC241FF9E43400FB900053E075F00A84A8F0743028F8896F
:20238800828B83F0900053E0FB75F00A84E5F0700AEA7004EF30E7037564010CEA7019EE07
:2023A8004F70108C030CEB241FF582E43400F583742EF01EBEFF011FEDC313FD756301C38D
:2023C800E5639D40030224ABEC241FF8E43400F9E5632453F582E43400F583E075F00A842B
:2023E8002430FB88828983F00CEA7019EE4F70108C030CEB241FF582E43400F583742EF0E2
:202408001EBEFF011FEC241FF9E43400FBE5632453F582E43400F583E075F00A84A8F074D9
:202428003028F889828B83F00CEA7019EE4F70108C030CEB241FF582E43400F583742EF09D
:202448001EBEFF011FE5632453F9E43400FB89828B83E07025EA7004EF30E71EEA700BC376
:20246800EE94FEEF6480947F500605640564802EBEFE2BBFFF2805648024E5632453F58208
:20248800E43400F583E0FB75F00A84E5F0700CEA7004EF30E705756401800375640005637E
:2024A8000223C7EA700EC3E49E74808FF063F08095F04005ECC39564FCEC241FF582E43409
:2024C80000F583E4F090005175F000C002120E04AE82AF83D002EA6023C374FF9E74BF8F45
:2024E800F063F08095F0400AEE9401EF6480944050071221F4758200228E82227582002236
:202C970000000A0000000000000000000017023A325C63282D44100080FF7F451F2F12057E
:202CB7003B5E3509FE7F5F1F014F502B185600FD7F633221083510505254FC7F635F00211F
:202CD7001E53351F43FB7F636332002121082121FA7F63635F000021211D5FF97F636363DA
:1C2CF700320000210523F87F6363635F0000024C28F77F6363636332000F6241EB
:09007E00756600756700756800E5
:202508007403556875F00BA4245CFE740035F0FF7D0074032568540375F00BA4245CFB747A
:202528000035F0FC8B768C778D788E828F838DF0120D88056822AE82AF83E56670021568F8
:2025480085694D856A4E8E828F831210597403556875F00BA4245CFE740035F0FF7D00750E
:2025680076338D777578408E828F838DF0020D887403556875F00BA4245CFE740035F0FFE5
:202588007D008E828F838DF002125F7403556875F00BA4245CF582740035F0F58322E568E5
:2025A80004540375F00BA4245CF582740035F0F58322AE82AF83E56804540375F00BA42438
:2025C8005CFC740035F0FD7B008C828D838BF0C007C0061212BFE582D006D007702774035F
:2025E800556875F00BA4245CFC740035F0FD7B008C828D838BF0C007C0061212BFE582D035
:2026080006D007601EE56804540375F00BA4245CFC740035F0FD7B008C828D838BF0121350
:2026280008807CE56804540375F00BA4245CFC740035F0FD8C768D7775780090003375F0A5
:2026480040C007C006120D887403556875F00BA4245CFC740035F0FD8C768D777578009021
:20266800009E75F040120D88D006D007C007C0068E828F83120011D006D007E56804540394
:2026880075F00BA4245CFE740035F0FF7D007576338D777578408E828F838DF0120D8802F4
:2026A8002508AE82AF837403556875F00BA4245CFC740035F0FD7B008C828D838BF0C0074E
:2026C800C0061212BFE582D006D007705A7403556875F00BA4245CFC740035F0FD8C768D82
:2026E8007775780090003375F040C007C006120D88D006D007C007C0068E828F8312001153
:20270800D006D0077403556875F00BA4245CFE740035F0FF7D007576338D777578408E82CA
:202728008F838DF0020D882263670122AF82C007120D85D007BF2A028052BF2B028047BFBA
:202748002D02804EBF2F030227BBBF35030229D8BF36030229E7BF3703022A14BF38030266
:202768002A05BF39030229F6BF3C03022830BF3D028046BF6303022815BF6D030229D5BF98
:202788007203022932229016250225BA90190A0225BA7403556875F00BA4245CFE7400358E
:2027A800F0FF7D008E828F838DF012133B9016250225BA901BCA0225BA7403556875F00B00
:2027C800A4245CFE740035F0FF7D008E828F838DF01212BFE5826001221568740355687528
:2027E800F00BA4245CFE740035F0FF7D00E56804540375F00BA4245CFB740035F0FC8B76D2
:202808008C778D788E828F838DF0020D887403556875F00BA4245CFE740035F0FF7D008E09
:20282800828F838DF002125FE56770030228F77567007403556875F00BA4245CFE740035E1
:20284800F0FF7D008E828F838DF01212BFE5826001227403556875F00BA4245CFE74003529
:20286800F0FF8E768F7775780090003375F040120D88E53430E71B7403556875F00BA424A4
:202888005CFE740035F0FF7D008E828F838DF002130890009E75F04012125F78A0760575A7
:2028A800769E75770075784090001475F000120D88121C0675761475770075780090009EF9
:2028C80075F040120D8812190A121F477403556875F00BA4245CFE740035F0FF7D00757631
:2028E800338D777578408E828F838DF0020D887403556875F00BA4245CFE740035F0FF7D5B
:20290800008E828F838DF01212BFE5826001227403556875F00BA4245CFE740035F0FF7D68
:20292800008E828F838DF002133BE5676009756700901ABA0226AA7403556875F00BA4246D
:202948005CFE740035F0FF7D008E828F838DF01212BFE5826001227403556875F00BA42428
:202968005CFE740035F0FF8E768F7775780090006B75F040120D887403556875F00BA424B3
:202988005CFE740035F0FF7D00E56804540375F00BA4245CFB740035F0FC8B768C778D78EB
:2029A8008E828F838DF0120D88E56804540375F00BA4245CFE740035F0FF7D0075766B8D97
:2029C800777578408E828F838DF0020D88022730E567700122901F471226AA75670022E522
:2029E800677001229021DC1226AA75670022E567700122901EF61226AA75670022E5677049
:202A08000122901C061226AA75670022E56804540375F00BA4245CFE740035F0FF7D008E1C
:202A2800828F838DF01212BFE582701F7403556875F00BA4245CFE740035F0FF7D008E82B9
:202A48008F838DF01212BFE582601FE56804540375F00BA4245CFE740035F0FF7D008E82B7
:202A68008F838DF0121308022B04E56804540375F00BA4245CFE740035F0FF8E768F777510
:202A8800780090003375F040120D887403556875F00BA4245CFE740035F0FF8E768F7775CA
:202AA800780090009E75F040120D8875769E75770075784090001475F000120D88121C0696
:202AC80075761475770075780090009E75F040120D8812190A121F47E56804540375F00BD7
:202AE800A4245CFE740035F0FF7D007576338D777578408E828F838DF0120D88122508754E
:032B080067002241
:162D130000000A0000000000000000000017023A325C63282D44C3
:202B0B007A10E4FBFCE58225E0F582E58333F583EB33FBEC33FCEB9576F5F0EC9577400602
:092B2B00FCABF0438201DADD226B
:06004200E478FFF6D8FD92
:200020007921E94400601B7A01902D29788875A000E493F2A308B8000205A0D9F4DAF27587
:02004000A0FF1F
:1B2B340020F71130F6138883A88220F509F6A8837583002280FEF280F5F022A0
:1D2B4F00E5828576F0A4C582C0F08577F0A4D0F025F0C5838576F0A42583F58322FE
:202B6C00E576457760467A01E57625E0F576E577334012F577E5829576E583957740030AC6
:202B8C0080E6C3E57713F577E57613F576C3E5829576F5F0E58395774005F58385F082C347
:0D2BAC00E57713F577E57613F576DAE1228B
:200048007800E84400600A790175A000E4F309D8FC7887E84400600C7901900001E4F0A32E
:04006800D8FCD9FAED
:0F001100E4737581C9122C43E582600302000E6F
:1C2BB90020F71430F6148883A88220F507E6A88375830022E280F7E49322E0222B
:202BD500C2D5E58330E70DD2D5E4C39582F582E49583F583E57730E70BE4C39576F576E4EE
:162BF5009577F577122B6C30D50BE4C39582F582E49583F58322CE
:202C0B00C2D5E58330E70DD2D5E4C39582F582E49583F583E57730E70DB2D5E4C39576F588
:182C2B0076E49577F577122B0B30D50BE4C39582F582E49583F583229C
:042C43007582002274
:00000001FF
